:020000040800F2
:1000000048070020CD010008410400089D030008B6
:100010003D0400087D020008C3060008000000003F
:10002000000000000000000000000000650400085F
:100030008102000800000000430400087905000860
:10004000E7010008E7010008E7010008E7010008F0
:10005000E7010008E7010008E7010008E7010008E0
:10006000E7010008E7010008E7010008E7010008D0
:10007000E7010008E7010008E7010008E7010008C0
:10008000E7010008E7010008E7010008E7010008B0
:10009000E7010008E7010008E7010008E7010008A0
:1000A000E7010008E7010008E7010008E701000890
:1000B000E7010008E7010008E7010008E701000880
:1000C000E7010008E7010008E7010008E701000870
:1000D000E7010008DD050008E7010008E701000866
:1000E000E7010008E7010008E7010008E701000850
:1000F000E7010008E7010008E7010008E701000840
:10010000E7010008E7010008E7010008E70100082F
:10011000E7010008E7010008E7010008E70100081F
:10012000E7010008E7010008E7010008E70100080F
:1001300000F002F800F03AF80AA090E8000C8244BF
:100140008344AAF10107DA4501D100F02FF8AFF29C
:10015000090EBAE80F0013F0010F18BFFB1A43F0A5
:10016000010318471C0900003C090000103A24BF95
:1001700078C878C1FAD8520724BF30C830C144BF0C
:1001800004680C607047000000230024002500264E
:10019000103A28BF78C1FBD8520728BF30C148BFEA
:1001A0000B6070471FB51FBD10B510BD00F033F8D0
:1001B0001146FFF7F7FF00F0D1FA00F051F803B451
:1001C000FFF7F2FF03BC00F07EFA00000948804709
:1001D00009480047FEE7FEE7FEE7FEE7FEE7FEE729
:1001E000FEE7FEE7FEE7FEE704480549054A064B41
:1001F000704700007D05000831010008480100201B
:10020000480700204803002048030020704770473B
:10021000704770477047754600F02CF8AE460500F1
:100220006946534620F00700854618B020B5FFF711
:10023000DBFFBDE820404FF000064FF000074FF015
:1002400000084FF0000B21F00701AC46ACE8C009F4
:10025000ACE8C009ACE8C009ACE8C0098D467047FD
:1002600010B50446AFF300802046BDE81040FFF70C
:10027000A6BF000000487047E800002000BFFEE76E
:1002800070472DE9F041024600250026002000239A
:100290000024002791F803C00CF00F0591F803C06B
:1002A0000CF0100CBCF1000F03D091F802C04CEA26
:1002B000050591F800C0BCF1000F31D01468002092
:1002C0002BE04FF0010C0CFA00F3B1F800C00CEA7F
:1002D00003069E4220D183004FF00F0C0CFA03F767
:1002E000BC4305FA03FC4CEA040491F803C0BCF1DA
:1002F000280F06D14FF0010C0CFA00FCC2F814C014
:100300000AE091F803C0BCF1480F05D14FF0010C91
:100310000CFA00FCC2F810C0401C0828D1D31460AD
:10032000B1F800C0BCF1FF0F34DD546800202EE0AE
:1003300000F1080C4FF0010808FA0CF3B1F800C006
:100340000CEA03069E4221D183004FF00F0C0CFAF9
:1003500003F7BC4305FA03FC4CEA040491F803C01C
:10036000BCF1280F05D100F1080C08FA0CF8C2F80E
:10037000148091F803C0BCF1480F07D100F1080CBC
:100380004FF0010808FA0CF8C2F81080401C082849
:10039000CED35460BDE8F0810161704700BFFEE735
:1003A00008B50121042000F04DF80121082000F0DB
:1003B00049F80121102000F045F849F6FF70ADF82A
:1003C000000010208DF8030003208DF8020069461C
:1003D0001748FFF756FF49F6FF711548FFF7DCFF96
:1003E0004FF6FB70ADF8000010208DF803000320DD
:1003F0008DF8020069460F48FFF743FF4FF6FB7187
:100400000C48FFF7C9FF4FF46040ADF80000102022
:100410008DF8030003208DF8020069460648FFF7B7
:1004200030FF4FF460410448FFF7B6FF08BD0000FD
:1004300000080140000C01400010014000BFFEE731
:100440007047704729B1064A92690243044B9A618A
:1004500004E0034A92698243014B9A6170470000AD
:1004600000100240704710B500F002F810BD000007
:100470000CB50020019000903348006840F48030B3
:100480003149086000BF3048006800F40030009037
:100490000198401C0190009818B90198B0F5A06F20
:1004A000F1D12948006800F4003010B1012000901B
:1004B00001E0002000900098012843D12348006803
:1004C00040F01000214908600846006820F0030051
:1004D00008600846006840F0020008601A4840685A
:1004E000194948600846406848600846406840F43A
:1004F000806048600846406820F47C1048600846E8
:10050000406840F4E81048600846006840F0807099
:10051000086000BF0C48006800F000700028F9D0A7
:100520000948406820F003000749486008464068D1
:1005300040F00200486000BF0348406800F00C0033
:100540000828F9D10CBD0000001002400020024034
:10055000042808D14FF0E021096941F004014FF06F
:10056000E022116107E04FF0E021096921F0040168
:100570004FF0E022116170477047000010B513483A
:10058000006840F0010011490860084640681049C1
:1005900008400E494860084600680E4908400B496B
:1005A00008600846006820F480200860084640681B
:1005B00020F4FE0048604FF41F008860FFF753FFEF
:1005C0004FF000600449086010BD000000100240B8
:1005D0000000FFF8FFFFF6FE08ED00E010B540F266
:1005E00025511D4800F03EF810B31B4800F064F898
:1005F000C4B21A48008800F40040C8B917480088FF
:1006000000F4804060B10A2C03D000201349088018
:1006100020E01248008840F400401049088019E0AA
:100620000D2C06D10D48008840F480400B4908800D
:1006300010E00A480088C0F30D0009490C5407482F
:100640000088401C0549088008460088C72801DD4D
:100650000020088010BD0000003801401C00002070
:100660002000002070B50246002400230025002051
:1006700040F66A16B14200D100BFC1F3421501F045
:100680001F03012606FA03F3012D02D19689334098
:1006900006E0022D02D1168A334001E0968A3340EB
:1006A0000C12012606FA04F41688344013B10CB17A
:1006B000012000E0002070BD01468888C0F30800DA
:1006C000704700BFFEE700BF7047000010B56FF035
:1006D0000400FFF73DFF0A4800680A49B0FBF1F04B
:1006E000094908700846007800EB4001C1EBC010D2
:1006F0004FF6FF7101EAC0000449088010BD0000F8
:100700000000002000127A001400002016000020D3
:100710000146114A12884A434FF0E0235A610022F1
:100720009A611A46126942F001021A6100BF4FF045
:10073000E022106900F001021AB100F48032002AB0
:10074000F5D04FF0E022126922F001024FF0E023D1
:100750001A6100229A61704716000020FFF7B6FF69
:10076000FFF71EFE7FE14FF49670FFF7D1FFBE4802
:10077000006808B9012000E00020BB490860BB48C0
:10078000D0F8B00108B9012000E00020B649091FE7
:1007900008604FF49670FFF7BBFFB448D0F8B8017B
:1007A00008B9012000E00020AF49091D0860AF48EA
:1007B000D0F8AC0108B9012000E00020AA490839AE
:1007C00008604FF49670FFF7A3FFA848D0F8BC016B
:1007D00008B9012000E00020A34908310860A348BF
:1007E000D0F8A80108B9012000E000209E490C398A
:1007F00008604FF49670FFF78BFF9D48D0F8A0017A
:1008000008B9012000E000209A4908609748D0F814
:10081000840108B9012000E00020934930390860C4
:100820004FF49670FFF774FF9148D0F8A40108B90F
:10083000012000E000208F49091D08608B48D0F896
:10084000800108B9012000E00020874934390860A0
:100850004FF49670FFF75CFF8548D0F8A80108B9FF
:10086000012000E000208349083108608048D0F86A
:100870009C0108B9012000E000207E49091F0860A2
:100880004FF49670FFF744FF7948D0F8AC0108B9EF
:10089000012000E0002077490C3108607448D0F84E
:1008A000980108B9012000E0002072490839086069
:1008B0004FF49670FFF72CFF6D48D0F8B00108B9DF
:1008C000012000E000206B49103108606848D0F832
:1008D000940108B9012000E0002066490C39086045
:1008E0004FF49670FFF714FF6148D0F8BC0108B9C7
:1008F000012000E000205F491C3108605C48D0F80E
:10090000900108B9012000E000205A491039086020
:100910004FF49670FFF7FCFE5448D0F88C0108B9EC
:10092000012000E000205049283908605048D0F8E4
:100930008C0108B9012000E000204E4914390860FC
:100940004FF49670FFF7E4FE4848D0F8900108B9DC
:10095000012000E000204449243908604448D0F8D0
:10096000880108B9012000E00020424918390860D8
:100970004FF49670FFF7CCFE3C48D0F8940108B9CC
:10098000012000E000203849203908603848D0F8BC
:10099000840108B9012000E0002036491C390860B4
:1009A0004FF49670FFF7B4FE3048D0F8980108B9BC
:1009B000012000E000202C491C3908602C48D0F8A8
:1009C000800108B9012000E000202A492039086090
:1009D0004FF49670FFF79CFE2448D0F89C0108B9AC
:1009E000012000E000202049183908602248D0F892
:1009F000BC0108B9012000E00020204908604FF444
:100A00009670FFF785FE1948D0F8A00108B90120BB
:100A100000E000201449143908601748D0F8B801E4
:100A200008B9012000E000201449091F08604FF4B4
:100A30009670FFF76DFE0D48D0F8A40108B90120AB
:100A400000E000200849103908600B48D0F8B401D4
:100A500008B9012000E000200849083908604FF477
:100A60009670FFF755FE7EE6B48121420080214258
:100A700000002142A001214200002242BC0122428A
:100A8000A00A000800000020200000006C010008FF
:100A9000C00A000820000020280700008801000884
:100AA00000A24A040000000000000000010203044C
:100AB0000607080900000000000000000000000018
:04000005080001CD21
:00000001FF
