:020000040800F2
:10000000D0070020CD010008050600089D03000868
:10001000010600087D0200088708000800000000B3
:100020000000000000000000000000002906000899
:100030008102000800000000070600083D070008D4
:10004000E7010008E7010008E7010008E7010008F0
:10005000E7010008E7010008E7010008E7010008E0
:10006000E7010008E7010008E7010008E7010008D0
:10007000E7010008E7010008E7010008E7010008C0
:10008000E7010008E7010008E7010008E7010008B0
:10009000E7010008E7010008E7010008E7010008A0
:1000A000E7010008E7010008E7010008E701000890
:1000B000E7010008E7010008E7010008E701000880
:1000C000E7010008E7010008E7010008E701000870
:1000D000E7010008A1070008E7010008E7010008A0
:1000E000E7010008E7010008E7010008E701000850
:1000F000E7010008E7010008E7010008E701000840
:10010000E7010008E7010008E7010008E70100082F
:10011000E7010008E7010008E7010008E70100081F
:10012000E7010008E7010008E7010008E70100080F
:1001300000F002F800F03AF80AA090E8000C8244BF
:100140008344AAF10107DA4501D100F02FF8AFF29C
:10015000090EBAE80F0013F0010F18BFFB1A43F0A5
:1001600001031847DC070000FC070000103A24BF19
:1001700078C878C1FAD8520724BF30C830C144BF0C
:1001800004680C607047000000230024002500264E
:10019000103A28BF78C1FBD8520728BF30C148BFEA
:1001A0000B6070471FB51FBD10B510BD00F033F8D0
:1001B0001146FFF7F7FF00F0B3FB00F051F803B46E
:1001C000FFF7F2FF03BC00F060FB00000948804726
:1001D00009480047FEE7FEE7FEE7FEE7FEE7FEE729
:1001E000FEE7FEE7FEE7FEE704480549054A064B41
:1001F000704700004107000831010008D0010020CD
:10020000D0070020D0030020D003002070477047A3
:10021000704770477047754600F02CF8AE460500F1
:100220006946534620F00700854618B020B5FFF711
:10023000DBFFBDE820404FF000064FF000074FF015
:1002400000084FF0000B21F00701AC46ACE8C009F4
:10025000ACE8C009ACE8C009ACE8C0098D467047FD
:1002600010B50446AFF300802046BDE81040FFF70C
:10027000A6BF0000004870476C01002000BFFEE7E9
:1002800070472DE9F041024600250026002000239A
:100290000024002791F803C00CF00F0591F803C06B
:1002A0000CF0100CBCF1000F03D091F802C04CEA26
:1002B000050591F800C0BCF1000F31D01468002092
:1002C0002BE04FF0010C0CFA00F3B1F800C00CEA7F
:1002D00003069E4220D183004FF00F0C0CFA03F767
:1002E000BC4305FA03FC4CEA040491F803C0BCF1DA
:1002F000280F06D14FF0010C0CFA00FCC2F814C014
:100300000AE091F803C0BCF1480F05D14FF0010C91
:100310000CFA00FCC2F810C0401C0828D1D31460AD
:10032000B1F800C0BCF1FF0F34DD546800202EE0AE
:1003300000F1080C4FF0010808FA0CF3B1F800C006
:100340000CEA03069E4221D183004FF00F0C0CFAF9
:1003500003F7BC4305FA03FC4CEA040491F803C01C
:10036000BCF1280F05D100F1080C08FA0CF8C2F80E
:10037000148091F803C0BCF1480F07D100F1080CBC
:100380004FF0010808FA0CF8C2F81080401C082849
:10039000CED35460BDE8F0810161704700BFFEE735
:1003A00010B5012004E00121064A42F82010401C4B
:1003B0002028F8DD00F008F84FF4967000F08AFA73
:1003C00010BD0000E80000200020454908600846F4
:1003D000406844490860424880684349C1F8B80110
:1003E0003F48C068C1F8BC013D4800693F49C1F8B9
:1003F000A0013B484069C1F8A40139488069C1F8AF
:10040000A8013748C069C1F8AC013548006AC1F895
:10041000B0013348406AC1F8BC013148806A3249B2
:10042000C1F88C012E48C06AC1F890012C48006BBD
:10043000C1F894012A48406BC1F898012848806BA4
:10044000C1F89C012648C06BC1F8A0012448006C8B
:10045000C1F8A4012248406C2549C1F8B4012048E4
:10046000806CC1F8B8011E48C06CC1F8BC011C48C2
:10047000006D1E49C1F880011948406DC1F8840122
:100480001748806DC1F888011548C06DC1F88C010E
:100490001348006EC1F890011148406EC1F89401F4
:1004A0000F48806EC1F898010D48C06EC1F89C01DC
:1004B0000B48006F0C49C1F880010948406FC1F832
:1004C00084010748806FC1F8A8010548C06FC1F8D2
:1004D000AC010348D0F88000C1F8B00170470000BB
:1004E000E8000020B4812142008021420000214226
:1004F0000000224270B5012520240DE000200A49A9
:1005000041F8250041F82400FFF75EFF6D1C641ED2
:100510004FF4967000F0DEF9102D03DC112C01DB96
:10052000202CEBDD70BD0000E800002070B5102528
:1005300011240DE001200A4941F8250041F824006A
:10054000FFF742FF6D1E641C4FF4967000F0C2F975
:10055000102D03DC112C01DB202CEBDD70BD000025
:10056000E800002008B50121042000F04DF8012129
:10057000082000F049F80121102000F045F849F664
:10058000FF70ADF8000010208DF8030003208DF8F7
:10059000020069461748FFF774FE49F6FF711548D7
:1005A000FFF7FAFE4FF6FB70ADF8000010208DF853
:1005B000030003208DF8020069460F48FFF761FE33
:1005C0004FF6FB710C48FFF7E7FE4FF46040ADF8C3
:1005D000000010208DF8030003208DF8020069460A
:1005E0000648FFF74EFE4FF460410448FFF7D4FE83
:1005F00008BD000000080140000C0140001001404F
:1006000000BFFEE77047704729B1064A926902436E
:10061000044B9A6104E0034A92698243014B9A6158
:100620007047000000100240704710B500F002F85B
:1006300010BD00000CB50020019000903348006808
:1006400040F480303149086000BF3048006800F451
:10065000003000900198401C0190009818B9019852
:10066000B0F5A06FF1D12948006800F4003010B156
:100670000120009001E0002000900098012843D163
:100680002348006840F010002149086008460068CF
:1006900020F0030008600846006840F0020008608F
:1006A0001A4840681949486008464068486008464A
:1006B000406840F4806048600846406820F47C1040
:1006C00048600846406840F4E81048600846006802
:1006D00040F08070086000BF0C48006800F00070B7
:1006E0000028F9D00948406820F003000749486015
:1006F0000846406840F00200486000BF0348406878
:1007000000F00C000828F9D10CBD000000100240D8
:1007100000200240042808D14FF0E021096941F08F
:1007200004014FF0E022116107E04FF0E021096978
:1007300021F004014FF0E022116170477047000082
:1007400010B51348006840F00100114908600846E0
:100750004068104908400E494860084600680E4944
:1007600008400B4908600846006820F480200860B3
:100770000846406820F4FE0048604FF41F0088607F
:10078000FFF753FF4FF000600449086010BD000000
:10079000001002400000FFF8FFFFF6FE08ED00E049
:1007A00010B540F225511D4800F03EF810B31B482B
:1007B00000F064F8C4B21A48008800F40040C8B9D8
:1007C0001748008800F4804060B10A2C03D0002054
:1007D0001349088020E01248008840F40040104986
:1007E000088019E00D2C06D10D48008840F48040A7
:1007F0000B49088010E00A480088C0F30D00094941
:100800000C5407480088401C0549088008460088A9
:10081000C72801DD0020088010BD0000003801401D
:100820001C0000202000002070B502460024002398
:100830000025002040F66A16B14200D100BFC1F386
:10084000421501F01F03012606FA03F3012D02D120
:100850009689334006E0022D02D1168A334001E02A
:10086000968A33400C12012606FA04F416883440A6
:1008700013B10CB1012000E0002070BD0146888852
:10088000C0F30800704700BFFEE700BF70470000DC
:1008900010B56FF00400FFF73DFF0A4800680A49F1
:1008A000B0FBF1F0094908700846007800EB400100
:1008B000C1EBC0104FF6FF7101EAC0000449088087
:1008C00010BD00000000002000127A00140000207B
:1008D000160000200146114A12884A434FF0E023D7
:1008E0005A6100229A611A46126942F001021A61A5
:1008F00000BF4FF0E022106900F001021AB100F4CD
:100900008032002AF5D04FF0E022126922F0010275
:100910004FF0E0231A6100229A6170471600002010
:10092000FFF7B6FFFFF71EFE09E0FFF739FD40F6BF
:100930008C20FFF7CFFFFFF7DDFDFFF7F7FDF4E7B2
:100940006009000800000020200000006C01000881
:100950008009000820000020B0070000880100087E
:1009600000A24A040000000000000000010203048D
:100970000607080900000000000000000000000059
:04000005080001CD21
:00000001FF
