:020000040800F2
:1000000058070020310400088D0200088F02000804
:100010009102000893020008950200080000000009
:10002000000000000000000000000000970200082F
:1000300099020008000000009B0200089D020008D1
:100040004B0400084B0400084B0400084B04000854
:100050004B0400084B0400084B0400084B04000844
:100060004B0400084B0400084B0400084B04000834
:100070004B0400084B0400084B0400084B04000824
:100080004B0400084B0400084B0400084B04000814
:100090004B0400084B0400084B0400084B04000804
:1000A0004B0400084B0400084B0400084B040008F4
:1000B0004B0400084B0400084B0400084B040008E4
:1000C0004B0400084B0400084B0400084B040008D4
:1000D0004B040008951C00084B0400084B04000862
:1000E0004B0400084B0400084B0400084B040008B4
:1000F0004B0400084B0400084B0400084B040008A4
:100100004B0400084B0400084B0400084B04000893
:100110004B0400084B0400084B0400084B04000883
:100120004B0400084B0400084B0400084B04000873
:100130004B0400084B0400084B0400084B04000863
:100140004B0400084B0400084B0400084B04000853
:100150004B0400084B0400084B0400084B04000843
:100160004B0400084B0400084B0400084B04000833
:100170004B0400084B0400084B0400084B04000823
:100180004B0400084B04000800F002F800F03CF8B3
:100190000AA090E8000C82448344AAF10107DA45E2
:1001A00001D100F031F8AFF2090EBAE80F0013F0F8
:1001B000010F18BFFB1A43F001031847EC1C0000A5
:1001C0000C1D0000103A24BF78C878C1FAD8520735
:1001D00024BF30C830C144BF04680C6070470000C1
:1001E0000023002400250026103A28BF78C1FBD840
:1001F000520728BF30C148BF0B6070471FB501F0E0
:100200004DFE1FBD10B510BD01F015FE1146FFF7E4
:10021000F5FF00F009F801F033FE03B4FFF7F2FF39
:1002200003BC01F0DDFC0000002401254FF4A060B8
:1002300000F01EF94FF47A764FF6FF7731463846D4
:1002400001F05EFD3146384601F0A4FDA82001F022
:100250006BFC4FF4E13001F0CBFC0B4F4FF44876D0
:100260000A2001F0A2FC15B1641CA4B201E0641ED6
:10027000A4B2B44200D9002504B90125214638466C
:1002800000F064FFECE70000000C00407047FEE760
:10029000FEE7FEE7FEE770477047704770470000D3
:1002A0000CB50022019200925849086840F4803051
:1002B00008604FF4A043086800F4003000900198F3
:1002C000401C0190009810B901989842F3D1086839
:1002D000800302D50120009000E0009200980128E0
:1002E00031D14A484030026842F0805202604848AA
:1002F000026842F4404202604448083002680260EA
:10030000026842F400420260026842F4A0520260B5
:10031000021F404B13600A6842F080720A600A684C
:100320009201FCD53C4A40F205711160016821F050
:1003300003010160016841F0020101600168C1F33D
:1003400081010229FAD10CBD10B53448016841F48D
:10035000700101602D48016841F0010101602B4AE4
:1003600000210832116002682D4B1A400260031D03
:100370002C4A1A60026822F48022026023480C3062
:100380000160FFF78DFF25494FF00060803908605C
:1003900010BD70B51D4E0836306800F00C00224BC1
:1003A000224900280FD05D1004280ED008280ED056
:1003B0000B6030681D4AC0F30310121D105C0A6800
:1003C000C2400A6070BD0B60F3E70D60F1E70F4AB1
:1003D000121D1068C0F38054106800F03F0034B163
:1003E000B5FBF0F01368C3F38813584305E0B3FB83
:1003F000F0F01368C3F3881358431268C2F3014244
:10040000521C5200B0FBF2F00860D2E70038024004
:100410000070004008544007003C024088ED00E0B6
:10042000FFFFF6FE103000240024F400000000203E
:100430000948804709480047FEE7FEE7FEE7FEE778
:10044000FEE7FEE7FEE7FEE7FEE7FEE704480549B4
:10045000054A064B7047000049030008890100085F
:10046000580100205807002058030020580300209E
:100470002B4908432B490860704730B50F23C278D9
:1004800001250178002A1FD0264A126802F4E06292
:10049000C2F5E062C2F30722C2F10404D3404278FD
:1004A000A24084781C401443220101F1E02181F82C
:1004B0000024007800F01F018D404009800000F109
:1004C000E020C0F8005130BD01F01F008540480910
:1004D000800000F1E020C0F8805130BD124A114088
:1004E00001431048001F016070470E4A121D002989
:1004F00003D0116801431160704711688143116096
:1005000070474FF0E021042804D0086920F004006F
:1005100008617047086940F00400086170470000F6
:100520000000FA050CED00E080FFFF1F10B58D49BB
:10053000884209D10121084600F0DBFA0021BDE81C
:100540001040012000F0D5BA8749884209D1012125
:10055000022000F0CEFA0021BDE81040022000F099
:10056000C8BA8249884209D10121042000F0C1FAA9
:100570000021BDE81040042000F0BBBA7C4988424D
:1005800009D10121082000F0B4FA0021BDE8104093
:10059000082000F0AEBA7749884209D10121102025
:1005A00000F0A7FA0021BDE81040102000F0A1BA29
:1005B0007149884209D10121202000F09AFA0021D6
:1005C000BDE81040202000F094BA6C49884209D15F
:1005D0000121402000F08DFA0021BDE810404020AC
:1005E00000F087BA6649884209D10121802000F0D5
:1005F00080FA0021BDE81040802000F07ABA6149FD
:1006000088420AD184150121204600F072FA204662
:10061000BDE81040002100F06CBA5B4988420AD165
:1006200044150121204600F064FA2046BDE8104040
:10063000002100F05EBA554988420AD10415012113
:10064000204600F056FA2046BDE81040002100F098
:1006500050BA10BD2DE9F041002201274FF0030CE4
:1006600007FA02F50B682B40AB422CD10668530009
:100670000CFA03F4A64306600E79D0F800809E4081
:1006800046EA080606600E79012E01D0022E12D12C
:100690008668A64386604E79D0F808809E4046EA78
:1006A000080686604668AE43466045688E79964087
:1006B000B6B235434560C568A543C560CC799C405A
:1006C000C3681C43C460521C102AC9D3BDE8F08122
:1006D0004FF6FF7101600021017141718171C1719B
:1006E000704708B541F480320092009AC261C1613E
:1006F0000099C161C169C069009008BD024600202F
:1007000012690A4200D001207047006980B2704728
:100710000246002052690A4200D001207047406919
:1007200080B270470183704741837047002A01D02F
:1007300001837047418370474161704742694A4075
:100740004261704710B54B07DB0E9A40C90800EBB9
:100750008100016A0F249C40A1430162016A114398
:10076000016210BD00000240000402400008024087
:10077000000C024000100240001402400018024029
:10078000001C0240002002400024024000280240D9
:10079000FA48016841F001010160F84A002108327D
:1007A00011600268F64B1A400260031DF54A1A6098
:1007B000F24BF54A84331A60F24A103A1B1D1A6054
:1007C000026822F480220260EC480C300160181D9F
:1007D00001607047E9490022891C0A70087070475F
:1007E00002460020510901290CD002290DD0E3490D
:1007F0007431096802F01F02012393400B4200D0BC
:1008000001207047DD490968F4E7DC497031096867
:10081000F0E718B5002000904FF4A0443120FFF716
:10082000DFFF0099491C00910099A14201D00028E6
:10083000F4D03120FFF7D4FF08B1012018BD00200B
:1008400018BDCE4A116821F0F80141EAC0001060DD
:100850007047CE4908607047C849002270310A705D
:100860000A70012804D0042801D1052008707047BF
:10087000012008707047C6490860704710B5029C97
:1008800041EA82114FF0FF3202EB530241EA02418A
:10089000014341EA0460B949091D086010BDBB4924
:1008A00008667047800140EA0170B44984310860ED
:1008B0007047B64988667047800140EA0160AF49D9
:1008C00040EA0270883108607047B0490867704795
:1008D000AE49C8647047A94B08331A6822F0EC622D
:1008E0000843104318607047A44B08331A6822F07D
:1008F00078420843104318607047A04A08321168D4
:1009000021F003010143116070479C4808300068E2
:1009100000F00C007047994A0832116821F0F0018C
:10092000014311607047954A0832116821F4E05183
:10093000014311607047914A0832116821F4604107
:1009400041EAC0001060704770B58C4B08331968DD
:1009500001F00C018F4C00291ED0661004291DD017
:1009600008291DD00460196801F0F00109098A4ABC
:10097000545C0168E14041601C6804F4E054A40A3E
:10098000145D21FA04F484601B6803F460435B0B7C
:10099000D25CD140C16070BD0460E4E70660E2E76C
:1009A000764A121D1168C1F38055116801F03F01AC
:1009B00035B1B6FBF1F11468C4F38814614305E066
:1009C000B4FBF1F11468C4F3881461431268C2F3F4
:1009D0000142521C5200B1FBF2F10160C3E7C0F3C7
:1009E0000121032908D1654B0833196821F4F81255
:1009F0006A49014011431960604A70321168C0F3BE
:100A00000B00014311607047614944390860704729
:100A10005F49403908607047614908607047574A2C
:100A20008C32116821F01F01401E01431160704794
:100A3000524A8C32116821F4F851401E41EA0020DC
:100A4000106070474D4A8C32116821F44011014307
:100A500011607047494A8C32116821F4400101430A
:100A600011607047454A8C32116821F440310143CE
:100A7000116070474B4908607047404A3032002986
:100A800003D0116801431160704711688143116000
:100A900070473A4A3432002903D01168014311608B
:100AA00070471168814311607047344A3832002919
:100AB00003D01168014311607047116881431160D0
:100AC00070472E4A4032002903D01168014311605B
:100AD00070471168814311607047284A44320029E9
:100AE00003D01168014311607047116881431160A0
:100AF0007047224A1032002903D011680143116067
:100B0000704711688143116070471C4A14320029F4
:100B100003D011680143116070471168814311606F
:100B20007047164A1832002903D01168014311603A
:100B300070471168814311607047104A20320029C4
:100B400003D011680143116070471168814311603F
:100B500070470A4A2432002903D01168014311600A
:100B600070471168814311607047044A5032002970
:100B70001AD011680143116070470000003802402C
:100B8000FFFFF6EA1030002400300020000047424A
:100B9000800E47420024F40014000020FFFCFF0FE9
:100BA0005C014742E0114742116881431160E3E76D
:100BB0002E4A002903D0116801431160DCE7116857
:100BC00081431160D8E7294A121D002903D011681A
:100BD00001431160D0E7116881431160CCE7234ADB
:100BE0000C32002903D0116801431160C4E7116879
:100BF00081431160C0E71D4A1032002903D01168FB
:100C000001431160B8E7116881431160B4E71749E7
:100C10001C31012804D0086820F008000860ABE708
:100C2000086840F008000860A6E7104A473A002923
:100C300003D01178014311709EE711788143117040
:100C40009AE70A482030016841F08071016093E71B
:100C500001460020054A483A12680A428CD0012019
:100C60008AE702494639087086E700005438024096
:100C700010B5F949884209D101210846FFF769FFFB
:100C80000021BDE810400120FFF763BFB0F1804FA5
:100C90000CD0F249884213D101210220FFF74DFF09
:100CA0000021BDE810400220FFF747BF01210846A0
:100CB000FFF743FF0021BDE810400120FFF73DBFD3
:100CC000E749884209D101210420FFF736FF0021BE
:100CD000BDE810400420FFF730BFE249884209D147
:100CE00001210820FFF729FF0021BDE8104008205E
:100CF000FFF723BFDC49884209D101211020FFF70B
:100D00001CFF0021BDE810401020FFF716BFD74997
:100D1000884209D101212020FFF70FFF0021BDE803
:100D200010402020FFF709BFD149884209D1012195
:100D30000220FFF70EFF0021BDE810400220FFF760
:100D400008BFCC4988420AD101210C042046FFF794
:100D500000FF2046BDE810400021FFF7FABEC6495B
:100D600088420AD101214C042046FFF7F2FE2046BA
:100D7000BDE810400021FFF7ECBEC04988420AD10F
:100D800001218C042046FFF7E4FE2046BDE8104018
:100D90000021FFF7DEBEBA49884209D10121402077
:100DA000FFF7CBFE0021BDE810404020FFF7C5BE95
:100DB000B449884209D101218020FFF7BEFE0021FD
:100DC000BDE810408020FFF7B8BEAF4988420AD185
:100DD000841501212046FFF7B0FE2046BDE81040F3
:100DE0000021FFF7AABE10BD30B502889A4CA04D75
:100DF000A0420DD0A8420BD0B0F1804F08D0974B45
:100E0000984205D0964B984202D0964B984203D117
:100E100022F070034A881A43934B984206D0934BB2
:100E2000984203D022F440730A891A4302804A6828
:100E3000C2620A880285A04201D0A84201D1897A03
:100E400001860121818230BD4FF0FF3141600021D8
:100E500001800181418081727047018582827047E3
:100E6000028822F070020A43028070474162704794
:100E7000C1627047406A7047008D7047002904D0F6
:100E8000018841F0020101807047018821F00201D0
:100E900001807047002904D0018841F004010180DD
:100EA0007047018821F0040101807047002904D0B7
:100EB000018841F0800101807047018821F08001A4
:100EC00001807047028822F00802028002880A43EB
:100ED00002807047028822F44072028002880A432E
:100EE00002807047002904D0018841F0010101808F
:100EF0007047018821F001010180704730B5028CF4
:100F000022F001020284058C8388028B22F0700299
:100F100022F003020C88144325F002028D89154348
:100F20004A882A434C4DA84202D0514DA8420FD1C5
:100F300022F00805CA892A4322F004058A882A4338
:100F400023F4807323F400730D8A1D434B8A2B43D3
:100F50008380048389684163028430BD70B5028C4C
:100F600022F010020284028C8388048B24F4E04473
:100F700024F440760D884FF6FF7404EA05253543C6
:100F800022F020028E8904EA061616434A8804EAF3
:100F900002123243304EB04202D0354EB04217D129
:100FA00022F08002CE8904EA0616164326F0400697
:100FB0008A8804EA0212324323F4806323F4006334
:100FC0000E8A04EA86061E434B8A04EA83033343EF
:100FD0008380058389688163028470BD70B5028C4B
:100FE00022F480720284028C8388848B24F0700443
:100FF00024F003040D88254322F400728E894FF6F5
:10100000FF7404EA062616434A8804EA02223243A1
:10101000114EB04202D0164EB04217D122F40066F3
:10102000CA8904EA0222324322F480668A8804EAEA
:101030000222324323F4805323F400530E8A04EA3D
:1010400006161E434B8A04EA0313334383808583C9
:101050008968C163028470BD000001400004004043
:1010600000080040000C0040001000400014004048
:10107000000401400040014000440140004801409C
:1010800000180040001C00400020004070B5028C99
:1010900022F480520284058C8288838B23F4E043FF
:1010A00023F440760C884FF6FF7303EA042434439C
:1010B00025F400558E8903EA06362E434D8803EA4F
:1010C00005353543FE4EB04202D0FE4EB04205D14A
:1010D00022F480460A8A03EA8212324382808483A1
:1010E000896801640584B6E7002101804180818020
:1010F00081608181C18101824182704730B500F1F8
:10110000180301248C40058CA5430584002912D0C6
:10111000082910D0091FC1F34E001844016848F691
:10112000FF731940016001684FF6FF7303EA022262
:101130001143016030BD03EB510001684FF68F731E
:101140001940016001681143016030BD416370477F
:1011500081637047C163704701647047028B22F05E
:1011600070020A4302837047028B22F4E0424FF67A
:10117000FF7303EA0121114301837047828B22F040
:1011800070020A4382837047828B22F4E0424FF65A
:10119000FF7303EA0121114381837047028B22F020
:1011A00008020A4302837047028B22F400624FF662
:1011B000FF7303EA0121114301837047828B22F000
:1011C00008020A4382837047828B22F400624FF642
:1011D000FF7303EA0121114381837047028B22F0E0
:1011E00004020A4302837047028B22F480624FF6A6
:1011F000FF7303EA0121114301837047828B22F0C0
:1012000004020A4382837047828B22F480624FF685
:10121000FF7303EA0121114381837047028B22F09F
:1012200080020A4302837047028BC2F30E024FF61C
:10123000FF7303EA0121114301837047828B22F07F
:1012400080020A4382837047828BC2F30E024FF6FC
:10125000FF7303EA0121114381837047028C22F05E
:1012600002020A4302847047028C22F008020A43F9
:1012700002847047028C22F020024FF6FF7303EACB
:101280000111114301847047028C22F080024FF655
:10129000FF7303EA0111114301847047028C22F4A9
:1012A00000724FF6FF7303EA012111430184704776
:1012B000028C22F400624FF6FF7303EA012111430E
:1012C00001847047028C22F400524FF6FF7303EA48
:1012D000013111430184704710B501238B40048C08
:1012E0009C430484038C8A401343038410BD10B5CF
:1012F00004238B40048C9C430484038C8A40134356
:10130000038410BD828B22F440628283828B4FF66D
:10131000FF7303EA01210A438283704770B5048C8E
:1013200024F480540484858B068C4FF6FF7404EA01
:10133000013125F4734504EA02222A4304EA033307
:10134000134326F420420A4342F4805183830184EC
:1013500081E6828B22F00C028283828B0A43828395
:101360007047F0B5048C24F480740484868B058C5B
:101370004FF6FF7707EA012426F0F30607EA031188
:101380001143314325F42062224342F48072818369
:101390000284F0BD028B22F440620283028B4FF67E
:1013A000FF7303EA01210A430283704770B5048C7E
:1013B00024F010040484058B068C4FF6FF7404EAB5
:1013C000011125F4734504EA03332B4304EA022296
:1013D0001A4326F0A0030B4343F01001028301845B
:1013E00039E6028B22F00C020283028B0A4302834D
:1013F000704770B5048C24F001040484058B048CC0
:1014000025F0F3054FF6FF7606EA031313432B434B
:1014100024F00A020A4342F00101038301841AE620
:1014200070B506460C4625886188A2882389002D60
:101430000BD0042D11D0082D17D03046FFF76EFFCA
:10144000E1883046BDE870405CE73046FFF7D1FFE9
:10145000E1883046BDE87040C3E73046FFF7A6FF9D
:10146000E1883046BDE8704094E73046FFF779FFE9
:10147000E1883046BDE870406BE700210180418083
:1014800001228280C180018170472DE9F041074629
:101490000C46002501266188002900D10225A2887A
:1014A000012A00D1022620882389B0B13846FFF7EF
:1014B0007DFFE1883846FFF76DFF2389324603E060
:1014C000000001400004014029463846FFF791FF23
:1014D000E1883846BDE8F04183E73846FFF789FFE9
:1014E000E1883846FFF77DFF238932462946384692
:1014F000FFF75CFFE1883846BDE8F0414AE7406B02
:101500007047806B7047C06B7047006C704710B5B8
:101510000A884B88CC881A438B8823431A430B894B
:101520001A434B8989891A430A43A0F8442010BD05
:101530000021018041808180C180018141818181C0
:101540007047002905D030F8441F41F40041018064
:10155000704730F8441FC1F30E0101807047002925
:1015600004D0818841F0040181807047818821F096
:10157000040181807047002904D0818841F0010175
:1015800081807047818821F0010181807047002AA5
:1015900003D082890A438281704782898A4382818B
:1015A00070478182704702460020128A0A4200D0AA
:1015B00001207047C9430182704702460020138A08
:1015C0000B4092890A40002B02D0002A00D0012053
:1015D0007047C943018270471143A0F84810704713
:1015E000002A03D082890A438281704782898A4314
:1015F00082817047002904D0818841F008018180F0
:101600007047818821F0080181807047018921F0AD
:10161000070101817047028922F070020A430281AA
:10162000704700B503461846FFF7F5FF188940F0EC
:101630000700188100BD70B50D4604461146602DA7
:101640000CD001222046FFF7D4FE29462046FFF7A2
:10165000E2FF208940F007002081FCE401222046BF
:10166000FFF7A4FEF1E730B50489E4B24FF6FF7549
:1016700005EA032313430B432343038130BD10B515
:1016800004462046FFF7EFFF208920F0070040F0D6
:10169000070020F0700040F07000208110BD10B5F0
:1016A00004462046FFF7DFFF208940F48040208178
:1016B00010BD828822F07002828082880A43828074
:1016C0007047028922F00702028102890A430281DF
:1016D0007047028922F08002028102890A43028156
:1016E000704770B50589048B068C25F007050D43FE
:1016F0004FF6FC410C4040F201110C4326F022064B
:101700004FF6FF7101EA0311114331430581048350
:101710000184A0E4002904D0818841F08001818007
:101720007047818821F0800181807047A0F85010B7
:101730007047000010B5F449884209D101211020FA
:10174000FFF707FA0021BDE810401020FFF701BAAB
:10175000EE4988420AD101214C042046FFF7EDF9F9
:101760002046BDE810400021FFF7E7B9E84988426C
:101770000AD101218C042046FFF7DFF92046BDE89D
:1017800010400021FFF7D9B9E24988420AD101216E
:10179000CC042046FFF7D1F92046BDE810400021D7
:1017A000FFF7CBB9DC4988420AD101210C0520465C
:1017B000FFF7C3F92046BDE810400021FFF7BDB98F
:1017C000D649884209D101212020FFF7C2F9002122
:1017D000BDE810402020FFF7BCB9D14988420AD1AA
:1017E00001218C072046FFF7A8F92046BDE81040EC
:1017F0000021FFF7A2B9CB4988420AD14405012153
:101800002046FFF79AF92046BDE810400021FFF777
:1018100094B910BD7FB504460D46208A20F440518E
:10182000E88808432082A08941F20C618843A98896
:101830002A8911436A8902431143A181A08A20F4B5
:101840004071A8890843A0826846FFF77DF8AE483A
:10185000844202D0B148844201D1039800E002984A
:10186000A189090408D500EBC00101EB001029682B
:101870004900B0FBF1F007E000EBC00101EB001004
:1018800029688900B0FBF1F06422B0FBF2F1090194
:101890000B096FF018056B4300EB8300A3891D044F
:1018A0004FF0320307D503EBC000B0FBF2F000F0BD
:1018B0000700084306E003EB0010B0FBF2F000F075
:1018C0000F00084320817FBD4FF4165101600021B5
:1018D0008180C18001810C2242818181704710B5D5
:1018E000028A22F470630A884C8822438C88C98853
:1018F0000C4322431A43028210BD00210180418023
:101900008180C1807047002904D0818941F4005151
:1019100081817047818921F4005181817047028B58
:1019200002F47F420283028B0A430283704700293C
:1019300004D0818941F40041818170478189C1F3DC
:101940000E0181817047002904D0818A41F4006131
:1019500081827047818A21F4006181827047C1F3DE
:101960000801818070478088C0F308007047028AB0
:1019700022F00F020282028A0A4302827047002983
:1019800004D0818941F0020181817047818921F071
:10199000020181817047828922F4006282818289FA
:1019A0000A4382817047028A22F020020282028A60
:1019B0000A4302827047002904D0018A41F4804121
:1019C00001827047018A21F4804101827047818938
:1019D00041F0010181817047002904D0818A41F0E2
:1019E000080181827047818A21F008018182704755
:1019F000028BD2B20283028B42EA0121018370473B
:101A0000002904D0818A41F0200181827047818AB7
:101A100021F0200181827047002904D0818A41F0A1
:101A2000100181827047818A21F010018182704704
:101A3000828A22F004028282828A0A43828270476A
:101A4000002904D0818A41F0020181827047818A95
:101A500021F0020181827047002A03D0828A0A4362
:101A600082827047828A8A438282704710B540F62C
:101A70006A13C1F3421301F01F040121A140012B9D
:101A800007D0022B07D014303AB102680A43026033
:101A900010BD0C30F8E71030F6E702688A430260A8
:101AA00010BD0246002012880A4200D00120704773
:101AB0008A05C9430180704770B5002440F66A1258
:101AC000C1F3421301F01F05012606FA05F2012BAE
:101AD0000CD0022B0DD0838A1340090A8E40008857
:101AE00030400BB100B10124204670BD8389134002
:101AF000F3E7038A1340F0E740F66A120A0A01216D
:101B00009140C943018070470010014000440040EB
:101B100000480040004C00400050004000140140CC
:101B200000780040007C004010B504466FF00400CF
:101B3000FEF7E7FC2949E008087000EB4002C2EB21
:101B4000C0104FF6FF7202EAC000488010BD234962
:101B5000097848434FF0E021486100238B61086910
:101B600040F0010008610869C20701D0C003FAD53E
:101B7000086920F0010008618B61704717494988A6
:101B800048434FF0E021486100238B61086940F031
:101B9000010008610869C20701D0C003FAD50869CD
:101BA00020F0010008618B61704770B54FF4077534
:101BB000B0FBF5F1CCB2B0FBF5F105FB110604E08A
:101BC0002846FFF7DBFF641EE4B2002CF8D1002E9C
:101BD00003D03046BDE87040D0E770BD240000203F
:101BE000704743490A885206FCD5C2B28A807047C2
:101BF000F0B587B0054601210846FEF73EFF0121FA
:101C00001020FEF76AFF3B4F072209213846FEF7F6
:101C100099FD07220A213846FEF794FD4FF4C06073
:101C2000059002208DF818008DF8190000248DF819
:101C30001A4001268DF81B6005A93846FEF70AFDFB
:101C40000195ADF80840ADF80A40ADF80C40ADF88C
:101C500010400C20ADF80E00254C01A92046FFF7DE
:101C6000D9FD01212046FFF74EFE012240F2255109
:101C70002046FFF7FBFE25208DF8000003208DF89D
:101C800001008DF802008DF803606846FEF7F5FB51
:101C900007B0F0BD70B5164C40F225512046FFF755
:101CA0000BFF00280ED02046FFF75DFEC1B2124A9E
:101CB0001088030406D444044FF0000307D50A2912
:101CC00001D0138070BD40F40040108070BD0D291C
:101CD0000AD00A4DC0F30D042955401C80B2108073
:101CE000C728F3D9138070BD40F48040108070BDC8
:101CF0000010014000000240280000202C000020BD
:101D00002DE9F0438BB081460D4601210820FEF7F6
:101D1000D8FE01218020FEF7B0FEDFF80881022204
:101D20000A214046FEF70EFD4FF48060099002261E
:101D30008DF8286003208DF8290000248DF82A40B2
:101D400001278DF82B7009A94046FEF783FCADF8FA
:101D50001850ADF81A40CDF81C90ADF82040324C28
:101D600006A92046FFF740F86021ADF80410ADF851
:101D70001060ADF8067001A92046FFF7BFF80821F2
:101D80002046FFF70BFA01212046FFF78FF80BB032
:101D9000BDE8F0832DE9F0438BB081460D4601216B
:101DA0000820FEF78EFE01218020FEF766FEDFF898
:101DB000748002220A214046FEF7C4FC4FF4806082
:101DC000099002268DF8286003208DF82900002450
:101DD0008DF82A4001278DF82B7009A94046FEF79F
:101DE00039FCADF81850ADF81A40CDF81C90ADF89C
:101DF00020400D4C06A92046FEF7F6FF6021ADF805
:101E00000410ADF81060ADF8067001A92046FFF788
:101E100075F808212046FFF7C1F901212046FFF798
:101E200045F8B4E7001C0240000C004070477047C2
:101E3000704770477047754600F02CF8AE460500B5
:101E40006946534620F00700854618B020B5FEF7D6
:101E5000FDFABDE820404FF000064FF000074FF0BC
:101E600000084FF0000B21F00701AC46ACE8C009B8
:101E7000ACE8C009ACE8C009ACE8C0098D467047C1
:101E800010B50446AFF300802046BDE81040FEF7D1
:101E9000C4B9000000487047F40000204FF04070C3
:101EA000E1EE100A70470000C81E00080000002084
:101EB0002C000000C4010008F41E00082C000020C3
:101EC0002C070000E0010008007A030A000000006F
:101ED00000000000010203040607080900000000DA
:101EE00001020304010203040607080900000000C0
:041EF00000000000EE
:040000050800018965
:00000001FF
