:020000040800F2
:1000000058070020110400086D0200086F02000864
:100010007102000873020008750200080000000069
:10002000000000000000000000000000770200084F
:1000300079020008000000007B0200087D02000831
:100040002B0400082B0400082B0400082B040008D4
:100050002B0400082B0400082B0400082B040008C4
:100060002B0400082B0400082B0400082B040008B4
:100070002B0400082B0400082B0400082B040008A4
:100080002B0400082B0400082B0400082B04000894
:100090002B0400082B0400082B0400082B04000884
:1000A0002B0400082B0400082B0400082B04000874
:1000B0002B0400082B0400082B0400082B04000864
:1000C0002B0400082B0400082B0400082B04000854
:1000D0002B040008B11100082B0400082B040008B1
:1000E0002B0400082B0400082B0400082B04000834
:1000F0002B0400082B0400082B0400082B04000824
:100100002B0400082B0400082B0400082B04000813
:100110002B0400082B0400082B0400082B04000803
:100120002B0400082B0400082B0400082B040008F3
:100130002B0400082B0400082B0400082B040008E3
:100140002B0400082B0400082B0400082B040008D3
:100150002B0400082B0400082B0400082B040008C3
:100160002B0400082B0400082B0400082B040008B3
:100170002B0400082B0400082B0400082B040008A3
:100180002B0400082B04000800F002F800F03CF8F3
:100190000AA090E8000C82448344AAF10107DA45E2
:1001A00001D100F031F8AFF2090EBAE80F0013F0F8
:1001B000010F18BFFB1A43F0010318471811000084
:1001C00038110000103A24BF78C878C1FAD8520715
:1001D00024BF30C830C144BF04680C6070470000C1
:1001E0000023002400250026103A28BF78C1FBD840
:1001F000520728BF30C148BF0B6070471FB501F0E0
:1002000063F81FBD10B510BD01F02BF81146FFF7C4
:10021000F5FF00F009F801F049F803B4FFF7F2FF29
:1002200003BC00F06BFF0000542000F00BFF00F057
:10023000F5FF0024DFF82C900B4E4FF400584FF4DC
:10024000967701254146484600F05EFAC6F8B4426A
:10025000384600F038FFC6F8B452384600F033FF95
:10026000F0E7000000080240000041427047FEE74E
:10027000FEE7FEE7FEE770477047704770470000F3
:100280000CB50022019200925849086840F4803071
:1002900008604FF4A043086800F400300090019813
:1002A000401C0190009810B901989842F3D1086859
:1002B000800302D50120009000E000920098012800
:1002C00031D14A484030026842F0805202604848CA
:1002D000026842F44042026044480830026802600A
:1002E000026842F400420260026842F4A0520260D6
:1002F000021F404B13600A6842F080720A600A686D
:100300009201FCD53C4A40F205711160016821F070
:1003100003010160016841F0020101600168C1F35D
:1003200081010229FAD10CBD10B53448016841F4AD
:10033000700101602D48016841F0010101602B4A04
:1003400000210832116002682D4B1A400260031D23
:100350002C4A1A60026822F48022026023480C3082
:100360000160FFF78DFF25494FF00060803908607C
:1003700010BD70B51D4E0836306800F00C00224BE1
:10038000224900280FD05D1004280ED008280ED076
:100390000B6030681D4AC0F30310121D105C0A6820
:1003A000C2400A6070BD0B60F3E70D60F1E70F4AD1
:1003B000121D1068C0F38054106800F03F0034B183
:1003C000B5FBF0F01368C3F38813584305E0B3FBA3
:1003D000F0F01368C3F3881358431268C2F3014264
:1003E000521C5200B0FBF2F00860D2E70038024025
:1003F0000070004008544007003C024088ED00E0D7
:10040000FFFFF6FE103000240024F400000000205E
:100410000948804709480047FEE7FEE7FEE7FEE798
:10042000FEE7FEE7FEE7FEE7FEE7FEE704480549D4
:10043000054A064B7047000029030008890100089F
:1004400058010020580700205803002058030020BE
:100450002B4908432B490860704730B50F23C278F9
:1004600001250178002A1FD0264A126802F4E062B2
:10047000C2F5E062C2F30722C2F10404D34042781D
:10048000A24084781C401443220101F1E02181F84C
:100490000024007800F01F018D404009800000F129
:1004A000E020C0F8005130BD01F01F008540480930
:1004B000800000F1E020C0F8805130BD124A1140A8
:1004C00001431048001F016070470E4A121D0029A9
:1004D00003D01168014311607047116881431160B6
:1004E00070474FF0E021042804D0086920F0040090
:1004F00008617047086940F0040008617047000017
:100500000000FA050CED00E080FFFF1F10B58D49DB
:10051000884209D10121084600F0DBFA0021BDE83C
:100520001040012000F0D5BA8749884209D1012145
:10053000022000F0CEFA0021BDE81040022000F0B9
:10054000C8BA8249884209D10121042000F0C1FAC9
:100550000021BDE81040042000F0BBBA7C4988426D
:1005600009D10121082000F0B4FA0021BDE81040B3
:10057000082000F0AEBA7749884209D10121102045
:1005800000F0A7FA0021BDE81040102000F0A1BA49
:100590007149884209D10121202000F09AFA0021F6
:1005A000BDE81040202000F094BA6C49884209D17F
:1005B0000121402000F08DFA0021BDE810404020CC
:1005C00000F087BA6649884209D10121802000F0F5
:1005D00080FA0021BDE81040802000F07ABA61491D
:1005E00088420AD184150121204600F072FA204683
:1005F000BDE81040002100F06CBA5B4988420AD186
:1006000044150121204600F064FA2046BDE8104060
:10061000002100F05EBA554988420AD10415012133
:10062000204600F056FA2046BDE81040002100F0B8
:1006300050BA10BD2DE9F041002201274FF0030C04
:1006400007FA02F50B682B40AB422CD10668530029
:100650000CFA03F4A64306600E79D0F800809E40A1
:1006600046EA080606600E79012E01D0022E12D14C
:100670008668A64386604E79D0F808809E4046EA98
:10068000080686604668AE43466045688E799640A7
:10069000B6B235434560C568A543C560CC799C407A
:1006A000C3681C43C460521C102AC9D3BDE8F08142
:1006B0004FF6FF7101600021017141718171C171BB
:1006C000704708B541F480320092009AC261C1615E
:1006D0000099C161C169C069009008BD024600204F
:1006E00012690A4200D001207047006980B2704749
:1006F0000246002052690A4200D00120704740693A
:1007000080B270470183704741837047002A01D04F
:1007100001837047418370474161704742694A4095
:100720004261704710B54B07DB0E9A40C90800EBD9
:100730008100016A0F249C40A1430162016A1143B8
:10074000016210BD000002400004024000080240A7
:10075000000C024000100240001402400018024049
:10076000001C0240002002400024024000280240F9
:10077000FA48016841F001010160F84A002108329D
:1007800011600268F64B1A400260031DF54A1A60B8
:10079000F24BF54A84331A60F24A103A1B1D1A6074
:1007A000026822F480220260EC480C300160181DBF
:1007B00001607047E9490022891C0A70087070477F
:1007C00002460020510901290CD002290DD0E3492D
:1007D0007431096802F01F02012393400B4200D0DC
:1007E00001207047DD490968F4E7DC497031096888
:1007F000F0E718B5002000904FF4A0443120FFF737
:10080000DFFF0099491C00910099A14201D0002806
:10081000F4D03120FFF7D4FF08B1012018BD00202B
:1008200018BDCE4A116821F0F80141EAC0001060FD
:100830007047CE4908607047C849002270310A707D
:100840000A70012804D0042801D1052008707047DF
:10085000012008707047C6490860704710B5029CB7
:1008600041EA82114FF0FF3202EB530241EA0241AA
:10087000014341EA0460B949091D086010BDBB4944
:1008800008667047800140EA0170B449843108600D
:100890007047B64988667047800140EA0160AF49F9
:1008A00040EA0270883108607047B04908677047B5
:1008B000AE49C8647047A94B08331A6822F0EC624D
:1008C0000843104318607047A44B08331A6822F09D
:1008D00078420843104318607047A04A08321168F4
:1008E00021F003010143116070479C480830006803
:1008F00000F00C007047994A0832116821F0F001AD
:10090000014311607047954A0832116821F4E051A3
:10091000014311607047914A0832116821F4604127
:1009200041EAC0001060704770B58C4B08331968FD
:1009300001F00C018F4C00291ED0661004291DD037
:1009400008291DD00460196801F0F00109098A4ADC
:10095000545C0168E14041601C6804F4E054A40A5E
:10096000145D21FA04F484601B6803F460435B0B9C
:10097000D25CD140C16070BD0460E4E70660E2E78C
:10098000764A121D1168C1F38055116801F03F01CC
:1009900035B1B6FBF1F11468C4F38814614305E086
:1009A000B4FBF1F11468C4F3881461431268C2F314
:1009B0000142521C5200B1FBF2F10160C3E7C0F3E7
:1009C0000121032908D1654B0833196821F4F81275
:1009D0006A49014011431960604A70321168C0F3DE
:1009E0000B0001431160704761494439086070474A
:1009F0005F49403908607047614908607047574A4D
:100A00008C32116821F01F01401E014311607047B4
:100A1000524A8C32116821F4F851401E41EA0020FC
:100A2000106070474D4A8C32116821F44011014327
:100A300011607047494A8C32116821F4400101432A
:100A400011607047454A8C32116821F440310143EE
:100A5000116070474B4908607047404A30320029A6
:100A600003D0116801431160704711688143116020
:100A700070473A4A3432002903D0116801431160AB
:100A800070471168814311607047344A3832002939
:100A900003D01168014311607047116881431160F0
:100AA00070472E4A4032002903D01168014311607B
:100AB00070471168814311607047284A4432002909
:100AC00003D01168014311607047116881431160C0
:100AD0007047224A1032002903D011680143116087
:100AE000704711688143116070471C4A1432002915
:100AF00003D0116801431160704711688143116090
:100B00007047164A1832002903D01168014311605A
:100B100070471168814311607047104A20320029E4
:100B200003D011680143116070471168814311605F
:100B300070470A4A2432002903D01168014311602A
:100B400070471168814311607047044A5032002990
:100B50001AD011680143116070470000003802404C
:100B6000FFFFF6EA1030002400300020000047426A
:100B7000800E47420024F40014000020FFFCFF0F09
:100B80005C014742E0114742116881431160E3E78D
:100B90002E4A002903D0116801431160DCE7116877
:100BA00081431160D8E7294A121D002903D011683A
:100BB00001431160D0E7116881431160CCE7234AFB
:100BC0000C32002903D0116801431160C4E7116899
:100BD00081431160C0E71D4A1032002903D011681B
:100BE00001431160B8E7116881431160B4E7174908
:100BF0001C31012804D0086820F008000860ABE729
:100C0000086840F008000860A6E7104A473A002943
:100C100003D01178014311709EE711788143117060
:100C20009AE70A482030016841F08071016093E73B
:100C300001460020054A483A12680A428CD0012039
:100C40008AE702494639087086E7000054380240B6
:100C500010B5F449884209D101211020FFF769FF3E
:100C60000021BDE810401020FFF763BFEE49884225
:100C70000AD101214C042046FFF74FFF2046BDE872
:100C800010400021FFF749BFE84988420AD10121FD
:100C90008C042046FFF741FF2046BDE810400021AC
:100CA000FFF73BBFE24988420AD10121CC0420462C
:100CB000FFF733FF2046BDE810400021FFF72DBFAE
:100CC000DC4988420AD101210C052046FFF725FFA7
:100CD0002046BDE810400021FFF71FBFD6498842DB
:100CE00009D101212020FFF724FF0021BDE8104099
:100CF0002020FFF71EBFD14988420AD101218C076D
:100D00002046FFF70AFF2046BDE810400021FFF70C
:100D100004BFCB4988420AD1440501212046FFF790
:100D2000FCFE2046BDE810400021FFF7F6BE10BDD6
:100D30007FB504460D46208A20F44051E8880843D8
:100D40002082A08941F20C618843A9882A89114335
:100D50006A8902431143A181A08A20F44071A889C5
:100D60000843A0826846FFF7DFFDAE48844202D008
:100D7000B148844201D1039800E00298A189090496
:100D800008D500EBC00101EB001029684900B0FB59
:100D9000F1F007E000EBC00101EB001029688900C9
:100DA000B0FBF1F06422B0FBF2F109010B096FF026
:100DB00018056B4300EB8300A3891D044FF0320339
:100DC00007D503EBC000B0FBF2F000F007000843CA
:100DD00006E003EB0010B0FBF2F000F00F00084358
:100DE00020817FBD4FF41651016000218180C180B8
:100DF00001810C2242818181704710B5028A22F460
:100E000070630A884C8822438C88C9880C4322432B
:100E10001A43028210BD0021018041808180C1807F
:100E20007047002904D0818941F4005181817047C5
:100E3000818921F4005181817047028B02F47F4245
:100E40000283028B0A4302837047002904D0818900
:100E500041F40041818170478189C1F30E01818194
:100E60007047002904D0818A41F400618182704773
:100E7000818A21F4006181827047C1F30801818079
:100E800070478088C0F308007047028A22F00F0282
:100E90000282028A0A4302827047002904D08189B3
:100EA00041F0020181817047818921F00201818135
:100EB0007047828922F40062828182890A4382819A
:100EC0007047028A22F020020282028A0A430282CA
:100ED0007047002904D0018A41F4804101827047A3
:100EE000018A21F4804101827047818941F001012A
:100EF00081817047002904D0818A41F008018182F4
:100F00007047818A21F0080181827047028BD2B23A
:100F10000283028B42EA012101837047002904D039
:100F2000818A41F0200181827047818A21F020016D
:100F300081827047002904D0818A41F010018182AA
:100F40007047818A21F0100181827047828A22F0E5
:100F500004028282828A0A4382827047002904D076
:100F6000818A41F0020181827047818A21F0020169
:100F700081827047002A03D0828A0A4382827047A6
:100F8000828A8A438282704710B540F66A13C1F3A1
:100F9000421301F01F040121A140012B07D0022BB5
:100FA00007D014303AB102680A43026010BD0C3019
:100FB000F8E71030F6E702688A43026010BD024687
:100FC000002012880A4200D0012070478A05C943D8
:100FD0000180704770B5002440F66A12C1F34213D5
:100FE00001F01F05012606FA05F2012B0CD0022B99
:100FF0000DD0838A1340090A8E40008830400BB11F
:1010000000B10124204670BD83891340F3E7038AB1
:101010001340F0E740F66A120A0A01219140C943E1
:10102000018070470010014000440040004800402B
:10103000004C004000500040001401400078004087
:10104000007C004010B504466FF00400FFF749FA39
:101050002949E008087000EB4002C2EBC0104FF6CF
:10106000FF7202EAC000488010BD23490978484356
:101070004FF0E021486100238B61086940F00100D6
:1010800008610869C20701D0C003FAD5086920F0D9
:10109000010008618B6170471749498848434FF048
:1010A000E021486100238B61086940F0010008617C
:1010B0000869C20701D0C003FAD5086920F0010011
:1010C00008618B61704770B54FF40775B0FBF5F19F
:1010D000CCB2B0FBF5F105FB110604E02846FFF7A2
:1010E000DBFF641EE4B2002CF8D1002E03D03046A2
:1010F000BDE87040D0E770BD240000207047434930
:101100000A885206FCD5C2B28A807047F0B587B013
:10111000054601210846FFF7A0FC01211020FFF73A
:10112000CCFC3B4F072209213846FFF7FBFA072288
:101130000A213846FFF7F6FA4FF4C0600590022006
:101140008DF818008DF8190000248DF81A4001263A
:101150008DF81B6005A93846FFF76CFA0195ADF8CC
:101160000840ADF80A40ADF80C40ADF810400C2036
:10117000ADF80E00254C01A92046FFF7D9FD01214D
:101180002046FFF74EFE012240F225512046FFF790
:10119000FBFE25208DF8000003208DF801008DF85E
:1011A00002008DF803606846FFF757F907B0F0BDFD
:1011B00070B5164C40F225512046FFF70BFF002872
:1011C0000ED02046FFF75DFEC1B2124A108803041C
:1011D00006D444044FF0000307D50A2901D0138038
:1011E00070BD40F40040108070BD0D290AD00A4D3A
:1011F000C0F30D042955401C80B21080C728F3D9D4
:10120000138070BD40F48040108070BD001001401C
:1012100000000240280000202C0000207CB50121A5
:101220000420FFF71AFC01208DF8040000218DF83E
:101230000610440300948DF807008DF80500054D55
:1012400069462846FFF7F6F921462846FFF75AFA7D
:101250007CBD00000008024070477047704770472F
:101260007047754600F02CF8AE46050069465346B7
:1012700020F00700854618B020B5FFF7D7F8BDE885
:1012800020404FF000064FF000074FF000084FF0ED
:10129000000B21F00701AC46ACE8C009ACE8C0097E
:1012A000ACE8C009ACE8C0098D46704710B50446EB
:1012B000AFF300802046BDE81040FEF7AEBF00004F
:1012C00000487047F40000204FF04070E1EE100A33
:1012D00070470000F4120008000000202C000000FD
:1012E000C4010008201300082C0000202C07000077
:1012F000E0010008007A030A00000000000000007E
:1013000001020304060708090000000001020304AB
:1013100001020304060708090000000000000000A5
:040000050800018965
:00000001FF
