:020000040800F2
:10000000300E00206D040008DD010008DF0100084B
:10001000E3010008E7010008EB0100080000000010
:10002000000000000000000000000000EF010008D8
:10003000F101000800000000F3010008F5010008CC
:100040008704000887040008870400088704000864
:100050008704000887040008870400088704000854
:100060008704000887040008870400088704000844
:100070008704000887040008870400088704000834
:100080008704000887040008870400088704000824
:100090008704000887040008870400088704000814
:1000A0008704000887040008870400088704000804
:1000B000FD33000887040008E533000887040008C2
:1000C00087040008870400088704000887040008E4
:1000D000870400088704000887040008EB3900083B
:1000E000AD410008870400088704000800F002F80A
:1000F00000F05FF80AA090E8000C82448344AAF163
:100100000107DA4501D100F054F8AFF2090EBAE860
:100110000F0013F0010F18BFFB1A43F0010318473B
:10012000C0CA0000E0CA00000A444FF0000C10F8FA
:10013000013B13F0070408BF10F8014B1D1108BF65
:1001400010F8015B641E05D010F8016B641E01F805
:10015000016BF9D113F0080F1EBF10F8014BAD1C55
:100160000C1B09D16D1E58BF01F801CBFAD505E073
:1001700014F8016B01F8016B6D1EF9D59142D6D3CD
:10018000704700000023002400250026103A28BFF5
:1001900078C1FBD8520728BF30C148BF0B607047F9
:1001A000642908F04584002070471FB51FBD10B5B5
:1001B00010BD08F00DFE1146FFF7F7FF00F00CF937
:1001C00008F02BFE03B4FFF7F2FF03BC02F0B4FB10
:1001D00030BF72B662B680F308887047704700BFC0
:1001E000FEE700BFFEE700BFFEE700BFFEE7704787
:1001F00070477047704700000CB5002001900090D8
:100200006C48006840F480306A49086000BF694863
:10021000006800F4003000900198401C01900098A4
:1002200018B90198B0F5A06FF1D16248006800F4E8
:10023000003010B10120009001E0002000900098F3
:10024000012843D15C48006840F010005A4908601A
:100250000846006820F0030008600846006840F087
:1002600002000860534840685249486008464068A8
:1002700048600846406840F480604860084640682E
:1002800020F47C1048600846406840F4E81048605C
:100290000846006840F08070086000BF454800686C
:1002A00000F000700028F9D04248406820F00300B8
:1002B000404948600846406840F00200486000BF7E
:1002C0003C48406800F00C000828F9D10CBD10B57E
:1002D000FFF792FF10BD10B53648006840F00100EE
:1002E000344908600846406834490840314948604C
:1002F00008460068324908402E49086008460068F0
:1003000020F4802008600846406820F4FE00486021
:100310004FF41F008860FFF7DAFF4FF000602949B3
:10032000086010BD10B5002100200022214B5B6841
:1003300003F00C0121B1042906D0082928D107E0D7
:10034000214B224C236027E01F4B204C236023E0ED
:10035000184B5B6803F47010164B5B6803F4803233
:10036000022303EB904022B9194B4343174C2360FF
:100370000DE0104B5B6803F4003323B1144B43438F
:10038000124C236003E0104B4343104C236003E006
:100390000D4B0E4C236000BF00BF064B5B68C3F3E0
:1003A00003130C4CE15C094B1B68CB40074C2360EA
:1003B00010BD000000100240002002400000FFF8C5
:1003C000FFFFF6FE08ED00E000127A0000000020BA
:1003D00000093D0004000020022002F055F902F05F
:1003E000E3F8022002F03AFA012002F037FA02F0B4
:1003F00007FB02F035FB002141F61F4002F0DEFE54
:100400004FF4E13002F0B6FA4FF4165003F09EFAC2
:1004100002F02CFF02F077FF02F030FE03F002F84A
:1004200002F077FD08F00AF808F01CF803F0F4FB7E
:1004300014E00B48007820B904F06FFB04F00AFACE
:1004400001E004F069FC012006490870002006491B
:10045000087000BF034800780028FBD1E9E70000DE
:100460001B00002045000020440000200948804770
:1004700009480047FEE7FEE7FEE7FEE7FEE7FEE786
:10048000FEE7FEE7FEE7FEE704480549054A064B9E
:1004900070470000D7020008ED0000083008002077
:1004A000300E0020300A0020300A0020314901437C
:1004B000314A1160704770B5002100230F22C478C3
:1004C00004B32D4C246804F4E064C4F5E064210A0C
:1004D000C1F10403CA40447804FA03F1847814405B
:1004E00021430901254C0678A155047804F01F0525
:1004F0000124AC4005786D11AD0005F1E025C5F88B
:10050000004109E0047804F01F050124AC401C4DB3
:100510000678761145F8264070BD1A4A0A40024313
:10052000154B1B1F1A60704739B1134A121D126810
:100530000243114B1B1D1A6006E00F4A121D126880
:1005400082430D4B1B1D1A607047042808D14FF0E1
:10055000E021096941F004014FF0E022116107E058
:100560004FF0E021096921F004014FF0E022116110
:10057000704700000000FA050CED00E000E400E028
:1005800080E100E080FFFF1F10B50446FA48844276
:1005900008D10121401500F0ABFE0021601500F0EC
:1005A000A7FE17E0F548844208D10121001500F0AC
:1005B0009FFE0021201500F09BFE0BE0F0488442D6
:1005C00008D10121C80300F093FE00214FF4004040
:1005D00000F08EFE10BD30B50246002000235068AA
:1005E000E84C20400D790C6844EA05242043506013
:1005F0009068E54C2040D1E902542C434D7944EAFF
:10060000450420439060D06A20F470000C7C641E86
:10061000E4B2234340EA0350D06230BD00210160C0
:10062000017141718160C16001210174704721B184
:10063000826842F00102826003E0826822F00102D7
:100640008260704721B1826842F48072826003E068
:10065000826822F480728260704710B50023CBB2AA
:100660001AB144681C43446002E044689C434460FF
:1006700010BD816841F0080181607047014600208B
:100680008A6802F008020AB1012000E000207047E9
:10069000816841F0040181607047014600208A684A
:1006A00002F004020AB1012000E00020704721B1ED
:1006B000826842F4A002826003E0826822F4A00211
:1006C00082607047014600208A6802F480020AB105
:1006D000012000E00020704710B50A4600210023E9
:1006E000416821F46041531E41EA4331416010BD2D
:1006F00021B1426842F40062426003E0426822F4A1
:10070000006242607047F0B504460D4600200021AB
:10071000092D11DDE068A5F10A0606EB460707265C
:1007200006FA07F18843A5F10A0606EB460603FA26
:1007300006F10843E0600CE0206905EB4507072659
:1007400006FA07F1884305EB450603FA06F108436C
:100750002061072A0FDA606B561E06EB86071F26FC
:1007600006FA07F18843561E06EB860605FA06F1DF
:100770000843606322E00D2A0FDA206BD61F06EBD8
:1007800086071F2606FA07F18843D61F06EB860662
:1007900005FA06F10843206310E0E06AA2F10D06B5
:1007A00006EB86071F2606FA07F18843A2F10D061D
:1007B00006EB860605FA06F10843E062F0BD21B1BA
:1007C000826842F48012826003E0826822F4801220
:1007D000826070470146C86C80B2704766484C30F2
:1007E0000068704721B1426842F48062426003E0D1
:1007F000426822F480624260704721B1426842F44C
:100800008052426003E0426822F4805242607047A6
:100810000A460021816821F4E0411143816070475C
:1008200021B1826842F40042826003E0826822F4CF
:1008300000428260704721B1826842F402128260F5
:1008400003E0826822F402128260704701460020B1
:100850008A6802F400120AB1012000E0002070470B
:10086000F0B504461546002000220026092911DDB6
:10087000E068A1F10A0707EB470C072707FA0CF21B
:100880009043A1F10A0707EB470703FA07F2104369
:10089000E0600CE0206901EB410C072707FA0CF23D
:1008A000904301EB410703FA07F210432061A06B6C
:1008B000C0F30156EF1C06F1010CA7EB0C0707EB88
:1008C000870C1F2707FA0CF29043EF1C06F1010C6E
:1008D000A7EB0C0707EB870701FA07F21043A063A9
:1008E000F0BD10B50A4600210023816B21F44011B0
:1008F000531E41EA0351816310BD08B500230093E4
:100900000090009B0B440093009B1A6008BD08B543
:10091000024600200090009201F12800009B18443C
:1009200000900098006880B208BD0A460021416826
:10093000164B194011434160704741628262704713
:100940000A460021416821F01F01114341607047B0
:1009500040B109490831096841F40001064A0832EA
:10096000116007E004490831096821F40001024AD6
:100970000832116070470000002401400028014047
:10098000003C0140FFFEF0FFFDF7F1FFFFFD3FFFE0
:100990000246002013680B400BB1012000E000204C
:1009A0007047CA430260704770B5024600200023BA
:1009B00000240B125568CEB205EA060415681D40E6
:1009C00015B10CB1012000E0002070BD00220A1218
:1009D000D34303607047000010B5012000F0A2FC73
:1009E000002000F09FFC10BD2A490860704729498B
:1009F000091F086070472749843108607047014625
:100A00000020254A10884FF67F4210400843224AB2
:100A100010807047014600201F4A10884FF68072F0
:100A2000104008431C4A1080704708B5002200920D
:100A3000194A2C3A0092009A02440092009A1160DE
:100A400008BD08B501460020009013482C380090DE
:100A50000098084400900098008808BD0D489C301C
:100A60000068C0B270470C480830008840F00100B0
:100A700009490831088070470648A0300068C0B2B4
:100A8000704705480830008840F0020002490831EC
:100A90000880704704860D422C6C004000204449B9
:100AA0000860091D0860091D0860091D08604148AB
:100AB0003F4914310860704700213D498279002A7E
:100AC0003AD00A46126803689A430B461A600A1D18
:100AD000126803689A430B1D1A60027911440A6870
:100AE00003681A430A60324A0832126803689A435C
:100AF0002F4B08331A601A1D126803689A432C4B57
:100B00000C331A604279102A0ED11A1F126803683A
:100B10001A43274B08331A601A1D126803681A43D8
:100B2000234B0C331A600DE02149427911440A68C5
:100B300003681A430A6005E0027911440A680368F1
:100B40009A430A6070470021016001710C214171D4
:100B50000021817170471649103109680143144A18
:100B600010321160704701460020114A1432126899
:100B70000A400AB1012000E0002070470C491431FE
:100B800008607047014600200022094B1B6803EAF9
:100B90000102074B14331B680B4013B10AB101204B
:100BA00000E00020704702491431086070470000DF
:100BB00000040140FFFF0F0010B50446CC488442FA
:100BC00008D10121042000F093FB0021042000F053
:100BD0008FFB46E0C748844208D10121082000F07D
:100BE00087FB0021082000F083FB3AE0C2488442E2
:100BF00008D10121102000F07BFB0021102000F023
:100C000077FB2EE0BD48844208D10121202000F06E
:100C10006FFB0021202000F06BFB22E0B8488442EB
:100C200008D10121402000F063FB0021402000F0AA
:100C30005FFB16E0B348844208D10121802000F018
:100C400057FB0021802000F053FB0AE0AE488442AD
:100C500007D10121801500F04BFB0021A01500F009
:100C600047FB10BD10B50121084600F041FB0021F3
:100C7000012000F03DFB10BD2DE9F04102460025AA
:100C80000026002000230024002791F803C00CF068
:100C90000F0591F803C00CF0100CBCF1000F03D04D
:100CA00091F802C04CEA050591F800C0BCF1000FB4
:100CB00031D0146800202BE04FF0010C0CFA00F347
:100CC000B1F800C00CEA03069E4220D183004FF029
:100CD0000F0C0CFA03F7BC4305FA03FC4CEA0404BE
:100CE00091F803C0BCF1280F06D14FF0010C0CFAAB
:100CF00000FCC2F814C00AE091F803C0BCF1480F30
:100D000005D14FF0010C0CFA00FCC2F810C0401CD9
:100D10000828D1D31460B1F800C0BCF1FF0F34DD56
:100D2000546800202EE000F1080C4FF0010808FA8A
:100D30000CF3B1F800C00CEA03069E4221D18300F7
:100D40004FF00F0C0CFA03F7BC4305FA03FC4CEA16
:100D5000040491F803C0BCF1280F05D100F1080C80
:100D600008FA0CF8C2F8148091F803C0BCF1480FDF
:100D700007D100F1080C4FF0010808FA0CF8C2F88E
:100D80001080401C0828CED35460BDE8F0814FF697
:100D9000FF710180022181700421C17070470246F9
:100DA000002093680B400BB1012000E00020704749
:100DB0000146886880B2704702460020D3680B4025
:100DC0000BB1012000E0002070470146C86880B2E6
:100DD000704701617047416170470AB1016100E0ED
:100DE00041617047C16070474FF480320A438261AD
:100DF0008161826182698269704702460020434BAB
:100E000018684FF68073184040EA021008433F4BC1
:100E1000186070473E49C8617047F0B50A46002324
:100E200000240021002500F00046B6F1004F02D159
:100E3000364EF16901E0354E7168C0F3034583B267
:100E400000F44016B6F5401F08D121F070612F4E16
:100E5000766826F070662D4F7E6012E000F48016F2
:100E6000B6F5801F06D1032606FA05F4A14341F02A
:100E7000706106E0460D360103FA06F6B14341F013
:100E8000706122B1460D360103FA06F6314300F0D7
:100E90000046B6F1004F02D11C4EF16101E01B4E3D
:100EA0007160F0BD30B500228B071C0F0F2303FAD1
:100EB00004F2164B08338C1053F824309343134C30
:100EC00008348D1044F8253023468C1053F8243014
:100ED0008C07240F00FA04F423430C4C08348D10C3
:100EE00044F8253030BD0A49DC3108607047000005
:100EF00000080140000C01400010014000140140B6
:100F000000180140001C0140002001400000014089
:100F10000000204210B50121080700F0F6F9002179
:100F20004FF0805000F0F1F910BD2A490862704777
:100F300028490861704701460020274A106820F0C0
:100F4000E0000843106070472249A03108607047F4
:100F500010B502460020204B186820F00300104313
:100F600018601E4B1B6843F004031C4C23600129CE
:100F700001D130BF00E020BF184B1B6823F00403F1
:100F8000164C236010BD1448006840F0040012495C
:100F900008600846006840F0020008600F480068DA
:100FA00040F004000D49086000BF00BF30BF70472B
:100FB00001460020084A52680A400AB1012000E0B8
:100FC000002070470449096841EA8001024A116023
:100FD0007047000000000E420070004010ED00E07D
:100FE000DF48006840F00100DD49086008464068BD
:100FF000DC490840DA49486008460068DA49084098
:10100000D74908600846006820F480200860084638
:10101000406820F4FE0048604FF41F00886070476D
:10102000CF49096821F48031CD4A11601146096821
:1010300021F480211160B0F5803F03D0B0F5802FFE
:101040000ED106E0C649096841F48031C44A1160F6
:1010500007E0C349096841F4A021C14A116000E0DA
:1010600000BF00BF704710B50146002200230020DA
:101070004A11012A02D1BA4C236806E0022A02D1A1
:10108000B74C236A01E0B64C636A01F01F020124E9
:1010900094401C400CB1012000E0002010BD38B588
:1010A000002000900024002500BF3120FFF7DBFF67
:1010B00005460098401C00900098B0F5A06F01D044
:1010C000002DF2D03120FFF7CEFF08B1012400E05F
:1010D0000024204638BD01460020A14A106820F0B7
:1010E000F80040EAC10010607047A04908607047EE
:1010F000024600209A4B586820F47C1042EA010313
:101100001843974B586070479849086670470146E6
:101110000020934A506820F0030008435060704755
:101120008F48406800F00C007047014600208C4A50
:10113000506820F0F00008435060704701460020DE
:10114000874A506820F4E0600843506070470146C9
:101150000020834A506820F4605040EAC10050608B
:10116000704729B17E4A527A02437D4B5A7204E09D
:101170007B4A527A82437A4B5A7270477B49D83104
:101180000860704701460020754A506820F44040CE
:101190000843506070470021714A20321170704A34
:1011A00082F82010012802D004280AD104E001218D
:1011B0006B4A2032117005E00521694A2032117016
:1011C00000E000BF00BF704769490860704764498C
:1011D000096A0143624A11627047654944390860EF
:1011E000704730B500210022002400235C4D6D685B
:1011F00005F00C0121B1042905D0082923D105E00F
:101200005C4D056022E05B4D05601FE0544D6D684C
:1012100005F47012524D6D6805F48034022505EB1B
:1012200092421CB9544D554305600BE04C4D6D681E
:1012300005F400351DB1504D5543056002E04D4D9C
:101240005543056002E04B4D056000BF00BF444DB3
:101250006D6805F0F0010909484D6B5C0568DD40DB
:1012600045603F4D6D6805F4E061090A434D6B5CD4
:101270004568DD4085603A4D6D6805F46051C90AE6
:101280003E4D6B5C4568DD40C560354D6D6805F4CD
:101290004041890B3A4D6B5CC568B5FBF3F50561C0
:1012A00030BD29B12E4A526902432D4B5A6104E0E8
:1012B0002B4A526982432A4B5A61704729B1284A06
:1012C00092690243264B9A6104E0254A926982435F
:1012D000234B9A61704729B1214AD2690243204BBE
:1012E000DA6104E01E4AD26982431D4BDA6170471D
:1012F00029B11B4AD2680243194BDA6004E0184A4C
:10130000D2688243164BDA60704729B1144A1269D9
:101310000243134B1A6104E0114A12698243104BD5
:101320001A61704712494039086070470F49C86414
:1013300070470B49C87170470948406A40F0807097
:1013400007494862704701460020054A92680A40F2
:101350000AB1012000E000207047014988727047FF
:10136000001002400000FFF8FFFFF6FE00004242BE
:101370008004424200127A0000093D00680000200B
:101380007800002010B50446FE48844208D10121AF
:10139000C014FFF7ADFF0021E014FFF7A9FFC4E080
:1013A000B4F1804F08D101210846FFF7AEFF0021BC
:1013B0000120FFF7AAFFB8E0F348844208D10121D9
:1013C0000220FFF7A2FF00210220FFF79EFFACE002
:1013D000EE48844208D101210420FFF796FF002146
:1013E0000420FFF792FFA0E0E948844208D10121E0
:1013F0000820FFF78AFF00210820FFF786FF94E00E
:10140000E448844208D101211020FFF77EFF00212B
:101410001020FFF77AFF88E0DF48844208D10121DD
:101420002020FFF772FF00212020FFF76EFF7CE0F5
:10143000DA48844208D101214014FFF759FF002106
:101440006014FFF755FF70E0D548844209D10121AF
:10145000C804FFF74DFF00214FF40020FFF748FFBD
:1014600063E0D048844209D101210805FFF740FF1D
:1014700000214FF48010FFF73BFF56E0CA4884423A
:1014800009D101214805FFF733FF00214FF4001077
:10149000FFF72EFF49E0C548844208D101214020D2
:1014A000FFF733FF00214020FFF72FFF3DE0C0484A
:1014B000844208D101218020FFF727FF00218020EE
:1014C000FFF723FF31E0BB48844208D1012180159A
:1014D000FFF71BFF0021A015FFF717FF25E0B64817
:1014E000844209D101210804FFF702FF00214FF4D3
:1014F0008030FFF7FDFE18E0B048844209D1012199
:101500004804FFF7F5FE00214FF40030FFF7F0FE2E
:101510000BE0AB48844208D101218804FFF7E8FEC4
:1015200000214FF48020FFF7E3FE10BD0022028867
:10153000944B98420ED0994B98420BD0B0F1804F0B
:1015400008D0914B984205D0904B984202D0904BD6
:10155000984204D14FF68F731A404B881A438D4B33
:10156000984207D08C4B984204D04FF6FF431A4064
:10157000CB881A4302808B8883850B880385814B37
:1015800098420BD0854B984208D08B4B984205D09F
:101590008A4B984202D08A4B984201D10B7A03863B
:1015A00001238382704770B5002400220023058C3C
:1015B0004FF6FE7635400584028C8388048B4FF607
:1015C0008F752C40B51E2C400D882C43751E2A406B
:1015D0000D892A434D882A436A4DA8420BD06F4D8E
:1015E000A84208D0744DA84205D0744DA84202D03C
:1015F000734DA84213D14FF6F7752A404D892A43FF
:101600004FF6FB752A408D882A434FF6FF652B4025
:101610004FF6FF552B408D892B43CD892B4383807B
:101620000483CD888586028470BD70B500240022B5
:101630000023058C4FF6EF7635400584028C8388B5
:10164000048B48F6FF752C404FF6FF452C400D8863
:101650004FF6FF7606EA05252C434FF6DF752A4044
:101660000D8906EA05152A434D8806EA05152A4321
:10167000444DA84202D0494DA8421DD14FF67F7576
:101680002A404D894FF6FF7606EA05152A434FF6A4
:10169000BF752A408D8806EA05152A434FF6FF35A7
:1016A0002B404FF2FF752B408D8906EA85052B43B1
:1016B000CD8906EA85052B4383800483CD88058781
:1016C000028470BD70B5002400220023058C4FF603
:1016D000FF6635400584028C8388848B4FF68F75B6
:1016E0002C404FF6FC752C400D882C434FF6FF55CF
:1016F0002A400D894FF6FF7606EA05252A434D88D4
:1017000006EA05252A431F4DA84202D0234DA842D0
:101710001DD14FF2FF752A404D894FF6FF7606EA3C
:1017200005252A434FF6FF352A408D8806EA052510
:101730002A434EF6FF752B404DF6FF752B408D89E1
:1017400006EA05152B43CD8906EA05152B43838050
:101750008483CD888587028470BD70B50022002304
:101760000024058C4EF6FF7635400584038C848872
:10177000828B48F6FF752A404FF6FF452A400D88B8
:1017800020E00000002C0140000400400008004060
:10179000000C0040001000400014004000340140E4
:1017A000004C01400050014000540140001800402E
:1017B000001C004000200040004001400044014067
:1017C000004801404FF6FF7606EA05252A434DF60C
:1017D000FF752B400D8906EA05352B434D8806EA37
:1017E00005352B43FA4DA84202D0FA4DA84208D144
:1017F0004BF6FF752C408D894FF6FF7606EA85156E
:101800002C4384808283CD88A0F84050038470BD2F
:10181000828B4FF2FF331A408283828B4FF6FF7325
:1018200003EA01231A4382837047F0B50C4615463C
:10183000002200210026078C4EF6FF7C07EA0C07E9
:101840000784828B018C4FF6FF7707EA043640F657
:10185000FF473A404FF6FF7707EA05273A434FF62E
:10186000FF7707EA03373A43D94FB8420ED0D94F32
:10187000B8420BD0B0F1804F08D0D74FB84205D056
:10188000D64FB84202D0D64FB84206D14DF6FF77B8
:10189000394046F48057394305E047F6FF57394051
:1018A00044F48057394382830184F0BD828B4FF624
:1018B000F3731A408283828B0A4382837047F0B5A8
:1018C0000C461546002200210026078C4FF6FF6CBF
:1018D00007EA0C070784828B018C4FF6FF7707EA33
:1018E00004264FF60C773A404FF6FF7707EA0317C6
:1018F0002F433A43B64FB8420ED0B64FB8420BD042
:10190000B0F1804F08D0B44FB84205D0B34FB842C1
:1019100002D0B34FB84206D14FF6FF57394046F4D4
:101920008077394305E04FF2FF57394044F4807720
:10193000394382830184F0BD028B4FF2FF331A409A
:101940000283028B4FF6FF7303EA01231A430283DB
:101950007047F0B50C461546002200210026078C82
:101960004FF6EF7C07EA0C070784028B018C4FF6D9
:10197000FF7707EA041640F6FF473A404FF6FF7735
:1019800007EA03373A434FF6FF7707EA05273A435A
:101990008F4FB8420ED08F4FB8420BD0B0F1804F6E
:1019A00008D08D4FB84205D08C4FB84202D08C4F32
:1019B000B84206D14FF6DF77394046F01007394379
:1019C00005E04FF65F77394044F010073943028352
:1019D0000184F0BD028B4FF6F3731A400283028B31
:1019E0000A4302837047F0B50C46154600220021D9
:1019F000068C4FF6FE773E400684028B018C4FF634
:101A00000C7632407E1C06EA03162E433243704E9B
:101A1000B0420ED06F4EB0420BD0B0F1804F08D024
:101A20006D4EB04205D06D4EB04202D06C4EB04209
:101A300006D14FF6FD76314044F00106314305E012
:101A40004FF6F576314044F00106314302830184BC
:101A5000F0BD70B505460C465D4885420ED05D4828
:101A600085420BD0B5F1804F08D05B48854205D048
:101A70005A48854202D05A48854200D100E000BF52
:101A8000208850B92389A28861882846FFF7ABFFD8
:101A9000E1882846FFF79EFF25E0208804280AD128
:101AA0002389A28861882846FFF753FFE1882846EA
:101AB000FFF742FF17E0208808280AD12389A2886F
:101AC00061882846FFF7FBFEE1882846FFF7EEFE17
:101AD00009E02389A28861882846FFF7A6FEE188ED
:101AE0002846FFF795FE70BD2DE9F04105460C46EE
:101AF00000260127608808B9022600E00026A08899
:101B0000012801D1022700E001272088A0B92389FC
:101B1000A28861882846FFF766FFE1882846FFF71C
:101B200059FF23893A4631462846FFF712FFE188DC
:101B30002846FFF701FF13E02389A2886188284621
:101B4000FFF707FFE1882846FFF7F6FE23893A46AC
:101B500031462846FFF747FFE1882846FFF73AFF5E
:101B6000BDE8F0810A884B881A438B881A43CB88DA
:101B70001A430B891A434B891A438B891A43A0F8DD
:101B8000442070474FF6FF71818000210180C180A1
:101B90004180017270470021018041808180C180B5
:101BA000018141818181C181704700210180418093
:101BB000012181800021C1800181704700210180C5
:101BC00041808180C1800181418181817047000015
:101BD000002C014000340140000400400008004097
:101BE000000C004021B1028842F00102028004E0B2
:101BF00002884FF6FE731A400280704731B1B0F888
:101C0000442042F40042A0F8442005E0B0F844200B
:101C1000C2F30E02A0F8442070471AB183890B4327
:101C2000838102E083898B4383817047818270477F
:101C300041EA0203A0F8483070471AB183890B4388
:101C4000838102E083898B438381704701894FF64A
:101C5000F8721140018170470A46002101894FF650
:101C60008F73194011430181704730B504460D460A
:101C700029462046FFF7F0FF208940F00700208129
:101C800030BD2DE9F04104460D4616461F46602D35
:101C900006D13B46012231462046FFF75AFE05E0B9
:101CA0003B46012231462046FFF79DFE294620464D
:101CB000FFF7D2FF208940F007002081BDE8F081C6
:101CC00030B50C4600210189C9B24FF6FF7505EA0F
:101CD0000325154325432943018130BD2DE9F041FA
:101CE00005460E4617469846002443463A46314676
:101CF0002846FFF7E5FF2C894FF6F870044044F0C2
:101D000007044FF68F70044044F070042C81BDE846
:101D1000F081F0B504460D4616461F463B46324656
:101D200029462046FFF7CCFF208940F480402081DF
:101D3000F0BD0185828270470A46002101884FF676
:101D40008F731940114301807047F0B50C4615465A
:101D50001E460021002200230189028B038C4FF6CE
:101D6000F877394021434FF6FC473A4040F20117DB
:101D70003A434FF6DD773B404FF6FF7707EA061709
:101D80002F433B43018102830384F0BD0A460021B7
:101D9000018B4FF68F7319401143018370470A4638
:101DA0000021018B48F6FF7319404FF6FF7303EAD9
:101DB00002231943018370470A460021818B4FF6A5
:101DC0008F7319401143818370470A460021818B2C
:101DD00048F6FF7319404FF6FF7303EA02231943D5
:101DE0008183704721B1028842F08002028004E0C2
:101DF00002884FF67F731A400280704721B18288B3
:101E000042F00402828004E082884FF6FB731A409D
:101E10008280704721B1828842F00802828004E00B
:101E200082884FF6F7731A408280704721B182880A
:101E300042F00102828004E082884FF6FE731A406D
:101E4000828070470A460021018B4FF6F7731940D4
:101E50001143018370470A460021018B4FF2FF7343
:101E600019404FF6FF7303EA0223194301837047B9
:101E70000A460021818B4FF6F77319401143818385
:101E800070470A460021818B4FF2FF7319404FF6CD
:101E9000FF7303EA02231943818370470A46002136
:101EA000018B4FF6FB7319401143018370470A46BB
:101EB0000021018B4FF6FF3319404FF6FF7303EA01
:101EC00002231943018370470A460021818B4FF694
:101ED000FB7319401143818370470A460021818BAF
:101EE0004FF6FF3319404FF6FF7303EA02231943FD
:101EF000818370470A460021018B4FF67F7319409A
:101F00001143018370470A460021018BC1F30E0182
:101F10004FF6FF7303EA02231943018370470A4611
:101F20000021818B4FF67F731940114381837047E5
:101F30000A460021818BC1F30E014FF6FF7303EABD
:101F400002231943818370470A460021018C4FF612
:101F5000FD7319401143018470470A460021018C2A
:101F60004FF6F77319401143018470470A46002168
:101F7000018C4FF6DF7319404FF6FF7303EA02132B
:101F80001943018470470A460021018C4FF67F7384
:101F900019404FF6FF7303EA021319430184704797
:101FA0000A460021018C4FF6FF5319404FF6FF738C
:101FB00003EA02231943018470470A460021018C79
:101FC0004FF2FF7319404FF6FF7303EA02231943E0
:101FD000018470470A460021018C4DF6FF731940B9
:101FE0004FF6FF7303EA023319430184704730B59B
:101FF000002301248C40A3B2048C9C430484048CF1
:1020000002FA01F5ADB22C43048430BD30B5002393
:1020100004248C40A3B2048C9C430484048C02FAF4
:1020200001F5ADB22C43048430BD70B503460020E9
:1020300000241846183001258D40ACB21D8CA543F4
:102040001D8409B1082909D100EB6100056825F05C
:10205000700505600568154305600EE00D1FC5F3AA
:102060004E052844056825F4E045056005684FF6EF
:10207000FF7606EA02263543056070BD21B102886D
:1020800042F00202028004E002884FF6FD731A401B
:102090000280704721B1028842F00402028004E00D
:1020A00002884FF6FB731A400280704721B1828884
:1020B00042F08002828004E082884FF67F731A40EB
:1020C0008280704702884FF6F7731A4002800288B8
:1020D0000A430280704782884FF68F731A408280CD
:1020E00082880A438280704702894FF6F8731A404B
:1020F000028102890A430281704702894FF67F7389
:102100001A40028102890A43028170478184704724
:102110008185704781867047018770478187704746
:10212000A0F84010704702884FF6FF431A40028023
:1021300002880A43028070470146888E7047014634
:10214000088F70470146888F70470146B1F84000FC
:1021500070470146888C70470146088D70470246DB
:102160000020138A0B400BB1012000E000207047D3
:10217000CA430282704730B5024600200023002483
:10218000158A05EA0103958905EA010413B10CB12A
:10219000012000E0002030BDCA43028270470000E9
:1021A00010B50446FB48844209D101218803FFF79A
:1021B0009FF800214FF48040FFF79AF832E0F6488C
:1021C000844209D101214804FFF79FF800214FF410
:1021D0000030FFF79AF825E0F048844209D1012148
:1021E0008804FFF792F800214FF48020FFF78DF864
:1021F00018E0EB48844209D10121C804FFF785F8B3
:1022000000214FF40020FFF780F80BE0E5488442FE
:1022100008D101210805FFF778F800214FF480105C
:10222000FFF773F810BD2DE9F04786B005460E465E
:102230000024A24600BFA1460027B08900B100BF1C
:102240002F462C8A4CF6FF700440F08804432C8201
:10225000AC894EF6F3100440B08831890843718987
:1022600008430443AC81AC8A4FF6FF400440B08978
:102270000443AC8201A8FEF7B4FFC648874202D1EE
:10228000DDF810A001E0DDF80CA0A88900F4004002
:1022900040B10AEBCA0000EB0A1031684900B0FBFC
:1022A000F1F807E00AEBCA0000EB0A103168890078
:1022B000B0FBF1F86420B8FBF0F0040120096421C0
:1022C00001FB1089A88900F4004040B1322000EBE6
:1022D000C900B0FBF1F000F00700044308E0322031
:1022E00000EB09106421B0FBF1F000F00F00044393
:1022F0002C8106B0BDE8F0874FF416510160002133
:102300008180C18001810C21418100218181704740
:1023100010B502460020108A4FF2FF0318400B88C8
:102320004C8823438C882343CC8823431843108252
:1023300010BD0021018041808180C180704721B1A2
:10234000828942F40052828104E082894DF6FF7353
:102350001A4082817047F0B503460024002600250C
:10236000002040F66A17B94200D100BF1846C1F3F9
:10237000421401F01F06012707FA06F5012C01D1CE
:102380000C3004E0022C01D1103000E014301AB1FE
:1023900007682F43076002E00768AF430760F0BD9E
:1023A0001AB1838A0B43838202E0838A8B43838240
:1023B0007047028A4FF6F0731A400282028A0A437B
:1023C0000282704782894FF2FF731A4082818289AC
:1023D0000A438281704721B1828942F002028281E0
:1023E00004E082894FF6FD731A4082817047028AA9
:1023F0004FF6DF731A400282028A0A430282704754
:1024000021B1028A42F48042028204E0028A4BF641
:10241000FF731A4002827047C1F30802828070473E
:1024200001468888C0F308007047818941F00101A6
:1024300081817047028BD2B20283028B42EA012271
:1024400002837047028B02F47F420283028B0A43AD
:102450000283704721B1828A42F02002828204E026
:10246000828A4FF6DF731A408282704721B1828AD6
:1024700042F01002828204E0828A4FF6EF731A4023
:102480008282704721B1828A42F00802828204E08F
:10249000828A4FF6F7731A408282704721B182898F
:1024A00042F40042828103E08289C2F30E028281FB
:1024B000704721B1828A42F40062828204E0828AFB
:1024C0004FF2FF731A4082827047828A4FF6FB7385
:1024D0001A408282828A0A438282704721B1828AAC
:1024E00042F00202828204E0828A4FF6FD731A40B3
:1024F0008282704702460020B1F5007F00D100BF04
:1025000013880B400BB1012000E00020704701F45C
:102510000072B2F5007F00D100BFCA43028070474D
:1025200070B50246002400230025002040F66A16FC
:10253000B14200D100BFC1F3421501F01F030126D3
:1025400006FA03F3012D02D19689334006E0022DED
:1025500002D1168A334001E0968A33400C120126DC
:1025600006FA04F41688344013B10CB1012000E0DF
:10257000002070BD10B50022002340F66A14A1426D
:1025800000D100BF0A1201249440A3B2DC430480AE
:1025900010BD0000003801400044004000480040E9
:1025A000004C00400050004010B56FF00400FDF7F3
:1025B000CCFF2E4800682E49B0FBF1F02D49087081
:1025C0000846007800EB4001C1EBC0104FF6FF71E8
:1025D00001EAC0002849088010BD0146254A12784A
:1025E0004A434FF0E0235A6100229A611A46126969
:1025F00042F001021A6100BF4FF0E022106900F0C2
:1026000001021AB100F48032002AF5D04FF0E02226
:10261000126922F001024FF0E0231A6100229A6150
:1026200070470146144A12884A434FF0E0235A612A
:1026300000229A611A46126942F001021A6100BF33
:102640004FF0E022106900F001021AB100F480326C
:10265000002AF5D04FF0E022126922F001024FF07B
:10266000E0231A6100229A617047000000000020F8
:1026700000127A007C0000207E000020A34A0A405D
:102680000243A34B1A6070470146072323EA010265
:1026900012029F4B1B1D18684FF6FF0318409D4BFD
:1026A000184310439A4B1B1D186070472DE9F041E9
:1026B0000746884614461D462846FFF7E5FFC5F144
:1026C000040007FA00F60F20284100EA080006433C
:1026D00006F00F06E21704EBD2625211920002F1EB
:1026E000E022D2F800212146E31704EBD3635B110B
:1026F000A4EB431C012303FA0CF31A432046E3170F
:1027000004EBD3635B119B0003F1E023C3F80021CA
:102710008148005D40EA06107F490855BDE8F08118
:1027200070B504460B46CE1701EB9676C6F38700CC
:10273000CE1701EB9676B610A1EB8606B606350EDF
:10274000764B9B6943F00103744EB3614FEAB63395
:1027500053F820300F26AE40B343714E46F8203078
:10276000334653F8203004FA05F61E436C4B43F809
:1027700020606C4B1B6801268E403343694E3360EA
:1027800002F0010343B1674B0C331B6801268E40F6
:102790003343644E0C36336002F0020343B1614BA5
:1027A00008331E6801238B401E435E4B08331E60B6
:1027B00070BD00B5002059490861C8601420486107
:1027C00000208861C8610846006840F00100086088
:1027D0000846406854490840504948600846006827
:1027E000524908404D4908600846006820F480209E
:1027F00008600846406820F4FE00486000208860B9
:1028000000214FF00060FFF739FF00BD10B54048D0
:102810000830006840F004003D49083108603F4836
:10282000C06940F080503D49C8614148406840F46B
:1028300080703F4948600846006840F00400086026
:102840000846006840F002000860FDF7C1FC10BDBA
:102850003048001D2E49091D086070470146490691
:102860002E4A926942F001022C4B9A612C4A083A96
:10287000526822F0E0622A4B083B5A601A465268BE
:102880000A435A60704730B504460025FFF791FFB0
:102890002248006840F480302049086000BF1F488B
:1028A0000068400C0028FAD04FF480601B49486053
:1028B000A01EC4B20846406840EA8440486008460A
:1028C000406840F4803048601A48006840F03200A8
:1028D000184908601148006840F080700F4908608E
:1028E00000BF0E480068400E0028FAD00B48406830
:1028F00040F002000949486005E008484068C0F31C
:10290000870505F00305022DF7D130BD80FFFF1FBD
:1029100008ED00E00000FA0500E400E000100240CD
:1029200008000140000401400000FFF8FFFFF6FE30
:102930000070004000200240014600BF70472C4A52
:1029400012785AB900BF2B4A128802F04002002ABE
:10295000F9D0C2B2274B1B1D1A800AE000BF264ADD
:10296000128802F04002002AF9D0C2B2224B1B1D8D
:102970001A80704710B586B00446012144F2040065
:10298000FEF79CFC4FF40070ADF8140003208DF8A6
:10299000160018208DF8170005A91848FEF76CF9E5
:1029A0004FF48060ADF8140004208DF8170005A9DD
:1029B0001248FEF761F901940020ADF80800ADF867
:1029C0000A00ADF80C00ADF810000C20ADF80E00B8
:1029D00001A90948FFF727FC002240F225510648CB
:1029E000FFF7B9FC01210448FFF7A9FC06B010BDB0
:1029F0001B00002000480040003801400008014052
:102A000008B501210420FEF759FC1020ADF80000A4
:102A10008DF8030003208DF8020069460C48FEF78C
:102A20002BF908BD18B900210A4A11600FE00A49C4
:102A30000968491C084A1160814208D105490968A2
:102A4000C943064AC2F890110021034A1160704739
:102A50000008014090012142840000200000214232
:102A600008B501210420FEF729FC01210820FEF70A
:102A700025FC2020ADF8000048208DF803006946B1
:102A80005F48FEF7F9F88020ADF8000048208DF887
:102A9000030069465A48FEF7EFF80420ADF800003D
:102AA00048208DF8030069465548FEF7E5F80120F7
:102AB000ADF8000048208DF8030069465148FEF744
:102AC000DBF80220ADF8000048208DF803006946CD
:102AD0004C48FEF7D1F808BD01464B48006828B9BC
:102AE0004A480088401C494A108002E00020474ABA
:102AF00010804548006828B94548007810B9012081
:102B0000434A107043480078B0B941480078012822
:102B100007D141480078401C3F4A107001203D4ACF
:102B200010703D480078022806D100203A4A107003
:102B30003A4A10800220704733480068012804D1C7
:102B40000020334A1070334A10703348007801284F
:102B50001CD132480088401C304A10801046008842
:102B600088420ADD29480088884206DA00202A4A7D
:102B700010702A4A10800120DDE72448008888422E
:102B800004DD0020244A1070244A10800020D2E77F
:102B90002348007838B11C48006820B9002020493B
:102BA00008700120704718480068012801D11C49AD
:102BB00008700020F6E71B48008840B912480068FA
:102BC00028B919480088401C1749088002E00020F5
:102BD0001549088014480088C82807DD01201149DC
:102BE0000880002010490880012070470D480088A7
:102BF000012802D100200B4908800020F5E70000E1
:102C000000080140000C0140140121428E00002008
:102C100088000020890000208A0000208C0000200D
:102C200090000020940000209200002010B50A4679
:102C30001AB10123FE4C236002E00023FC4C236008
:102C4000002114E00023FB4C236000F080031BB143
:102C50000123241F236003E00023F64C241F23607C
:102C60000123F44C23604306180E4B1CD9B20829EB
:102C7000E8DB0123EE4C236010BD30B500241CE0DE
:102C800004F1B001C8B20021FFF7D0FF00210846CF
:102C9000FFF7CCFF00211020FFF7C8FF002508E058
:102CA000E54901EBC501085D0121FFF7BFFF681C85
:102CB000C5B2802DF4DB601CC4B2082CE0DB30BD53
:102CC00000B500218D20FFF7B1FF00211420FFF790
:102CD000ADFF0021AF20FFF7A9FF00BD00B5002127
:102CE0008D20FFF7A3FF00211020FFF79FFF002199
:102CF000AE20FFF79BFF00BD30B500240CE000259F
:102D000006E00020CC4901EBC5010855681CC5B29E
:102D1000802DF6DB601CC4B2082CF0DBFFF7ADFFA2
:102D200030BDF0B5144600267F2801DC3F2900DDC8
:102D3000F0BD0B46CF1701EB5777FF10C7F1070720
:102D4000FAB2CF1701EB5777FF10A1EBC707FDB21F
:102D5000C5F107070123BB40DEB24CB1B64B03EB14
:102D6000C0039B5C3343B44F07EBC007BB5408E080
:102D7000B14B03EBC0039B5CB343AF4F07EBC00702
:102D8000BB5400BFD4E72DE9F04F80460C461546F2
:102D90001E46A346A5F12000C5B200273EE00C2E3A
:102DA00007D105EB4500A54901EB800010F807901D
:102DB00004E0A34800EB051010F807904FF0000A5C
:102DC00026E009F0800028B121464046099AFFF725
:102DD000A8FF09E0099808B9012000E00020024698
:102DE00021464046FFF79DFF4FEA49604FEA1069D0
:102DF000601CC4B2A4EB0B00B04205D15C4608F1E4
:102E0000010000F0FF0806E00AF1010000F0FF0AEF
:102E1000BAF1080FD5DB00BF781CC7B2B742BEDBE2
:102E2000BDE8F08F10B50246012000E050430B00D2
:102E3000A1F10104E1B2F9D110BD2DE9FF4F81B03C
:102E4000074691461E460E9D4FF0000A002439E0C9
:102E5000301B401EC1B20A20FFF7E4FFB9FBF0F0BF
:102E60000A21B0FBF1F201FB1208BAF1000F16D1F2
:102E7000701EA04213DDB8F1000F0ED10120AB4649
:102E800005EBDB71491001FB04710090C8B22B46C1
:102E900020220299FFF777FF12E04FF0010A01208C
:102EA000AB4605EBDB71491001FB04710090C8B221
:102EB00008F13001CAB22B460299FFF764FF00BF48
:102EC000601CC4B2B442C3DB05B0BDE8F08F78B576
:102ED00005460E46144618E07A2D03DD002506F15E
:102EE0001000C6B23A2E04DD002005460646FFF764
:102EF00003FF0120009022780C2331462846FFF77B
:102F000042FF05F10800C5B2641C20780028E3D117
:102F100078BD08B501210820FEF7D0F93820ADF8BA
:102F2000000010208DF8030002208DF80200694691
:102F30004448FDF7A1FE01210420FEF7BFF94FF43C
:102F40000040ADF8000002208DF8020010208DF83E
:102F5000030069463C48FDF78FFE0120FDF7E5FFC1
:102F60000020FEF718F90020FDF741FD0020FDF7D5
:102F7000DCFF00202F49083908606420FFF751FB6F
:102F800001203249C1F88C010021AE20FFF74EFE2E
:102F90000021D520FFF74AFE00215020FFF746FE12
:102FA0000021A820FFF742FE00213F20FFF73EFE50
:102FB0000021D320FFF73AFE00210846FFF736FE36
:102FC00000214020FFF732FE00218D20FFF72EFE6A
:102FD00000211420FFF72AFE00212020FFF726FE03
:102FE00000210220FFF722FE0021A120FFF71EFE94
:102FF0000021C020FFF71AFE0021DA20FFF716FE9D
:1030000000211220FFF712FE00218120FFF70EFEA3
:103010000021EF20FFF70AFE0021D920FFF706FE6E
:103020000021F120FFF702FE0021DB2010E000006C
:10303000BC01214294812142B00200206AB3000801
:10304000DEB70008000C014000080140008021426A
:10305000FFF7ECFD00213020FFF7E8FD0021A42060
:10306000FFF7E4FD0021A620FFF7E0FD0021AF20DF
:10307000FFF7DCFDFFF740FE08BD000000B587B09C
:1030800001214FF40170FEF719F94FF40040FEF7EB
:1030900079F84020ADF8040000208DF8070001A960
:1030A0003648FDF7E9FD3648FDF76EFA002002903C
:1030B0008DF80C008DF80D004FF460200490002076
:1030C000059001208DF8180002A92D48FDF783FA1C
:1030D00001212B48FDF7ABFA2948FDF7CAFA00BFDA
:1030E0002748FDF7CBFA0028FAD12548FDF7D0FA9A
:1030F00000BF2348FDF7D1FA0028FAD107B000BD80
:1031000010B504460723012221461D48FDF7FBFAAE
:1031100001211B48FDF7CBFA00BF02211848FDF73B
:1031200037FC0028F9D01648FDF754FB10BD2DE9F7
:10313000F04F85B00620FFF7E3FF019007F094F908
:103140004FF066320F4BCDE9020107F0DDF9804602
:1031500000220D4B07F0D8F9064600220B4B07F072
:10316000D3F9044600220A4B06F0E0FF824607F03E
:1031700035F90490049805B0BDE8F08F00080140CF
:103180000024014066660A400000264000005940C5
:103190000000B04008B501210820FEF78FF84FF479
:1031A0007040ADF8000010208DF8030003208DF86A
:1031B000020069462A48FDF75FFD08BD30B589B0B9
:1031C00005460C46FFF7E6FF0121C802FEF776F838
:1031D00001210420FEF772F84FF41060ADF82000D2
:1031E00018208DF8230003208DF8220008A91D481F
:1031F000FDF742FDADF81850ADF814400020ADF8D1
:103200001A00ADF8160005A91748FEF78FF96020DF
:10321000ADF804000120ADF806000020ADF80A006A
:10322000ADF80C0001A91048FEF7BDF901A90E4840
:10323000FEF793FA01210C48FEF7E0FC08210A484A
:10324000FEF700FE08210848FEF71BFE0121064894
:10325000FEF7C8FD01210448FEF7C4FC09B030BDEB
:10326000000C014000080140002C014000B587B06F
:1032700001210846FEF72FF801210420FEF71EF871
:103280000320ADF8000004208DF803006946614872
:10329000FDF7F2FC04A8FEF775FC0020ADF8100065
:1032A0004FF6FF70ADF814000020ADF81600ADF831
:1032B000120004A94FF08040FEF738F900231A46A7
:1032C00003214FF08040FEF740FD01A8FEF76DFCA2
:1032D0000A20ADF80C0001A94007FEF7BAFB012156
:1032E0008807FEF745FF012211469007FEF795FC7F
:1032F00000214FF08040FEF709FF01218807FEF70B
:1033000071FC07B000BD00B587B001210420FDF7B6
:10331000E2FF01210820FDF7D1FFC020ADF8000039
:1033200004208DF8030069463B48FDF7A5FC04A87E
:10333000FEF728FC0020ADF810004FF6FF70ADF846
:1033400014000020ADF81600ADF8120004A93348AF
:10335000FEF7ECF800231A4603213048FEF7F5FC8F
:1033600001A8FEF722FC0A20ADF80C0001A92B48A9
:10337000FEF76FFB01212948FEF7FAFE01221146F4
:103380002648FEF74AFC00212448FEF7BFFE012133
:103390002248FEF727FC07B000BD0146022904D0F1
:1033A00003290BD0042919D10FE04FF08042928CF1
:1033B00010B200224FF080439A8411E0184A12881C
:1033C00010B20022164B1A800AE0144A24321288E6
:1033D00010B20022114B24331A8001E0002000BFFC
:1033E00000BF70470D48103000880C48103000882E
:1033F00020F0010009491031088070474FF08040EB
:10340000008A4FF08040008A20F001004FF0804198
:103410000882704700080140000C0140000800408D
:103420002404004008B501210820FDF747FF4FF4B0
:103430004070ADF8000010208DF8030003208DF8D7
:1034400002006946F748FDF717FC08BD10B5F548BE
:10345000001D006820F0F000F249091D08600846D0
:10346000006840F0300008600120EF490860EF4834
:10347000D0F8240108B9002010BD0120EA49091F35
:103480000860FFF7AAF80020E849C1F8A401E6485F
:103490008038006808B10020EEE70120FFF79DF8B2
:1034A0000020E149091F08600120E5E710B5DD486B
:1034B000001D006820F0F000DA49091D0860084688
:1034C000006840F0300008600020D749091F0860FC
:1034D000D649C1F8A4010120FFF77FF80120D249A5
:1034E000091F0860D149C1F8A401FFF776F810BDA3
:1034F00010B50024CB48001D006820F0F000C94939
:10350000091D08600846006840F08000086001203E
:10351000C5490860FFF761F80120C449C1F8A0015E
:10352000FFF75BF80AE0601CC4B2322C03DDFFF742
:10353000BDFF002010BD0120FFF74FF8BA488038CA
:1035400000680028EFD1B849091F08600120F1E7A1
:1035500010B50020B449091F0860B248001D00687A
:1035600020F0F000AF49091D08600846006840F0EF
:10357000300008600020AD49C1F8A4010120FFF728
:103580002CF80120A849091F0860FFF726F8002041
:10359000A649C1F8A00110BD10B50020A249091F1D
:1035A0000860A048001D006820F0F0009D49091D3A
:1035B00008600846006840F03000086001209B4920
:1035C000C1F8A401FFF709F801209749091F086015
:1035D000FFF703F800209549C1F8A00110BD70B5B0
:1035E00004469048001D006820F0F0008D49091D38
:1035F00008600846006840F03000086000208A49F2
:10360000091F0860002516E0E00987490860600688
:10361000040E0120FEF7E1FF01208449C1F8A0015A
:10362000FEF7DBFF00208049091F08600120FEF73C
:10363000D4FF681CC5B2082DE6DB70BD2DE9F04152
:1036400005460E4617469846FFF700FF10B90120C1
:10365000BDE8F0816906080EFFF7C1FFFFF748FFDC
:1036600018B9FFF723FF0120F2E73046FFF7B7FF55
:10367000FFF73EFF00240BE018F80400FFF7AFFF50
:10368000FFF736FF18B9FFF711FF0020E0E7641CD1
:10369000BC42F1DBFFF70AFF0020D9E770B5054611
:1036A00000246048001D006820F0F0005D49091DFD
:1036B00008600846006840F080000860002617E0B7
:1036C00000205949091F08600220FEF786FF0120EB
:1036D0005649C1F8A0016006040E534880380068BE
:1036E00008B1601CC4B20220FEF777FF701CC6B29E
:1036F000082EE5DB15B1FFF72BFF01E0FFF74CFFCC
:10370000204670BD2DE9F04106460F4614461D4681
:10371000FFF79CFE10B90120BDE8F0817106080E8C
:10372000FFF75DFFFFF7E4FE18B9FFF7BFFE0120CA
:10373000F2E73846FFF753FFFFF7DAFEFFF786FEA2
:10374000012101EB4601C8B2FFF749FFFFF7D0FEA8
:103750000DE0012C04D10020FFF7A0FF287003E04A
:103760000120FFF79BFF28706D1C601EC4B2002C67
:10377000EFD1FFF79BFE0020CEE770B505460E4661
:103780000024FFF763FE2846FFF729FF641CFFF7BC
:10379000AFFE3046FFF723FF641CFFF7A9FEFFF7DB
:1037A00055FE691CC8B2FFF71AFF641CFFF7A0FEA4
:1037B0000020FFF773FF0446FFF778FE204670BD38
:1037C0002DE9F0410746884615461E460024FFF7BE
:1037D0003DFE3846FFF703FFFFF78AFE4046FFF73E
:1037E000FEFEFFF785FEFFF731FE791CC8B2FFF73A
:1037F000F6FEFFF77DFE00BF0DE0681EA04204D07C
:103800000120FFF74BFF305503E00020FFF746FF94
:103810003055601CC4B2AC42EFDBFFF747FE2046D8
:10382000BDE8F081000C0140A481214200802142CA
:103830002DE9F04180460D4616461F460024FFF74D
:1038400005FE4046FFF7CBFEFFF752FE2846FFF786
:10385000C6FEFFF74DFE00BF06E0385DFFF7BFFE76
:10386000FFF746FE601CC4B2B442F6DBFFF71EFE53
:103870000120BDE8F08170B505460E46144631467C
:103880002846FFF77AFF2070012070BD37B5044647
:103890000D4602AB012229462046FFF7C9FF3EBD77
:1038A0002DE9F8430746884614461D46089E6A4699
:1038B00041463846FFF7DFFF28B3601CFF2101FABD
:1038C00000F0C4F108012944491EFF220A411043B7
:1038D00000F0FF09C5F1080006FA00F0C6B2C4F115
:1038E000070006419DF8000000EA090000909DF8DD
:1038F0000000304300909DF8002041463846FFF715
:10390000C5FFBDE8F8830020FBE7F8B506460F4683
:1039100014461D466A4639463046FFF7ACFF2DB1C6
:103920000120A0409DF80010084305E00120A040C0
:103930009DF8001021EA0000C0B200909DF8002020
:1039400039463046FFF7A2FFF8BD000010B586B03B
:10395000044601210820FDF7B1FC01218804FDF790
:10396000BAFC4FF48060ADF8140003208DF8160007
:1039700018208DF8170005A99148FDF77DF94FF43F
:103980000060ADF8140004208DF8170005A98C48DC
:10399000FDF772F927208DF8000000208DF8010056
:1039A00001208DF802008DF803006846FCF783FDC6
:1039B00001940020ADF80800ADF80A00ADF80C0045
:1039C000ADF810000C20ADF80E0001A97D48FEF7FF
:1039D0002AFC012240F225517A48FEF7BCFC012165
:1039E0007848FEF7ACFC06B010BD2DE9FF5F40F251
:1039F00025517448FEF794FD00287DD07148FEF7EC
:103A00000FFD7149086008460078704908706E48DB
:103A10000068102809D101206D49087000206D4907
:103A200008706D4908706D49087067480068112872
:103A30000BD101206A49087000206549087065496A
:103A4000087065490870654908705F480068122869
:103A50000CD10020624908705D49087001205D4961
:103A6000087000205C4908705C490870574800786D
:103A70007B2802D101205B490870544800787D28DA
:103A800002D10220574908705648007801280AD10F
:103A90004E4800785449554A127888545348007863
:103AA000401C524908704F480078022824D14E48E3
:103AB000C078502803D101204D49087071E04A4870
:103AC000407823286DD0494800784A49087036E08C
:103AD00046490978474A1278881A06F0AEFC8046B3
:103AE00042460B460020444905F030FD04460D4691
:103AF00040490978491E00E060E03B4A515CA1F171
:103B0000300006F09AFC064622462B4606F0FCFCE6
:103B100082468B463948006807F006F852465B46F5
:103B2000CDE9000106F046FACDE9020106F010FAEF
:103B3000324908602F480078401E2E4908702D48F1
:103B400000780428C4DA284840783038092827D279
:103B5000DFE800F0050A0F14191E2324250027486A
:103B60000068274908601BE0244800682549086070
:103B700016E0224800682449086011E01F480068E8
:103B8000224908600CE01D4800682149086007E0F0
:103B90001A4800681F49086002E001E000E000BF29
:103BA00000BF00200F4908701049087011490870C3
:103BB0001249086032210C4804F0AAFFBDE8FF9FBB
:103BC000000C0140004800409C00002098000020AC
:103BD000150000201600002017000020180000200B
:103BE0001A000020A0000020B0060020A100002044
:103BF00046000020A200002000002440A400002075
:103C00005000002054000020580000205C000020DC
:103C100060000020640000201FB501210846FDF768
:103C20004DFB01210420FDF749FB4FF48050ADF816
:103C30000C0048208DF80F0003A91248FDF71CF86E
:103C40000C210020FDF72EF94FF480500190002048
:103C50008DF808000C208DF8090001208DF80A006D
:103C600001A8FCF729FF28208DF8000002208DF81C
:103C7000010001208DF802008DF803006846FCF772
:103C80001AFC1FBD000801400146002901DA484224
:103C900000E00846704700B503460A46002B07DDE2
:103CA0000120FE4908600020FD49C1F8B00106E08E
:103CB0000020FA4908600120F949C1F8B00118460E
:103CC000FFF7E2FFF7490880002A08DD0120F349E9
:103CD000083108600020F249C1F8B80107E000206F
:103CE000EE49083108600120ED49C1F8B8011046DD
:103CF000FFF7CAFFEB490C39088000BD2DE9F047FA
:103D000004460D46281BE84908600846006807F08D
:103D1000D7F88146E5484168484607F031F907463B
:103D2000E2490968E04A1268E14B1B68D21AE14B8C
:103D30001B6801FB023007F0C3F88046394606F0E5
:103D40001FFF064607F080F8DA490860D648006889
:103D5000D7490860D748006841F66411884202DDFF
:103D60000846D4490860D3480068D349884202DA3B
:103D70000846D0490860CF480068BDE8F0872DE9C3
:103D8000F04704460D46281BCC49086008460068E9
:103D900007F096F88146C5484168484607F0F0F8B4
:103DA0000746C2490968C54A1268C54B1B68D21A42
:103DB000C44B1B6801FB023007F082F8804639468D
:103DC00006F0DEFE064607F03FF8BE490860BB4835
:103DD0000068BB490860BB48006841F6641188422E
:103DE00002DD0846B7490860B6480068B249884213
:103DF00002DA0846B3490860B2480068BDE8F087B7
:103E000010B501460846B04A1060B0480068126814
:103E10005043AF4A12685043AD4A9268AA4B1B68A0
:103E2000AC4C24681B1B02FB0300AB4A1060A64885
:103E30000068A84A1060A848006810BD70B532201C
:103E4000FEF74AFE0546012D07D1A448007808B9BF
:103E5000012000E00020A1490870FEF7ACFE0446F6
:103E6000012C07D19E48007808B9012000E000200D
:103E70009B49087070BD2DE9F04F8DB0804604F06D
:103E800070FC98490860B8F1010F1BD104F051FB98
:103E900095480068954908609549B1F9000007F018
:103EA0000FF8944908609249B1F9040007F008F846
:103EB000914908609149B1F9040007F001F890496F
:103EC000086070E14421D020FFF757FC834643216E
:103ED000D020FFF752FC0BEB0020099006F0F0FF1A
:103EE00004464621D020FFF748FC83464521D020D8
:103EF000FFF743FC0BEB0020099006F0E1FF0746BB
:103F00004821D020FFF739FC83464721D020FFF716
:103F100034FC0BEB0020099006F0D2FF06463C2152
:103F2000D020FFF72AFC83463B21D020FFF725FC59
:103F30000BEB0020099006F0C3FF82463E21D02003
:103F4000FFF71BFC83463D21D020FFF716FC0BEB4F
:103F50000020099006F0B4FF81464021D020FFF7F1
:103F60000CFC83463F21D020FFF707FC0BEB002021
:103F7000099006F0A5FF05464FF08E41204607F058
:103F8000CBF805D24FF08F41204607F001F90446E7
:103F90004FF08E41384607F0BFF805D24FF08F4101
:103FA000384607F0F5F807464FF08E41304607F0E7
:103FB000B3F805D24FF08F41304607F0E9F80646D6
:103FC0004FF08E41504607F0A7F805D24FF08F41D1
:103FD000504607F0DDF882464FF08E41484607F024
:103FE0009BF805D24FF08F41484607F0D1F8814643
:103FF0004FF08E41284607F08FF805D24FF08F41E1
:10400000284607F0C5F8054684F0004039490860A5
:10401000284606F089FDCDE90201484606F084FDF8
:10402000CDE90001DDE9022305F0D0F90022354B8E
:10403000CDE9040106F068FA334A344BCDE90601B4
:1040400006F074F8CDE9080105F082FF0B902846D0
:1040500006F06AFDCDE90201504606F065FDCDE9A6
:104060000001DDE9022305F0B1F90022254BCDE97D
:10407000040106F049FA244A244BCDE9060106F072
:1040800055F8CDE9080105F063FF0A90204606F0D7
:104090004BFD4FF066321E4B3CE00000B4812142E4
:1040A00000802142402C014070010020B00000201F
:1040B0006C010020680100209CE6FFFF64010020E5
:1040C000600100205C01002098010020A001002078
:1040D000D40000209C010020940100201A00002040
:1040E0001B0000202800002088020020340000204F
:1040F00074020020380000203C0000207A020020DA
:104100004C00002000806640F1D4C853FB210940D8
:1041100066663040CDE9060106F008F8CDE90801F1
:1041200005F016FF0446384606F0FEFC4FF06632F6
:10413000F94BCDE9060105F0F9FFCDE9080105F0DD
:1041400007FF0746F5480078022810D121460B9852
:1041500000F0D8FE80F00040F149086039460A9826
:1041600001F010F880F00040EE49086013E0EB48E1
:10417000007803280FD121460B9800F0DAFF80F079
:104180000040E749086039460A9801F04FF980F08D
:104190000040E4490860E2480068E3490860E348F9
:1041A0000660E34805600DB0BDE8F08F10B5E1484A
:1041B000006800287DD14FF48050DF490860DF4857
:1041C000007808B9012000E00020DC490870D348DD
:1041D0000078FFF750FE0220FFF7DFF84042D84991
:1041E00008600420FFF7D9F84042D6490860D64855
:1041F000007801280BD1D5480078401CC0B2D349C3
:1042000008700A2803D100200870CF490870D048F0
:104210000068CB49096849420844CD490860CD4847
:104220000068C849096849420844CA490860BF484B
:10423000006806F009FE502190FBF1F0C6490968BC
:104240000844C5490860FFF7F9FDC449C44800683F
:1042500006F096FCC2490860C248007850BB084688
:10426000006806F0F1FD0446FFF7CAFDBE4908608C
:104270000A21B3480068FFF782FDBC4908600A21A3
:10428000B0480068FFF73AFDB9490860B7480068D0
:10429000B54909680844B7490860B5480068B2499B
:1042A0000968401AB449086008460168B1480068C6
:1042B00001E00AE001E0FFF7EEFCAA4800780128DF
:1042C00003D100210846FFF7E6FC002010BD2DE9D0
:1042D000F05F04460D46601BA8490860A8480068C6
:1042E00009680844A649086008460068A54988424C
:1042F00003DD42F21070A2490860A1480068A1499C
:104300004942884202DAA0489D4908609F4989686D
:104310009A4A12689E4B1B68D21A01FB02F006F003
:10432000CFFD81469648006806F0CAFD834697484F
:104330004168584606F024FE8046944909688F4A31
:10434000126801FB02F006F0BBFD8246414606F012
:1043500017FC0746494606F013FC064606F074FDB6
:104360008C49086085480068894908608948006868
:10437000BDE8F09F2DE9F05F04460D46601B8649BD
:10438000086086480068096808448449086008464F
:1043900000687C49884203DD42F210707F49086062
:1043A0007E48006877494942884202DA76487B496C
:1043B000086076498968784A1268794B1B68D21A76
:1043C00001FB02F006F07CFD81467448006806F0AF
:1043D00077FD83466D484168584606F0D1FD80461A
:1043E0006A4909686C4A126801FB02F006F068FD30
:1043F0008246414606F0C4FB0746494606F0C0FB2C
:10440000064606F021FD6749086063480068644974
:10441000086064480068BDE8F09F10B50246514B43
:104420001B78012B03D040F2564399420DDA01204C
:1044300000235D4C23605D4CC4F8BC315A4C241FF2
:1044400023605A4CC4F8B03100E0002010BD2DE9C3
:10445000F04107460E4614461D4655480088E0B90F
:104460002046FFF711FC02462846FFF70DFC1044DA
:104470001E2805DA4F480088401C4E49088002E09B
:1044800000204C4908804B4800880A2805DD01209F
:10449000474908800020474908804548008801288E
:1044A0001ED145480088401C80B243490880C82876
:1044B00003DD002008803E4908804049384606F068
:1044C0002BFE0DD23E49304606F026FE08D24FF0B4
:1044D0008341304606F020FD02D202203449088094
:1044E0003348008802286FD136480088401C80B2CB
:1044F00034490880642803DD002008802C490880A6
:104500006019FFF7C1FB46285EDD002028490880BE
:104510000120BDE8F08157E06666304014000020BD
:104520008802002084020020340000203C0000208B
:104530004C000020300121421404014054010020AD
:10454000080100200C01002045000020440000204C
:104550001001002014010020F80000200000D041CC
:104560008C0200201A00002004010020FC00002022
:104570000001002020000020240000207401002001
:104580007C010020A0860100F0D8FFFFBC000020C5
:104590008001002078010020840100208C0100208F
:1045A0009001002088010020B88121420080214232
:1045B000A4010020A6010020A80100200020CB4675
:1045C0000000C0C1AA0100200020BDE8F08170B544
:1045D00006460C4615468948007808B9002070BD8B
:1045E0008748008870B98749304606F095FD09D2A2
:1045F0008549304606F090FC04D21CB915B901205B
:104600007F4908807E480088012819D17F480088AA
:10461000401C80B27D490880322803DD00200880DC
:1046200077490880032C0BDD032D09DD282C07DAE0
:10463000282D05DA00207249088008800120CEE785
:104640000020CCE700B502460B466C48007810B954
:1046500000206F4908606948007801283DD10A2A86
:104660003BDA1846FFF710FB6949096808446849B6
:10467000086008460068062808DD08460068B42877
:1046800004DA0020634908706349087060480068D4
:10469000B4280ADD5E480068B0F5B47F05DA012071
:1046A0005D49087000205B49087059480068B0F502
:1046B000B47F0ADD56480068B0F5077F05DA0020B0
:1046C0005549087001205349087051480068B0F5F9
:1046D000077F02DD00204E49086000BD4F4800689A
:1046E000002856D04E48006848B94D48001D006863
:1046F00028B900204B49086001204B490870484800
:104700000068012809D14648001D006828B9282002
:10471000444908600120444908704148006858B97C
:104720003F48001D0068012806D16FF027003D4971
:10473000086001203C49087039480068012811D1FF
:104740003748001D006801280CD13848006848B976
:104750000020374908603149086001203549086068
:10476000354908602E480068012812D12C48001DE8
:10477000006801280DD12D480068012809D10020CA
:104780002B4908602549086001202A4908602B4907
:1047900008602848006878B329480068401C284908
:1047A000086002202049087023480068012801D1D0
:1047B0002449086021480068012801D12249086085
:1047C00022480068012801D1214908601C4800687E
:1047D000B0F5C87F10DD0020164908601649086052
:1047E00016490860194908601149086001200B4901
:1047F0000860002012490860704700001A0000207D
:10480000AC010020000060C10000C040AE010020EB
:10481000B001002047000020480000203C0100209B
:10482000008121422C0000201C00002008012142B0
:10483000F800002018010020300100203401002081
:10484000B4010020240100202801002038010020AC
:104850002C01002038B5FBA200210846FEF737FBEB
:10486000FA480068002804DAF9A200213020FEF797
:104870002EFBF6480068002804DBF6A20021302059
:10488000FEF725FBF1480068FFF7FEF904460C200F
:1048900005232246002100903820FEF7CEFAEEA232
:1048A0000A210020FEF713FB0021ED48006806F006
:1048B00033FB04D2E6A20A213020FEF708FB0021D8
:1048C000E748006806F028FC04D8E2A20A2130205C
:1048D000FEF7FDFAE248006806F0B6FA0546FFF773
:1048E000D3F904460C20032322460A2100903820E5
:1048F000FEF7A3FADBA214210020FEF7E8FA00215C
:10490000DA48006806F008FB04D2D1A214212D2059
:10491000FEF7DDFA0021D548006806F0FDFB04D85B
:10492000CCA214212D20FEF7D2FAD048006806F060
:104930008BFA0546FFF7A8F904460C20042322460B
:10494000142100903720FEF778FAC9A21E2100201A
:10495000FEF7BDFAC7480068002811DABCA21E2184
:104960001020FEF7B4FAC3480068FFF78DF904463B
:104970000C20042322461E2100901A20FEF75DFA27
:10498000BC480068002811DBB2A21E211020FEF7EF
:104990009EFAB8480068FFF777F904460C20042314
:1049A00022461E2100901A20FEF747FAB2480068FE
:1049B000002804DAA6A21E213C20FEF788FAAE48A1
:1049C0000068002804DBA3A21E213C20FEF77FFA2A
:1049D000A9480068FFF758F904460C200423224632
:1049E0001E2100904420FEF728FAA4A21E21602078
:1049F000FEF76DFAA2A228210020FEF768FAA1486E
:104A00000068002811DA92A228211020FEF75FFA30
:104A10009D480068FFF738F904460C20042322461D
:104A2000282100901A20FEF708FA9648006800280E
:104A300011DB88A228211020FEF749FA924800686D
:104A4000FFF722F904460C20042322462821009077
:104A50001A20FEF7F2F98C480068002804DA7CA2DC
:104A600028213C20FEF733FA87480068002804DB41
:104A700078A228213C20FEF72AFA83480068FFF735
:104A800003F904460C2004232246282100904420E8
:104A9000FEF7D3F979A228216020FEF718FA7BA24D
:104AA00032210020FEF713FA00217948006806F051
:104AB00033FA04D266A232212A20FEF708FA002136
:104AC0007348006806F028FB04D862A232212A202D
:104AD000FEF7FDF96E48006806F0B6F90546FFF7E7
:104AE000D3F804460C2005232246322100902F20C3
:104AF000FEF7A3F96748007820B967A23221592050
:104B0000FEF7E5F96348007820B164A2322159200C
:104B1000FEF7DDF9FEF7B1F838BD2DE9F04F87B0AB
:104B20005F480068A0F256404000032190FBF1FA74
:104B3000BAF1000F01DA4FF0000ABAF1640F01DD9B
:104B40004FF0640A5748006805F0EEFF0546564AE4
:104B5000564B05F0D9FC074605F040FC8146B9F1FB
:104B6000000F01DAC9F100095148006805F0DCFFC7
:104B700007464D4A4D4B05F0C7FC054605F02EFC97
:104B80000446002C00DA64424A48007808B9012043
:104B900000E00020474908704748007801282ED1DE
:104BA0004648006806F050F905464548006806F09A
:104BB0004BF906464348006806F046F90746424866
:104BC000006806F041F980464048006806F03CF96C
:104BD00083463F48006806F037F906900020CDE98B
:104BE0000250049043465A46CDE90076059039A01C
:104BF000069903F0DDFE00202F49087089E02D485A
:104C0000007860B91648006806F01EF9054653465C
:104C10004A462146009037A003F0CAFE79E01C48BE
:104C2000006806F011F905463648006806F00CF9F0
:104C300006463548006806F007F907462B46324617
:104C4000394663E06475737500000000F8000020C9
:104C50002D0000002B000000416E676C6500000015
:104C60003400002047725F5A000000003C00002022
:104C70004C0000001001002008010020202000004E
:104C800052000000240000200C0100205961770030
:104C90008C0200201A0000204F4646004F4E200094
:104CA00030000020BC0100209A9999999999F13F10
:104CB000B8010020C0010020460000206400002050
:104CC000600000205C0000205800002054000020FC
:104CD000500000207B4325643A25643A25643A2538
:104CE000643A25643A25643A25643A25643A256491
:104CF0007D2400007B4125643A25643A25643A25E9
:104D0000647D240084020020880200201EA003F09D
:104D10004FFE07B0BDE8F08F2DE9F0411E48006856
:104D200006F0CEF807461D4905F098FF054601211B
:104D30001B48006800F04AF81A4800680A21B0FBD6
:104D4000F1F8404606F0D4F80746022100F03EF89C
:104D50000321284600F03AF8032000F086F80646C2
:104D600000240DE000BF1048008800F0400000283B
:104D7000F9D00E48005D0C49091D0880601CC4B2C2
:104D8000B442EFDBBDE8F0817B4225643A25643A0A
:104D900025647D2400000000300000200000C8428F
:104DA000340000204000002000380140E2060020CE
:104DB00030B503461C788C545D78541C0D559D7895
:104DC000941C0D55DD78D41C0D5530BD13B50C4623
:104DD0000A2C00DC04B91CBD0B2C43D2DFE804F024
:104DE00042060C12181E242A30363C000122444987
:104DF0006846FFF7DDFF35E0052241496846FFF7C9
:104E0000D7FF2FE009223E496846FFF7D1FF29E08E
:104E10000D223B496846FFF7CBFF23E011223849BA
:104E20006846FFF7C5FF1DE0152235496846FFF7C4
:104E3000BFFF17E0192232496846FFF7B9FF11E0BA
:104E40001D222F496846FFF7B3FF0BE021222C49B2
:104E50006846FFF7ADFF05E0252229496846FFF7C0
:104E6000A7FF00BF00BF00BFB5E701460A2900DC6D
:104E700009B9002070472420214A10700B293CD228
:104E8000DFE801F03B060B10151A1F24292F35000F
:104E900005201B4A50710620ECE70920184A507281
:104EA0000A20E7E70D20164A50730E20E2E7112092
:104EB000134A50741220DDE71520114A5075162050
:104EC000D8E719200E4A50761A20D3E71D200C4A45
:104ED00050771E20CEE72120094A82F821002220A7
:104EE000C8E72520064A82F825002620C2E72920A7
:104EF000034A82F829002A20BCE70020BAE7000014
:104F0000E20600202DE9F05F05460C46FD4EFE4FFF
:104F10004FF07C584FF00109FC480168204606F02C
:104F200037F98346FA480168584606F029F8824660
:104F3000F8480168504605F023FEF6490860F64837
:104F40004168304606F024F98246F34881685046AD
:104F500006F01EF9F1490860EF48C06880F0004093
:104F60004860ED48C06880F0004088600846C7602F
:104F70000868E749096806F003F88246E6480168D0
:104F8000504605F0FDFDE4490860E4494868E04901
:104F9000096805F0F5FF8246DF484168504605F094
:104FA000EFFDDD494860DD498868D949096805F0A9
:104FB000E7FF8246D8488168504605F0E1FDD649B2
:104FC0008860D649C868D249096805F0D9FF824689
:104FD000D148C168504605F0D3FDCF49C860CD48DF
:104FE0000168284606F0D4F8CD490860484605F027
:104FF0007FFF8246C8480168504605F0C1FFC94995
:105000000860484605F074FF8246C34881685046F0
:1050100005F0B6FFC4490860484605F069FF8346BD
:10502000C0480168584605F0ABFF8246414605F08E
:10503000A7FDBE49086008460168BA48006805F047
:105040000DFEBB490860B9480168B748006805F023
:1050500005FEB8490860B3480068B749086048468B
:1050600005F046FF8246AC484168504605F088FF8F
:10507000B2490860B0480168AD48006805F080FF9B
:105080008246A5480168504606F077F8A2490860B4
:10509000AA480168A648006805F072FF82469E484B
:1050A0004168504606F069F89B494860A24801688B
:1050B000A048006805F064FF824697488168504622
:1050C00006F05BF8944988609C480168994800683C
:1050D00005F056FF82469048C168504606F04DF8EC
:1050E0008D49C8608E4801689148006805F048FF06
:1050F000824688480168504605F042FD85490860AF
:10510000874801688B48006805F03AFF82467F486F
:105110000168504605F034FD7C4908600846016886
:10512000204606F035F8864908607A480068BDE8F0
:10513000F09F2DE9F05F05460C46824E74480168E9
:10514000204605F01DFF83467F480168584605F05C
:1051500017FD804631464FF07E5006F019F8824622
:10516000414605F00DFF07463146284605F008FF89
:105170008146394605F004FD734908600846006819
:10518000BDE8F09F2DE9F05F05460C465D4E5E4F91
:105190004FF07C584FF001096C480168204605F03B
:1051A000F7FF83465A480168584605F0E9FE8246F3
:1051B00067480168504605F0E3FC654908606548AA
:1051C0004168304605F0E4FF8246624881685046F7
:1051D00005F0DEFF604908605E48C06880F000406E
:1051E00048605C48C06880F0004088600846C7603E
:1051F00008684749096805F0C3FE824655480168BA
:10520000504605F0BDFC5349086053494868404981
:10521000096805F0B5FE82464E484168504605F0E3
:10522000AFFC4C4948604C4988683949096805F029
:10523000A7FE824647488168504605F0A1FC4549D3
:1052400088604549C8683249096805F099FE824678
:105250004048C168504605F093FC3E49C8603C4850
:105260000168284605F094FF3C490860484605F06F
:105270003FFE824637480168504605F081FE3849B6
:105280000860484605F034FE824632488168504640
:1052900005F076FE33490860484605F029FE83464E
:1052A0002F480168584605F06BFE8246414605F0DE
:1052B00067FC2D490860084601682948006805F028
:1052C000CDFC2A490860284801682648006805F096
:1052D000C5FC2749086022480068264908604846FE
:1052E00005F006FE82461B484168504605F048FE20
:1052F000214908601F4801681C48006805F040FE0D
:1053000082463BE06F12833AA69B443BD0010020CB
:10531000C4010020CC010020F40100200C07002073
:10532000D4010020D8010020DC010020E001002091
:10533000E4010020E8010020EC010020F001002041
:10534000C80100200AD7A33C04020020100200205C
:105350000C020020340200201C0700201402002050
:10536000180200201C02002020020020240200203D
:10537000280200202C020020300200204048016852
:10538000504605F0FAFE3E4908603E4801683E4836
:10539000006805F0F5FD824639484168504605F041
:1053A000ECFE37494860394801683948006805F023
:1053B000E7FD824632488168504605F0DEFE3049FE
:1053C0008860304801683248006805F0D9FD82469F
:1053D0002B48C168504605F0D0FE2949C8602D48C9
:1053E00001682948006805F0CBFD82462A4801681B
:1053F000504605F0C5FB2849086026480168244846
:10540000006805F0BDFD824624480168504605F05D
:10541000B7FB2249086008460168204605F0B8FE3F
:105420001F4908601C480068BDE8F09F2DE9F05F47
:1054300005460C461B4E1C480168204605F0A0FDA1
:1054400083461A480168584605F09AFB8046314663
:105450004FF07E5005F09CFE8246414605F090FDDF
:1054600007463146284605F08BFD8146394605F052
:1054700087FB0E49086008460068BDE8F09F000001
:105480003402002030020020240200202C020020E0
:1054900028020020140200200C020020100200202C
:1054A000080200200AD7A33CC401002044020020C7
:1054B00038B50446FB4890F82400C0B114B102206E
:1054C000009001E000200090F64A1268D17BF54A76
:1054D000526810786B460122FEF7B0F810B14FF019
:1054E000FF3038BD9DF80010EE48417423E0ED48D0
:1054F000807A10B94FF0FF30F3E724B1E948407CDF
:1055000008B10020EDE714B10120009001E0002077
:105510000090E44A1268D17BE24A526810786B46E8
:105520000122FEF78BF810B14FF0FF30D9E79DF85C
:105530000010DC4841740020D3E738B5002419E09E
:10554000D8480068C07AA04204D0D6480068407DA0
:10555000A04200D10CE0D349496808786B4601228B
:105560002146FEF7CFF810B14FF0FF3038BD00BF35
:10557000601CC4B2CB4840680079A042E0DC002047
:10558000F4E770B504460D46C6480068C07AA042EC
:1055900004D0C4480068407DA04202D14FF0FF30E3
:1055A00070BDC04840680079A04202DC4FF0FF3077
:1055B000F6E7BC49496808782B4601222146FEF7E8
:1055C000A1F8EDE738B50446B64890F82300A042AC
:1055D00001D1002038BD14B13020009001E000203E
:1055E0000090B048807C20B19DF8000040F002009F
:1055F0000090AC4890F8220020B19DF8000040F0E7
:1056000080000090A74A1268117DA64A526810785F
:105610006B460122FEF712F810B14FF0FF30D9E7C8
:10562000A04880F823400020D4E738B5044604F0B1
:10563000700010B10120009005E014B1002000902E
:1056400001E040200090974A1268917C954A526888
:1056500010786B460122FDF7F1FF20B1002191483F
:105660008172481E38BD9DF8000020F040018D4831
:1056700001730020009004F0400020B99DF8000064
:1056800040F00400009004F0200020B99DF80000D4
:1056900040F00200009004F0100020B99DF80000D6
:1056A00040F00100009004F0080020B99DF80000CF
:1056B00040F0380000907B4A1268D17C794A5268E9
:1056C00010786B460122FDF7B9FF20B10021754823
:1056D0008172481EC6E724B1082C02D00020FFF7D3
:1056E00071FF70488472002101753220FCF799FF28
:1056F0000020B7E738B504466A48807CA04201D153
:10570000002038BD002C46D0664A12681179654ADF
:10571000526810786B460122FDF7F4FF10B14FF08C
:10572000FF30EEE79DF8000020F0200000905D4A79
:10573000126811795B4A526810786B460122FDF7B6
:105740007DFF10B14FF0FF30DBE70320FCF769FF6E
:1057500002200090534890F8220020B19DF80000EC
:1057600040F0800000904F4890F8230020B19DF851
:10577000000040F0300000904A4A1268117D494A0A
:10578000526810786B460122FDF758FF002851D06F
:105790004FF0FF30B5E7434A12681179414A526829
:1057A00010786B460122FDF7ADFF10B14FF0FF30CE
:1057B000A7E73C48807A00F0010028B19DF800007E
:1057C00040F02000009004E09DF8000020F0200050
:1057D0000090344A12681179324A526810786B4648
:1057E0000122FDF72BFF10B14FF0FF3089E70320B6
:1057F000FCF717FF2B4890F8220010B18020009092
:1058000001E000200090274890F8230020B19DF887
:10581000000040F030000090224A1268117D214AB9
:10582000526810786B460122FDF708FF10B14FF067
:10583000FF3066E71B488474002062E708B519480A
:10584000807A10B94FF0FF3008BD00200090154A53
:105850001268D17B134A526810786B460122FDF71B
:10586000EDFE10B14FF0FF30EEE70E4A12685179AD
:105870000C4A526810786B460122FDF7DFFE10B12A
:105880004FF0FF30E0E7074A12681179054A526885
:1058900010786B460122FDF7D1FE28B14FF0FF30A2
:1058A000D2E7000048020020F74890F824000028C2
:1058B00050D00C200090F44A12681179F24A5268D4
:1058C00010786B460122FDF7B9FE10B14FF0FF30A2
:1058D000BAE7C0200090EC48807A00F0010020B1C7
:1058E0009DF8000040F020000090E74A126811790E
:1058F000E54A526810786B460122FDF79FFE10B111
:105900004FF0FF30A0E7E048407C10B1022000904B
:1059100001E000200090DC4A1268D17BDA4A52682C
:1059200010786B460122FDF789FE10B14FF0FF3071
:105930008AE700200090D44A12685179D24A52680E
:1059400010786B460122FDF779FE002852D04FF007
:10595000FF3079E704200090CB4A12681179CA4AD7
:10596000526810786B460122FDF768FE10B14FF0C7
:10597000FF3069E7C448807C20B9C348807A00F0D2
:10598000010010B94020009001E060200090BE4A64
:1059900012681179BC4A526810786B460122FDF7F3
:1059A0004DFE10B14FF0FF304EE7B748407C10B1CC
:1059B0000120009001E000200090B34A1268D17BE2
:1059C000B14A526810786B460122FDF737FE10B1DC
:1059D0004FF0FF3038E7AC4A12685179AA4A526852
:1059E0001078A94B10330122FDF728FE10B14FF0BB
:1059F000FF3029E7002027E770B50446002624F091
:105A00000104A14890F8240008B1002070BD9E4810
:105A1000807A10B94FF0FF30F8E79B48057C807A18
:105A20002040994908740846007CA04202D04FF0FB
:105A3000FF3600E0002614B99348007D18B101201C
:105A4000FFF736FD02E00020FFF732FD3CB1FFF723
:105A5000F5FE20B18C4805744FF0FF30D6E7304694
:105A6000D4E738B504468848807A10B94FF0FF3043
:105A700038BDBC2C02DB0120009015E0622C02DB5B
:105A80000220009010E02A2C02DB032000900BE0A3
:105A9000142C02DB0420009006E00A2C02DB052017
:105AA000009001E0062000907748C07A9DF8001031
:105AB000884201D10020DBE7734A12689178724A6C
:105AC000526810786B460122FDF7B8FD10B14FF017
:105AD000FF30CDE79DF800106B48C1720020C7E78A
