:020000040800F2
:1000000090120020710C00086502000867020008C9
:100010006B0200086F020008730200080000000075
:10002000000000000000000000000000770200084F
:1000300079020008000000007B0200087D02000831
:100040008B0C00088B0C00088B0C00088B0C000834
:100050008B0C00088B0C00088B0C00088B0C000824
:100060008B0C00088B0C00088B0C00088B0C000814
:100070008B0C00088B0C00088B0C00088B0C000804
:100080008B0C00088B0C00088B0C00088B0C0008F4
:10009000350800088B0C00088B0C00088B0C00083E
:1000A0008B0C00088B0C00088B0C00088B0C0008D4
:1000B000EB0400088B0C00088B0C00088B0C00086C
:1000C0008B0C00088B0C00088B0C00088B0C0008B4
:1000D0008B0C0008A13900088B0C0008FD3A0008C1
:1000E0008B0C00088B0C00088B0C00088B0C000894
:1000F0008B0C00088B0C00088B0C00088B0C000884
:100100008B0C00088B0C00088B0C00088B0C000873
:100110008B0C00088B0C00088B0C00088B0C000863
:100120008B0C00088B0C00088B0C00088B0C000853
:100130008B0C00088B0C00088B0C00088B0C000843
:100140008B0C00088B0C00088B0C00088B0C000833
:100150008B0C00088B0C00088B0C0008AF3B0008D0
:100160008B0C00088B0C00088B0C00088B0C000813
:100170008B0C00088B0C00088B0C00088B0C000803
:100180008B0C00088B0C000800F002F800F03CF823
:100190000AA090E8000C82448344AAF10107DA45E2
:1001A00001D100F031F8AFF2090EBAE80F0013F0F8
:1001B000010F18BFFB1A43F001031847FC3B000076
:1001C0001C3C0000103A24BF78C878C1FAD8520706
:1001D00024BF30C830C144BF04680C6070470000C1
:1001E0000023002400250026103A28BF78C1FBD840
:1001F000520728BF30C148BF0B6070471FB503F0DE
:10020000D2FD1FBD10B510BD03F093FD1146FFF7E1
:10021000F5FF00F008F803F0B1FD03B4FFF7F2FFBB
:1002200003BC03F0B9FD08B54FF4A06000F040FD39
:10023000A82003F06DF90020032306220521009079
:1002400000F0EDF900F05EFC4FF4E13003F0E2F96C
:1002500042F2CF01322000F01BF9642003F0BAF91A
:1002600000BFFEE7704700BFFEE700BFFEE700BF2C
:10027000FEE700BFFEE77047704770477047000019
:100280000CB50020019000907648006840F4803062
:100290007449086000BF7348006800F400300090A3
:1002A0000198401C0190009818B90198B0F5A04F32
:1002B000F1D16C48006800F4003010B101200090CA
:1002C00001E0002000900098012846D165484030A8
:1002D000006840F08050634940310860624800681F
:1002E00040F44040604908605E48083000685D495D
:1002F000083108600846006840F40040086008467D
:10030000006840F4A05008605848091F0860081FA2
:10031000006840F08070091F086000BF5148006805
:1003200000F000700028F9D040F2057050490860D4
:100330004C480830006820F003004A490831086042
:100340000846006840F00200086000BF45480830D9
:10035000006800F00C000828F8D10CBD10B5454825
:10036000006840F47000434908603E48006840F06F
:1003700001003C49086000203A49083108603948CA
:1003800000683D490840374908603C48091D08603D
:10039000081F006820F48020091F086000203149F0
:1003A0000C310860FFF76CFF4FF000603149803975
:1003B000086010BD70B50020002202230024022135
:1003C000284D08352D6805F00C0020B1042806D012
:1003D000082834D107E02A4D2A4E356033E02A4DF3
:1003E000284E35602FE01F4D2D1D2D68C5F380541C
:1003F0001C4D2D1D2D6805F03F0154B1224DB5FB5C
:10040000F1F5184E361D3668C6F3881605FB06F260
:1004100009E01B4DB5FBF1F5124E361D3668C6F3EB
:10042000881605FB06F20F4D2D1D2D68C5F30145FD
:100430006D1C6B00B2FBF3F5124E356003E0104DFE
:10044000104E356000BF00BF064D08352D68C5F35E
:1004500003150E4E705D0B4D2D68C540094E35607D
:1004600070BD00000038024000700040062A4004C1
:10047000003C024088ED00E0FFFFF6FE1030002453
:100480000024F40000000020001BB700040000203E
:100490007FB505460C460121084601F0B2FE0295E3
:1004A000ADF804400020ADF80600ADF80C0001A93D
:1004B0004FF0804002F05DF801221146900702F0F3
:1004C000F9FC0121880702F0DDF81C208DF80000FE
:1004D00002208DF8010000208DF8020001208DF827
:1004E0000300684600F0E9FB7FBD10B516480088A0
:1004F0004FF6FE71884202DD002013490880012179
:10050000880702F0EEFC01281DD10121800702F0CE
:10051000F9FC9FED0E0A0E4880ED000A01200C49FF
:1005200091ED000A00F02EFB0A4880ED000A00233E
:100530001A46194690ED000ABDEEC00A10EE100AE8
:1005400000B200F0F2F810BD200000200000964339
:10055000140000201C000020028802810A7BCB7A54
:1005600042EA032202808B7B4A7B43EA022212B2D8
:1005700042800B7CCA7B43EA022212B282804A7C10
:10058000827102880389D21AB2F5805F03DD0269A5
:10059000521E026108E002880389D21A12F5805FB8
:1005A00002DA0269521C02610388026903EB4232DB
:1005B000838AD21AC26070470A7BCB7A42EA03224E
:1005C000028002888282704730B504880589AC4277
:1005D00008DA048804F500540589611B048805893C
:1005E000621B07E00488A4F500540589611B048898
:1005F0000589621B002901DD0C4600E04C42002AFF
:1006000001DD154600E05542AC4201DA0B4600E040
:100610001346C4681C44C4600488048130BD2DE9BD
:10062000F0418AB004460D4616461F46DDF840806C
:100630000121082001F09CFD0121480601F0E1FDA7
:100640000121480601F032FE00214FF0007001F058
:100650002DFE0320089002208DF8240000208DF844
:10066000260003208DF8250001208DF8270008A919
:100670007A4801F0DFFA09220021784801F065FB91
:1006800009220121754801F060FB00208DF81A0055
:1006900001208DF81B0000208DF81C0001208DF832
:1006A0001D0000208DF81E008DF81F008DF81680AB
:1006B0008DF817408DF818608DF81950ADF814704A
:1006C00005A9674800F07DFB00208DF80E008DF82D
:1006D0000F0001208DF810000020ADF80400ADF8E7
:1006E0000600ADF80800ADF80A00ADF80C000120D6
:1006F0008DF8110001A800F0EEFB012202215848FC
:1007000000F0E8FE14208DF8000002208DF80100B2
:1007100000208DF8020001208DF80300684600F0EB
:10072000CCFA00200AB0BDE8F081F0B585B00446EF
:100730000D4616461F464FF40070009000208DF8BD
:1007400008008DF8090008208DF80A00200A8DF8AD
:100750000B00E1B28DF80C10290A8DF80D10E9B2EA
:100760008DF80E10310A8DF80F10F1B28DF81010BF
:10077000390A8DF81110F9B28DF81210694638480F
:1007800000F098FC05B0F0BD10B504462068A0F25A
:10079000012008284BD2DFE800F00405060708090D
:1007A0000A0B00BF00BF00BF00BF00BF00BF00BFFB
:1007B0002078401E2B49087008460078C0EBC00026
:1007C000294901EB8000816926480078C0EBC00010
:1007D000254A02EB80008069401C224A1278C2EB55
:1007E000C202214B03EB8202906132290AD81D49D3
:1007F0000978C1EBC1011A4602EB81002146FFF7DF
:10080000DBFE09E017490978C1EBC101164A02EB8A
:1008100081002146FFF7A0FE12490978C1EBC10112
:10082000114A02EB81002146FFF796FE00E000BF6F
:1008300000BF10BD10B50221094800F0B3FE58B149
:100840000221074800F049FF084A0021044800F04F
:1008500026FD0648FFF798FF10BD0000000C02407F
:100860000064004022000020CC000020AC010020E9
:1008700000B102B97047017092ED001A80ED011AC3
:1008800092ED011A80ED021A92ED021A80ED031A20
:1008900080ED040AC0ED050A9FED991A80ED0E1A4D
:1008A00080ED0D1A80ED0C1A9FED951A80ED081A57
:1008B00080ED0B1A80ED0A1A80ED091A80ED111AED
:1008C00080ED101A80ED0F1A00BFD3E7B0EE401A8A
:1008D00010B99FED8B0A704790ED100A80ED110A58
:1008E00090ED0F0A80ED100AC0ED060A80ED071AA0
:1008F00030EEC10A80ED0F0A0178002975D190ED24
:10090000010AD0ED0F1A20EE210A80ED090A90EDC0
:100910000A0AD0ED021A90ED0F2A01EE820A80ED4C
:100920000A0A90ED0D0A80ED0E0A90ED0C0A80ED9A
:100930000D0A90ED0F0AD0ED101A30EE610A80ED2D
:100940000C0A90ED030AD0ED0C1A20EE210A80ED7E
:100950000B0A90ED0A0AD0ED051AB4EEE10AF1EEA9
:1009600010FA04DD90ED050A80ED0A0A10E090ED22
:100970000A0AD0ED051AF1EE611AB4EEE10AF1EEC1
:1009800010FA05D290ED050AB1EE400A80ED0A0A90
:1009900090ED090AD0ED0A1A30EE210AD0ED0B1ABB
:1009A00030EE210A80ED080A90ED080AD0ED041A15
:1009B000B4EEE10AF1EE10FA04DD90ED040A80EDE8
:1009C000080A76E090ED080AD0ED041AF1EE611AFB
:1009D000B4EEE10AF1EE10FA6BD290ED040AB1EE3A
:1009E000400A80ED080A64E0FFE70178012960D140
:1009F00090ED0F0AD0ED101A30EE610AD0ED011A19
:100A000020EE210A80ED090A90ED020AD0ED0F1ABE
:100A100020EE210A80ED0A0A90ED0D0A80ED0E0A03
:100A200090ED0C0A80ED0D0A90ED0F0AD0ED101A32
:100A3000B0EE002A02EE610AD0ED111A30EE210A62
:100A400080ED0C0A90ED030AD0ED0C1A20EE210A7D
:100A500080ED0B0A90ED090AD0ED0A1A30EE210A5A
:100A6000D0ED0B1A30EE210AD0ED081A30EE210A33
:100A700080ED080A90ED080AD0ED041AB4EEE10A00
:100A8000F1EE10FA04DD90ED040A80ED080A10E0A2
:100A900090ED080AD0ED041AF1EE611AB4EEE10A05
:100AA000F1EE10FA05D290ED040AB1EE400A80EDA5
:100AB000080A90ED080A0EE700B970479FED100A8A
:100AC00080ED110A80ED100A80ED0F0A9FED0C0AEF
:100AD00080ED0E0A80ED0D0A80ED0C0A9FED080AEC
:100AE00080ED0B0A80ED0A0A80ED090A80ED080A04
:100AF0009FED030A80ED060A80ED070A00BFDCE7E0
:100B00000000000010B500241AE004EBC4014F4AB5
:100B100002EBC100DFED4E0A9FED4E0A4E4A002166
:100B2000FFF7A6FE04EBC4014C4A02EBC100DFED67
:100B30004C0A9FED4C0A4C4A0021FFF799FE641CB9
:100B4000042CE2DB04241AE004EBC4013F4A02EB6C
:100B5000C100DFED3F0A9FED3F0A3F4A0021FFF74A
:100B600087FE04EBC4013D4A02EBC100DFED3C0A05
:100B70009FED3C0A3C4A0021FFF77AFE641C082CDA
:100B8000E2DB10BD10B52DED028BB0EE408A0446BD
:100B9000611EC1EBC101354A02EB8101B1F90210BE
:100BA00000EE901AF8EEE00AB0EE600A611E01EB6A
:100BB000C101264A02EBC100F0EE480AFFF786FEAB
:100BC000601E00EBC000214901EBC00090ED080A57
:100BD000BDEC028B10BD10B52DED028BB0EE408A3E
:100BE0000446611EC1EBC101204A02EB8101D1ED37
:100BF000030AF8EEE00AB0EE600A611E01EBC101E3
:100C0000164A02EBC100F0EE480AFFF75FFE601ED5
:100C100000EBC000114901EBC00090ED080ABDECEB
:100C2000028B10BD10B52DED028BB0EE408A04464C
:100C30002046B0EE480AFFF7CEFFF0EE408A20468D
:100C4000FFF7A0FFBDEC028B10BD0000C00100202B
:100C50000080BB4500401C4624000020000400200A
:100C6000000096430000C84330000020CC00002064
:100C70000948804709480047FEE7FEE7FEE7FEE730
:100C8000FEE7FEE7FEE7FEE7FEE7FEE7044805496C
:100C9000054A064B704700005D0300088901000803
:100CA000900C002090120020900E0020900E00204A
:100CB00032490143324A1160704770B50021002368
:100CC0000F22C4781CB32E4C246804F4E064C4F5ED
:100CD000E064C4F30721C1F10404E3B20A4144789B
:100CE0009C40E1B28478144021430C07210E254C2E
:100CF00005786155047804F01F050124AC4005789F
:100D00006D11AD0005F1E025C5F8004109E004785A
:100D100004F01F050124AC401B4D0678761145F800
:100D2000264070BD194A0A400243154B1B1F1A602A
:100D3000704739B1124A121D12680243104B1B1D35
:100D40001A6006E00E4A121D126882430C4B1B1DEE
:100D50001A607047042808D14FF0E021096941F07A
:100D600004014FF0E022116107E04FF0E021096932
:100D700021F004014FF0E022116170470000FA05F4
:100D80000CED00E000E400E080E100E080FFFF1FE8
:100D900010B50446FE48844209D10121480601F0FD
:100DA00085FA00214FF0007001F080FA08E001217F
:100DB000880601F07BFA00214FF0806001F076FA9E
:100DC00010BD30B5024600200023146824F0020450
:100DD0001460146844F00104146000E05B1C546863
:100DE00004F001041CB94FF6FF74A342F6D1546815
:100DF00004F001040CB900206CE08C79012C04D1C2
:100E0000146844F08004146003E0146824F0800443
:100E10001460CC79012C04D1146844F040041460AF
:100E200003E0146824F0400414600C7A012C04D10F
:100E3000146844F02004146003E0146824F02004D3
:100E400014604C7A012C04D1146844F0100414602E
:100E500003E0146824F0100414608C7A012C04D18F
:100E6000146844F00804146003E0146824F00804D3
:100E70001460CC7A012C04D1146844F0040414608A
:100E800003E0146824F0040414608C78A407CD787F
:100E900044EA05640D7944EA05444D7944EA055471
:100EA0000D886D1E2C43D461146824F00104146075
:100EB000002300E05B1C546804F001041CB14FF6F1
:100EC000FF74A342F6D1546804F001040CB1002071
:100ED00000E0012030BD10B50021837A012202FA22
:100EE00003F1AC4A126842F00102AA4B1A60A94A07
:100EF0001C3212688A43A74B1C331A60027BCAB9A2
:100F0000A44A0C3212688A43A24B0C331A604288FE
:100F1000C38842EA03439F4A4032847A42F834301D
:100F20000288838842EA03439A4A4032847A02EB79
:100F3000C4025360027B012A19D1964A0C3212680E
:100F40000A43944B0C331A604288038842EA0343F5
:100F5000904A4032847A42F83430C288838842EA28
:100F600003438C4A4032847A02EBC4025360C27A53
:100F70003AB9884A121D12688A43864B1B1D1A60B3
:100F800006E0844A121D12680A43824B1B1D1A6038
:100F9000028932B97F4A143212688A437D4B143376
:100FA0001A600289012A06D17A4A143212680A4369
:100FB000784B14331A60427B012A06D1754A1C32E1
:100FC00012680A43734B1C331A60724A126822F08B
:100FD0000102704B1A6010BD00218171C171017254
:100FE00041728172C1728170C1700321017102214D
:100FF00041710121018070476649096841F0010192
:10100000644A11601146096843F60E729143614AC1
:1010100011601146096841EA002111601146096812
:1010200021F001011160704721B1026842F4803261
:10103000026003E0026822F4803202607047E1B18E
:10104000026842F0800202604FF4C272125842F409
:1010500080734FF4C27213504FF4CA72125842F4A4
:1010600080734FF4CA7213504FF4D272125842F484
:1010700080734FF4D27213501BE0026822F080029A
:1010800002604FF4C272125822F480734FF4C2729D
:1010900013504FF4CA72125822F480734FF4CA727C
:1010A00013504FF4D272125822F480734FF4D2725C
:1010B0001350704710B502460020936803F0806318
:1010C000B3F1806F00D110E0936803F00063B3F1D7
:1010D000006F01D1012008E0936803F08053B3F161
:1010E000805F01D1022000E00420042879D002F5BD
:1010F000C07303EB00131B6803F0010402F5C07317
:1011000003EB00131C600B7A7BB94B7A0C8843EA23
:10111000445302F5C07404EB00142468234302F521
:10112000C07404EB0014236010E00B7A4C6843EAAF
:10113000C4034C7A234302F5C07404EB0014246802
:10114000234302F5C07404EB001423608B7A03F090
:101150000F038B7202F5C07303EB00135B6823F07F
:101160000F0402F5C07303EB00135C6002F5C0735B
:1011700003EB00135B688C7A234302F5C07404EB25
:10118000001463608B7B1C064B7B44EA034403E042
:1011900000640040006600400B7B44EA0323CC7AE5
:1011A000234302F5C07404EB0014A3608B7C1C067F
:1011B0004B7C44EA03440B7C44EA0323CC7B23436B
:1011C00002F5C07404EB0014E36002F5C07303EB96
:1011D00000131B6843F0010402F5C07303EB001316
:1011E0001C6010BD10B50246002321B1012907D0B3
:1011F00002290FD109E09068F94C00EA04030BE0E2
:101200009068F84C00EA040306E09068F64C00EAA7
:10121000040301E0002300BF00BFF44C181BA342ED
:1012200016D007DC83B16FF08060184470B10228DB
:1012300018D111E0B0F5007F10D0ED4C204448B13A
:10124000B0F5003F0ED10BE002230DE000230BE0D0
:10125000002309E0002307E0012305E0012303E068
:10126000012301E0002300BF00BFD8B210BD21B1AF
:10127000012907D002290FD109E0826842F08002DB
:1012800082600AE0826842F40042826005E082687F
:1012900042F40002826000E000BF00BF704710B55A
:1012A00000F5D87303EB01131B6803F004031372FA
:1012B000137A53B900F5D87303EB01131B6840F29E
:1012C000FF7404EA5353136009E000F5D87303EB8D
:1012D00001131B686FF0604404EAD303536000F508
:1012E000D87303EB01131B6803F00203537200F57C
:1012F000D87303EB01135B6803F00F03937200F5DF
:10130000D87303EB01135B681B0AD37400F5D87321
:1013100003EB01139B68D37200F5D87303EB011341
:101320009B681C0A147300F5D87303EB01139B68C8
:101330001C0C547300F5D87303EB01139B681B0E50
:10134000937300F5D87303EB0113DB68D37300F5D7
:10135000D87303EB0113DB681C0A147400F5D8730F
:1013600003EB0113DB681C0C547400F5D87303EB1A
:101370000113DB681B0E937421B9C36843F020038B
:10138000C36003E0036943F02003036110BD21B98A
:10139000C26842F02002C26003E0026942F020020B
:1013A000026170470246002019B9D36803F00300B8
:1013B00006E0012903D1136903F0030000E00020D7
:1013C000704710B502460B4600204FF6FF71BBB9BF
:1013D000146824F0020444F00104146000E0491E83
:1013E000546804F00304012C01D00029F7D154689B
:1013F00004F00304012C01D0002032E0012030E091
:10140000012B13D1146824F00304146000E0491E7A
:10141000546804F003040CB10029F8D1546804F0B6
:1014200003040CB100201CE001201AE0022B17D1AC
:10143000146824F0010444F00204146000E0491E22
:10144000546804F00304022C01D00029F7D1546839
:1014500004F00304022C01D0002002E0012000E08F
:10146000002010BD014600200A6822F0010242F06F
:1014700002020A604A6802F00302022A00D1012037
:10148000704701464FF6FF7200200B6823F00203FD
:101490000B6000E0521E4B6803F00203022B01D1E7
:1014A000002AF7D14B6803F00203022B00D0012081
:1014B0007047014600208A6902F0700070470146BB
:1014C00000208A69100E7047014600208A69C2F325
:1014D000074070471AB143690B43436102E0436917
:1014E0008B434361704710B50246002001F470033E
:1014F00043B19369C1F3130423400BB101202DE0E4
:1015000000202BE001F0807343B15368C1F3130452
:1015100023400BB1012021E000201FE001F0006317
:1015200043B19368C1F3130423400BB1012015E0CC
:10153000002013E001F0007343B1D368C1F313043A
:1015400023400BB1012009E0002007E01369C1F33B
:10155000130423400BB1012000E0002010BD002245
:10156000244B994202D10023836111E0C1F313029D
:1015700001F000730BB1C2600AE001F080630BB1AF
:10158000026105E001F000630BB1826000E042609F
:1015900070470246002002EA01030BB1012000E07F
:1015A0000020704770B504460D460026606928404B
:1015B000002872D0B5F5807F69D01DDC082D42D09F
:1015C00006DC012D2DD0022D31D0042D7FD134E049
:1015D000102D3ED0202D42D0402D78D145E0000086
:1015E00003000004000300080000031000010008CD
:1015F0000001FFF77000F030B5F5004F61D009DC55
:10160000B5F5007F4AD0B5F5806F4DD0B5F5006FC8
:101610005DD150E0B5F5803F2DD0B5F5003F56D1F6
:101620002FE0A0685549FFF7B4FF064651E0E06897
:101630000321FFF7AEFF06464BE0E0680821FFF705
:10164000A8FF064645E0E0681021FFF7A2FF064626
:101650003FE020690321FFF79CFF064639E020693F
:101660000821FFF796FF064633E020691021FFF7B7
:1016700090FF06462DE060680821FFF78AFF0646C6
:1016800027E060681021FFF784FF064621E0A0698B
:101690000121FFF77EFF06461BE01BE0A069022147
:1016A000FFF777FF064614E0A0690421FFF771FFFA
:1016B00006460EE00BE0A0697021FFF76AFF0646C0
:1016C00007E060680421FFF764FF064601E000269A
:1016D00000BF00E00026304670BDB1F5007F3AD073
:1016E0000FDC202928D006DC01291CD004291DD0BC
:1016F000082940D11DE0402921D0B1F5807F3AD1A1
:1017000026E0B1F5004F31D006DCB1F5806F25D071
:10171000B1F5006F2FD124E0B1F5803F12D0B1F5C3
:10172000003F28D111E0154A826025E00822C260FE
:1017300022E01022C2601FE0082202611CE0102299
:10174000026119E00822426016E01022426013E0B4
:101750000422426010E0042242600DE00422426054
:101760000AE0002282610422426005E000228261D8
:101770000422426000E000BF00BF70470101010089
:10178000016821F001010160002101604160816078
:10179000C160016121214161DB49884204D13D21C1
:1017A000D94A103A91608CE0D7491831884205D166
:1017B0004FF47461D44A103A916082E0D2493031DA
:1017C000884205D14FF47411CF4A103A916078E005
:1017D000CD494831884205D14FF07461CA4A103A68
:1017E00091606EE0C8496031884204D1C749C64A59
:1017F000103AD16065E0C4497831884204D1C449C7
:10180000C14A103AD1605CE0BF499031884204D1AE
:10181000C049BD4A103AD16053E0BB49A831884263
:1018200005D14FF03D51B84A103AD16049E0BA496C
:10183000884204D13D21B84A083A116041E0B649D6
:101840001831884205D14FF47461B34A083A1160E7
:1018500037E0B1493031884205D14FF47411AE4AB6
:10186000083A11602DE0AC494831884205D14FF06B
:101870007461A94A083A116023E0A749603188429F
:1018800004D1A249A44A121F11601AE0A24978317A
:10189000884204D19E49A04A121F116011E09E495E
:1018A0009031884204D19B499B4A121F116008E085
:1018B0009949A831884204D14FF03D51964A121FF0
:1018C0001160704710B500220268944B1A40CC6832
:1018D0000B6823434C6923438C692343CC6923431E
:1018E0000C6A23434C6A23438C6A23434C6B234387
:1018F0008C6B23431A430260426922F00702D1E94C
:101900000B3423431A4342610B6943604B68836085
:101910008B68C36010BD0021016041608160C160BF
:10192000016141618161C161016241628162C162A3
:10193000016341638163704721B1026842F0010293
:10194000026003E0026822F001020260704721B1E8
:10195000026842F40042026003E0026822F400429E
:101960000260704721B1026842F02002026003E089
:10197000026822F020020260704741607047014611
:10198000486880B2704722B1036843F400230360C3
:1019900003E0036823F4002303600161704721B171
:1019A000026842F48022026003E0026822F480228E
:1019B000026070470AB1016100E0C16070470146F2
:1019C00000200A6802F400220AB1012000E0002091
:1019D0007047014600200A6802F001020AB10120A6
:1019E00000E000207047014600204A6902F03800FC
:1019F000704730B503460A4600200024464DAB42EE
:101A000002D24149103901E04349103902F0005532
:101A10000DB14C6800E00C68414D2C4004EA020511
:101A20000DB1012000E0002030BD02463A4B9A4241
:101A300002D23548103801E03748103801F0005321
:101A40001BB1374B0B40C36002E0354B0B4083604A
:101A5000704710B501F080034BB122B1436943F0E8
:101A60008003436103E0436923F0800343618029DD
:101A70000BD02AB1036801F01E042343036004E085
:101A8000036801F01E04A343036010BD70B5024655
:101A9000002000240025204EB24202D21A4B103BF7
:101AA00001E01D4B103B1F4E0E4036B11E2606EACC
:101AB000D124166806EA040502E0566906F080059E
:101AC00001F000560EB15C6800E01C68144E344012
:101AD00004EA010616B10DB1012000E0002070BD3E
:101AE00002460D4B9A4202D20748103801E00A48DC
:101AF000103801F000531BB1094B0B40C36002E0EA
:101B0000074B0B4083607047106002403D0000208F
:101B1000400F002000003D20106402403F801CF078
:101B20007D0F7D0F3C0F3C0F10B504469848844252
:101B300008D10121084600F086FB0021012000F0B9
:101B400082FB76E09348844208D10121022000F014
:101B50007AFB0021022000F076FB6AE08E48844286
:101B600008D10121042000F06EFB0021042000F0C8
:101B70006AFB5EE08948844208D10121082000F018
:101B800062FB0021082000F05EFB52E084488442A2
:101B900008D10121102000F056FB0021102000F098
:101BA00052FB46E07F48844208D10121202000F00A
:101BB0004AFB0021202000F046FB3AE07A488442AC
:101BC00008D10121402000F03EFB0021402000F020
:101BD0003AFB2EE07548844208D10121802000F0B4
:101BE00032FB0021802000F02EFB22E0704884426E
:101BF00008D10121801500F026FB0021A01500F07E
:101C000022FB16E06B48844208D10121401500F008
:101C10001AFB0021601500F016FB0AE066488442BA
:101C200007D10121001500F00EFB0021201500F066
:101C30000AFB10BDF0B50A4600210023002400BFB6
:101C40003DE0012505FA01F3156805EA03049C420D
:101C500034D105684F000326BE40B54305601579B1
:101C60004E00B5400668354305601579012D02D058
:101C70001579022D16D185684F000326BE40B54365
:101C8000856055794E00B540866835438560456866
:101C900001268E40B5434560456896798E40B6B2C0
:101CA00035434560C5684F000326BE40B543C56057
:101CB000D5794E00B540C6683543C560491C10292A
:101CC000BFD3F0BD4FF6FF7101600021017141717A
:101CD0008171C171704708B54FF480320092009A4B
:101CE0000A430092009AC261C161009AC261C2694E
:101CF0000092C269009208BD0246002013690B40A1
:101D00000BB1012000E0002070470146086980B255
:101D100070470246002053690B400BB1012000E0E0
:101D2000002070470146486980B2704701837047C0
:101D3000418370470AB1018300E0418370474161EC
:101D4000704742694A4042617047F0B50023002461
:101D50004D07ED0E02FA05F3CE1000F1200555F8FF
:101D600026504E07F70E0F26BE40B543CF1000F1A8
:101D7000200646F82750CE1000F1200555F82650D1
:101D800045EA0304CE1000F1200545F82640F0BDD9
:101D9000000002400004024000080240000C024023
:101DA000001002400014024000180240001C0240D3
:101DB000002002400024024000280240F948006848
:101DC00040F00100F74908600020F649083108603A
:101DD000F4480068F4490840F2490860F348091DD6
:101DE0000860F348EF4984310860F0481038091D55
:101DF0000860EC48006820F48020EA490860002070
:101E0000E8490C310860E7498C31086070470021CF
:101E1000E44A921C117011460870704710B50146D3
:101E20000022002300204A11012A02D1DD4C236840
:101E300008E0022A03D1DB4C7034236802E0D94C5D
:101E40007434236801F01F02012494401C400CB13B
:101E5000012000E0002010BD38B5002000900024D3
:101E6000002500BF3120FFF7D9FF05460098401C30
:101E700000900098B0F5A04F01D0002DF2D0312095
:101E8000FFF7CCFF08B1012400E00024204638BD54
:101E900001460020C34A106820F0F80040EAC10063
:101EA00010607047C349086070470021BD4A703216
:101EB00011701170012802D004280AD104E0012118
:101EC000B84A7032117005E00521B64A70321170BF
:101ED00000E000BF00BF7047B7490860704770B5A9
:101EE000049C41EA82150126C6EB530645EA0645E5
:101EF000054345EA0465AB4E361D356070BDAD49FE
:101F000008667047820142EA0172A64B84331A6068
:101F10007047A8498866704710B5830143EA01639A
:101F200043EA02739F4C8834236010BDA1490867BF
:101F30007047A049C864704702460020994B083397
:101F4000186820F0EC6042EA01031843954B08330F
:101F50001860704702460020924B0833186820F042
:101F6000784042EA010318438E4B083318607047EB
:101F7000014600208B4A0832106820F00300084315
:101F80001060704787480830006800F00C00704708
:101F900001460020834A0832106820F0F000084310
:101FA00010607047014600207E4A0832106820F415
:101FB000E05008431060704701460020794A08321B
:101FC000106820F4604040EAC10010607047F0B52E
:101FD000002100220024022500260223714F083729
:101FE0003F6807F00C0121B1042905D0082937D139
:101FF00005E0724F076036E0714F076033E0694FCC
:102000003F1D3F68C7F38056664F3F1D3F6807F08E
:102010003F036EB16A4FB7FBF3F7DFF888C10CF1ED
:10202000040CDCF800C0CCF3881C07FB0CF40CE0BB
:10203000624FB7FBF3F7DFF86CC10CF1040CDCF86E
:1020400000C0CCF3881C07FB0CF4564F3F1D3F68C3
:10205000C7F301477F1C7D00B4FBF5F7076002E082
:10206000564F076000BF00BF4E4F08373F6807F06C
:10207000F0010909534F7A5C0768D7404760494F20
:1020800008373F6807F4E051890A4E4F7A5C476889
:10209000D7408760434F08373F6807F46041490BDA
:1020A000484F7A5C4768D740C760F0BD002100F414
:1020B0004072B2F5407F0AD13A4A0832116821F4E1
:1020C000F811414A02401143364A08321160354A3C
:1020D00070321268C0F30B031A43324B70331A602C
:1020E00070473549443908607047334940390860C2
:1020F000704736490860704701460020294A8C32F3
:10210000106820F01F004A1E1043264A8C321060CF
:10211000704701460020234A8C32106820F4F850A2
:102120004A1E40EA02201F4A8C3210607047014666
:1021300000201C4A8C32106820F4401008431060C4
:10214000704701460020174A8C32106820F4400086
:1021500008431060704701460020124A8C32106814
:1021600020F44030084310607047194908607047F8
:1021700039B10C4A3032126802430A4B30331A60CC
:1021800006E0084A303212688243064B30331A6048
:102190007047F9B1034A343212680243014B3433B9
:1021A0001A601CE000380240FFFFF6EA10300024FD
:1021B0000030002000004742800E47420024F40017
:1021C000001BB7003C000020FFFCFF0F5C014742F2
:1021D000E01147428F4A126882438E4B1A60704763
:1021E00039B18C4A121D126802438A4B1B1D1A60BA
:1021F00006E0884A121D12688243864B1B1D1A6036
:10220000704739B1834A0C3212680243814B0C3358
:102210001A6006E07F4A0C32126882437D4B0C3311
:102220001A60704739B17B4A103212680243794B09
:1022300010331A6006E0774A103212688243754BF9
:1022400010331A60704739B1724A243A1268024357
:10225000704B243B1A6006E06E4A243A12688243AF
:102260006C4B243B1A60704739B16A4A203A1268B5
:102270000243684B203B1A6006E0664A203A126827
:102280008243644B203B1A60704739B1614A1C3A63
:10229000126802435F4B1C3B1A6006E05D4A1C3A21
:1022A000126882435B4B1C3B1A60704739B1594A34
:1022B000143A12680243574B143B1A6006E0554A21
:1022C000143A12688243534B143B1A60704739B179
:1022D000504A103A126802434E4B103B1A6006E017
:1022E0004C4A103A126882434A4B103B1A607047BE
:1022F00039B1484A1C3212680243464B1C331A60FB
:1023000006E0444A1C3212688243424B1C331A6076
:10231000704739B13F4A2032126802433D4B2033A7
:102320001A6006E03B4A203212688243394B203360
:102330001A60704739B1374A243212680243354B6C
:1023400024331A6006E0334A243212688243314B48
:1023500024331A60704739B12E4A2C321268024376
:102360002C4B2C331A6006E02A4A2C321268824326
:10237000284B2C331A60704739B1264A3032126824
:102380000243244B30331A6006E0224A303212688E
:102390008243204B30331A607047012808D11D4911
:1023A0003C31096841F008011A4A3C32116007E0EB
:1023B00018493C31096821F00801164A3C32116085
:1023C000704739B1134A273A12780243114B273B21
:1023D0001A7006E00F4A273A127882430D4B273BCA
:1023E0001A7070470B484030006840F0807009490F
:1023F00040310860704701460020064A283A1268BA
:102400000A400AB1012000E0002070470149263946
:10241000087070473438024010B50446FE488442C4
:1024200008D101210846FFF752FF00210120FFF7E4
:102430004EFF9DE0B4F1804F08D101210846FFF71F
:1024400035FF00210120FFF731FF91E0F34884427E
:1024500008D101210220FFF729FF00210220FFF708
:1024600025FF85E0EE48844208D101210420FFF7D2
:102470001DFF00210420FFF719FF79E0E94884429D
:1024800008D101210820FFF711FF00210820FFF7E4
:102490000DFF6DE0E448844208D101211020FFF7D0
:1024A00005FF00211020FFF701FF61E0DF488442B3
:1024B00008D101212020FFF7F9FE00212020FFF79D
:1024C000F5FE55E0DA48844208D101210220FFF7E9
:1024D000FEFE00210220FFF7FAFE49E0D5488442C3
:1024E00009D101210804FFF7F2FE00214FF48030EA
:1024F000FFF7EDFE3CE0D048844209D101214804B9
:10250000FFF7E5FE00214FF40030FFF7E0FE2FE07B
:10251000CA48844209D101218804FFF7D8FE00216E
:102520004FF48020FFF7D3FE22E0C548844208D153
:1025300001214020FFF7BAFE00214020FFF7B6FE40
:1025400016E0C048844208D101218020FFF7AEFE8A
:1025500000218020FFF7AAFE0AE0BB48844207D191
:1025600001218015FFF7A2FE0021A015FFF79EFEB6
:1025700010BD00220288A84B98420ED0AC4B984266
:102580000BD0B0F1804F08D0A44B984205D0A44B9B
:10259000984202D0A34B984204D14FF68F731A4051
:1025A0004B881A43A04B984207D0A04B984204D0C6
:1025B0004FF6FF431A400B891A4302804B68C362EF
:1025C0000B880385944B984202D0994B984201D1D5
:1025D0008B7A03860123838270474FF0FF3141607D
:1025E00000210180018141808172704701858282D2
:1025F00070470A46002101884FF68F731940114336
:102600000180704741627047C16270470146486A65
:1026100070470146088D704721B1028842F00202DE
:10262000028004E002884FF6FD731A400280704772
:1026300021B1028842F00402028004E002884FF6D1
:10264000FB731A400280704721B1028842F0800279
:10265000028004E002884FF67F731A4002807047C0
:1026600002884FF6F7731A40028002880A430280FC
:10267000704702884FF6FF431A40028002880A43DF
:102680000280704721B1028842F00102028004E01A
:1026900002884FF6FE731A400280704770B500241E
:1026A00000220023058C4FF6FE7635400584028C0F
:1026B0008388048B4FF68F752C40B51E2C400D88F7
:1026C0002C43751E2A408D892A434D882A43524D3A
:1026D000A84202D0564DA84213D14FF6F7752A40B2
:1026E000CD892A434FF6FB752A408D882A434FF641
:1026F000FF652B404FF6FF552B400D8A2B434D8A2B
:102700002B43838004838D684563028470BD70B55C
:10271000002400220023058C4FF6EF763540058417
:10272000028C8388048B48F6FF752C404FF6FF45DA
:102730002C400D884FF6FF7606EA05252C434FF610
:10274000DF752A408D8906EA05152A434D8806EA79
:1027500005152A43304DA84202D0354DA8421DD15F
:102760004FF67F752A40CD894FF6FF7606EA0515AC
:102770002A434FF6BF752A408D8806EA05152A437D
:102780004FF6FF352B404FF2FF752B400D8A06EABE
:1027900085052B434D8A06EA85052B4383800483F8
:1027A0008D688563028470BD70B50024002200230B
:1027B000058C4FF6FF6635400584028C8388848B38
:1027C0004FF68F752C404FF6FC752C400D882C432E
:1027D0004FF6FF552A408D894FF6FF7606EA05250C
:1027E0002A434D8806EA05252A430B4DA84202D00C
:1027F0000F4DA84238D14FF2FF752A40CD894FF6D0
:10280000FF7606EA05252A434FF6FF352A408D88D4
:1028100006EA05252A4319E00000014000040040B3
:1028200000080040000C0040001000400014004070
:1028300000040140004001400044014000480140C4
:1028400000180040001C0040002000404EF6FF75BC
:102850002B404DF6FF752B400D8A06EA05152B43DC
:102860004D8A06EA05152B43838084838D68C563F2
:10287000028470BD70B5002200230024058C4EF642
:10288000FF7635400584038C8488828B48F6FF757B
:102890002A404FF6FF452A400D884FF6FF7606EA9C
:1028A00005252A434DF6FF752B408D8906EA05352F
:1028B0002B434D8806EA05352B43FE4DA84202D036
:1028C000FD4DA84208D14BF6FF752C400D8A4FF6FE
:1028D000FF7606EA85152C43848082838D68056423
:1028E000038470BD002101804180818081608181ED
:1028F000C18101824182704770B5034600200024E7
:102900001846183001258D40ACB21D8CA5431D849E
:1029100009B108290AD100EB610005684FF68F76EE
:10292000354005600568154305600FE00D1FC5F3D0
:102930004E052844056848F6FF7635400560056871
:102940004FF6FF7606EA02263543056070BD416307
:10295000704781637047C1637047016470470A46DE
:102960000021018B4FF68F7319401143018370478B
:102970000A460021018B48F6FF7319404FF6FF739A
:1029800003EA02231943018370470A460021818B21
:102990004FF68F7319401143818370470A46002117
:1029A000818B48F6FF7319404FF6FF7303EA022349
:1029B0001943818370470A460021018B4FF6F77354
:1029C00019401143018370470A460021018B4FF2E1
:1029D000FF7319404FF6FF7303EA02231943018383
:1029E00070470A460021818B4FF6F7731940114357
:1029F000818370470A460021818B4FF2FF73194093
:102A00004FF6FF7303EA02231943818370470A4696
:102A10000021018B4FF6FB7319401143018370476E
:102A20000A460021018B4FF6FF3319404FF6FF7322
:102A300003EA02231943018370470A460021818B70
:102A40004FF6FB7319401143818370470A460021FA
:102A5000818B4FF6FF3319404FF6FF7303EA0223D1
:102A60001943818370470A460021018B4FF67F731B
:102A700019401143018370470A460021018BC1F3BD
:102A80000E014FF6FF7303EA0223194301837047D7
:102A90000A460021818B4FF67F73194011438183D1
:102AA00070470A460021818BC1F30E014FF6FF7378
:102AB00003EA02231943818370470A460021018CEF
:102AC0004FF6FD7319401143018470470A460021F7
:102AD000018C4FF6F77319401143018470470A4681
:102AE0000021018C4FF6DF7319404FF6FF7303EAA4
:102AF00002131943018470470A460021018C4FF6E6
:102B00007F7319404FF6FF7303EA021319430184E0
:102B100070470A460021018C4FF6FF5319404FF6CB
:102B2000FF7303EA02231943018470470A46002118
:102B3000018C4FF2FF7319404FF6FF7303EA022333
:102B40001943018470470A460021018C4DF6FF733A
:102B500019404FF6FF7303EA0233194301847047AB
:102B600030B5002301248C40A3B2048C9C43048420
:102B7000048C02FA01F5ADB22C43048430BD30B5AB
:102B8000002304248C40A3B2048C9C430484048C52
:102B900002FA01F5ADB22C43048430BD828B4FF2B2
:102BA000FF331A408283828B4FF6FF7303EA0123BF
:102BB0001A4382837047F0B50C4615460021002267
:102BC0000026078C4EF6FF7C07EA0C070784818BF2
:102BD000028C4FF6FF7707EA043640F6FF4739408C
:102BE0004FF6FF7707EA052739434FF6FF7707EAE5
:102BF0000337394345F6FF773A4046F480573A4366
:102C000081830284F0BD828B4FF6F3731A40828376
:102C1000828B0A4382837047F0B50C46154600212B
:102C200000220026078C4FF6FF6C07EA0C0707848A
:102C3000818B028C4FF6FF7707EA04264FF60C775C
:102C400039404FF6FF7707EA03172F4339434FF216
:102C5000FF573A4046F480773A4381830284F0BDBF
:102C6000028B4FF2FF331A400283028B4FF6FF7341
:102C700003EA01231A4302837047F0B50C46154658
:102C8000002100220026078C4FF6EF7C07EA0C0794
:102C90000784018B028C4FF6FF7707EA041640F693
:102CA000FF4739404FF6FF7707EA033739434FF6BE
:102CB000FF7703E0000001400004014007EA052718
:102CC00039434FF65F773A4046F010073A430183A5
:102CD0000284F0BD028B4FF6F3731A400283028B1D
:102CE0000A4302837047F0B50C46154600210022C6
:102CF000068C4FF6FE773E400684018B028C4FF621
:102D00000C7631407E1C06EA03162E4331434FF603
:102D1000F576324044F00106324301830284F0BD6F
:102D200070B505460C46208850B92389A288618871
:102D30002846FFF7D8FFE1882846FFF7CBFF25E0BC
:102D4000208804280AD12389A28861882846FFF7B1
:102D500094FFE1882846FFF783FF17E020880828C2
:102D60000AD12389A28861882846FFF755FFE188A8
:102D70002846FFF748FF09E02389A2886188284692
:102D8000FFF719FFE1882846FFF708FF70BD002113
:102D900001804180012181800021C1800181704733
:102DA0002DE9F04105460C4600260127608808B948
:102DB000022600E00026A088012801D1022700E0B9
:102DC00001272088A0B92389A28861882846FFF7B7
:102DD0008AFFE1882846FFF77DFF23893A4631467E
:102DE0002846FFF74AFFE1882846FFF739FF13E03E
:102DF0002389A28861882846FFF73FFFE18828469B
:102E0000FFF72EFF23893A4631462846FFF76BFF2E
:102E1000E1882846FFF75EFFBDE8F0810146486B78
:102E200070470146886B70470146C86B7047014682
:102E3000086C70470A884B881A438B881A43CB88E2
:102E40001A430B891A434B891A438B891A43A0F8FA
:102E5000442070470021018041808180C180018130
:102E600041818181704731B1B0F8442042F4004281
:102E7000A0F8442005E0B0F84420C2F30E02A0F808
:102E80004420704721B1828842F00402828004E02D
:102E900082884FF6FB731A408280704721B1828886
:102EA00042F00102828004E082884FF6FE731A40ED
:102EB000828070471AB183890B43838102E0838942
:102EC0008B43838170478182704702460020138ABA
:102ED0000B400BB1012000E000207047CA43028282
:102EE000704730B50246002000230024158A05EA09
:102EF0000103958905EA010413B10CB1012000E03A
:102F0000002030BDCA430282704741EA0203A0F8A4
:102F1000483070471AB183890B43838102E083896B
:102F20008B438381704721B1828842F008028280FE
:102F300004E082884FF6F7731A4082807047018957
:102F40004FF6F8721140018170470A46002101894D
:102F50004FF68F73194011430181704730B5044615
:102F60000D4629462046FFF7F0FF208940F0070074
:102F7000208130BD2DE9F04104460D4616461F461E
:102F8000602D06D13B46012231462046FFF775FEF3
:102F900005E03B46012231462046FFF7A4FE2946C4
:102FA0002046FFF7D2FF208940F007002081BDE8CE
:102FB000F08130B50C4600210189C9B24FF6FF758A
:102FC00005EA0325154325432943018130BD2DE939
:102FD000F04105460E4617469846002443463A46B9
:102FE00031462846FFF7E5FF2C894FF6F87004407C
:102FF00044F007044FF68F70044044F070042C81B5
:10300000BDE8F081F0B504460D4616461F463B4626
:10301000324629462046FFF7CCFF208940F4804005
:103020002081F0BD82884FF68F731A40828082889B
:103030000A438280704702894FF6F8731A40028172
:1030400002890A430281704702894FF67F731A4052
:10305000028102890A4302817047F0B50C46154689
:103060001E460021002200230189028B038C4FF6AB
:10307000F877394021434FF6FC473A4040F20117B8
:103080003A434FF6DD773B404FF6FF7707EA0617E6
:103090002F433B43018102830384F0BD21B1828829
:1030A00042F08002828004E082884FF67F731A40EB
:1030B00082807047A0F850107047000010B5044699
:1030C000FA48844208D101211020FFF700F90021BD
:1030D0001020FFF7FCF857E0F548844209D10121A0
:1030E0004804FFF7E3F800214FF40030FFF7DEF863
:1030F0004AE0F048844209D101218804FFF7D6F85C
:1031000000214FF48020FFF7D1F83DE0EA488442E7
:1031100009D10121C804FFF7C9F800214FF40020AC
:10312000FFF7C4F830E0E548844209D101210805E1
:10313000FFF7BCF800214FF48010FFF7B7F823E049
:10314000DF48844208D101212020FFF7C0F8002188
:103150002020FFF7BCF817E0DA48844209D10121AA
:103160008807FFF7A3F800214FF08040FFF79EF893
:103170000AE0D548844207D101214005FFF796F8BF
:1031800000216005FFF792F810BD2DE9FF470546C5
:103190000E460024A14600BFA046B08900B100BF82
:1031A0002C8A24F44054F08804432C82AC8941F2E8
:1031B0000C608443B0883189084371890843044313
:1031C000AC81AC8A24F44074B0890443AC82684674
:1031D000FEF7FDFEB548854202D0B948854202D1CE
:1031E000DDF80C9001E0DDF80890A88900F40040BB
:1031F00040B109EBC90000EB091031684900B0FB90
:10320000F1F707E009EBC90000EB0910316889000C
:10321000B0FBF1F76420B7FBF0F004012009642152
:1032200001FB1078A88900F4004040B1322000EB87
:10323000C800B0FBF1F000F00700044308E03220C2
:1032400000EB08106421B0FBF1F000F00F00044324
:103250002C81BDE8FF874FF4165101600021818069
:10326000C18001810C21418100218181704710B50D
:1032700002460020108A20F470600B884C8823439B
:103280008C882343CC8823431843108210BD00212F
:10329000018041808180C180704721B1828942F4E0
:1032A0000052828104E082894DF6FF731A408281C8
:1032B0007047028B02F47F420283028B0A4302832F
:1032C000704721B1828942F40042828103E0828901
:1032D000C2F30E028281704721B1828A42F40062F9
:1032E000828204E0828A4FF2FF731A408282704722
:1032F000C1F308028280704701468888C0F3080045
:103300007047028A4FF6F0731A400282028A0A431B
:103310000282704721B1828942F00202828104E078
:1033200082894FF6FD731A408281704782894FF27D
:10333000FF731A40828182890A4382817047028A20
:103340004FF6DF731A400282028A0A4302827047F4
:1033500021B1028A42F48042028204E0028A4BF6E2
:10336000FF731A4002827047818941F00101818117
:10337000704721B1828A42F00802828204E0828A88
:103380004FF6F7731A4082827047028BD2B20283E3
:10339000028B42EA01220283704721B1828A42F005
:1033A0002002828204E0828A4FF6DF731A40828212
:1033B000704721B1828A42F01002828204E0828A40
:1033C0004FF6EF731A4082827047828A4FF6FB7382
:1033D0001A408282828A0A438282704721B1828A9D
:1033E00042F00202828204E0828A4FF6FD731A40A4
:1033F000828270471AB1838A0B43838202E0838AF8
:103400008B4383827047F0B50346002400260025D5
:10341000002040F66A17B94200D100BF1846C1F338
:10342000421401F01F06012707FA06F5012C01D10D
:103430000C3004E0022C01D1103000E014301AB13D
:1034400007682F43076002E00768AF430760F0BDDD
:1034500002460020B1F5007F00D100BF13880B4069
:103460000BB1012000E00020704701F40072B2F5BA
:10347000007F00D100BFCA430280704770B502468A
:10348000002400230025002040F66A16B14200D136
:1034900000BFC1F3421501F01F03012606FA03F332
:1034A000012D13D19689334017E000000010014030
:1034B0000044004000480040004C004000500040E4
:1034C0000014014000780040007C0040022D02D131
:1034D000168A334001E0968A33400C12012606FA20
:1034E00004F41688344013B10CB1012000E0002030
:1034F00070BD10B50022002340F66A14A14200D12D
:1035000000BF0A1201249440A3B2DC43048010BD22
:1035100010B504466FF00400FDF71CFCE11704EB46
:103520005171C1F3C701394A11701046007800EBA0
:103530004001C1EBC0104FF6FF7101EAC0003449F1
:10354000088010BD0146314A12784A434FF0E0230B
:103550005A6100229A611A46126942F001021A6108
:1035600000BF4FF0E022106900F001021AB100F430
:103570008032002AF5D04FF0E022126922F00102D9
:103580004FF0E0231A6100229A6170470146204AF9
:1035900012884A434FF0E0235A6100229A611A468A
:1035A000126942F001021A6100BF4FF0E022106977
:1035B00000F001021AB100F48032002AF5D04FF079
:1035C000E022126922F001024FF0E0231A6100228A
:1035D0009A61704770B504464FF4077094FBF0F0A1
:1035E000C6B24FF4077094FBF0F100FB114085B2B6
:1035F00005E04FF40770FFF7C9FF701EC6B2002E3A
:10360000F7D115B12846FFF7C1FF70BD4C0000206F
:103610004E00002010B596B0044601210420FEF7AC
:10362000A7FD01218804FEF7ECFD01214805FEF706
:103630009FFD07220A21FE48FEF787FB07220B2188
:10364000FB48FEF782FB4FF44060149002208DF897
:10365000540003208DF8550000208DF856008DF899
:10366000570014A9F248FEF7E5FAF248109000203E
:10367000ADF84400ADF846004FF48060ADF8480066
:103680000020ADF84C000420ADF84A0010A9EA482B
:10369000FFF77BFD0121E848FFF7FFFD012240F223
:1036A0002441E548FFF7AFFE01226021E248FFF721
:1036B000AAFE012240F22551DF48FFF7A4FE272091
:1036C0008DF8000002208DF8010000208DF8020026
:1036D00001208DF803006846FDF7EFFAD748FEF7A2
:1036E0004FF84FF000600190D348001D0290D4487D
:1036F00003900020049012200590002006904FF4C3
:10370000806007900020089009904FF480700A9024
:103710004FF440300B9000200C900D900E900F90C5
:103720000022C7491231C548FEF72DF90121C348CF
:10373000FEF735F901A9C148FEF7C4F8012240217E
:10374000BD48FFF757FE0121BC48FEF7F5F816B05B
:1037500010BD10B588B0044601210846FEF708FDEB
:1037600001210220FEF704FD01211020FEF75AFD81
:1037700007220921B348FEF7E8FA07221146B248AA
:10378000FEF7E3FA4FF40070069002208DF81C005B
:1037900003208DF81D0000208DF81E0001208DF8FB
:1037A0001F0006A9A748FEF745FA802006900220D0
:1037B0008DF81C0003208DF81D0000208DF81E00E0
:1037C00001208DF81F0006A99F48FEF733FA0294E6
:1037D0000020ADF80C00ADF80E00ADF81000ADF80B
:1037E00014000C20ADF8120002A99848FFF7CDFC98
:1037F00001219648FFF751FD012240F225519348DF
:10380000FFF701FE25208DF8040002208DF8050049
:1038100001208DF806008DF8070001A8FDF74DFA8C
:1038200001214020FEF7A4FC01212020FEF7FAFC34
:1038300008220E218648FEF788FA082209218448CA
:10384000FEF783FA4FF48440069002208DF81C00A6
:1038500003208DF81D0000208DF81E0001208DF83A
:103860001F0006A97A48FEF7E5F94FF4E13002900F
:103870000020ADF80C00ADF80E00ADF81000ADF86A
:1038800014000C20ADF8120002A97248FFF77DFC6D
:1038900001217048FFF701FD012240F225516D48DA
:1038A000FFF7B1FD47208DF8040002208DF80500D8
:1038B0008DF8060001208DF8070001A8FDF7FDF93D
:1038C00008B010BD10B54FF41650FFF742FF0024AA
:1038D0000CE06148015D5D48FFF70AFD00BF402133
:1038E0005A48FFF7B5FD0128F9D1641C052CF0DB1F
:1038F00000240CE05948015D5448FFF7F9FC00BF73
:1039000040215248FFF7A4FD0128F9D1641C052C81
:10391000F0DB10BD52490A780978491C504B1970E8
:10392000504988540978552903D000211A4611704E
:1039300070474B4909780B2900DAF9E7494949787A
:10394000532906D14849474A921C13680B605268B4
:103950004A600021424A117000BFE9E7F0B50B460A
:1039600014460021002200E0491C455C002DFBD1DB
:10397000002204E09F5C0D46491C4755521CA242A0
:10398000F8DBF0BD0CB5394903C9CDE90001384871
:1039900080ED000A042201466846FFF7DFFF0CBDF8
:1039A00010B540F225512948FFF768FDF8B13148BC
:1039B0000068401C2F4908602448FFF79DFC2E49F1
:1039C000087008460078FFF7A5FF2748B0F9040003
:1039D00000EE100AB8EEC00ADFED280A80EE201AC9
:1039E0009FED270A21EE000A264880ED000A10BD4F
:1039F00000B970470178427841EA0221C1F30A0117
:103A0000214A11804178C910827841EA4211C1F3FC
:103A10000A011D4A518081788911C27841EA8201E8
:103A2000027941EA8221C1F30A01174A91802DE00F
:103A300000080240A08601000048004028600240C3
:103A4000C00A0020000002400004024000100140B3
:103A500000180240001401407D0000207800002082
:103A6000B8000020180B002050000020B03D0008D6
:103A7000BC000020C4000020C0000020000000475F
:103A80000000344358000020E40A00200179491066
:103A9000427941EAC211C1F30A01944AD180017C02
:103AA000427C41EA022109B2904A1181417909110F
:103AB000890891724179C1F30111D17211460988C7
:103AC000A1F5806109B2118011464988A1F5806194
:103AD00009B2518011468988A1F5806109B29180AF
:103AE0001146C988A1F5806109B2D18011460989C2
:103AF000A1F5806109B2118100BF7AE710B540F2EB
:103B000024417B48FFF7BAFC00283AD07848008867
:103B10007748001D00887748FDF751FF88BB0021DA
:103B20007448FDF709FF122072492839C862084617
:103B3000806A40F40020886201216E48FDF7FCFE97
:103B40006C48FDF71CFF18B96B48FFF751FF18E0F0
:103B500000216848FDF7F0FE122066492839C86246
:103B60000846806A20F40020886201216148FDF740
:103B7000E3FE6048FDF703FF18B15F481230FFF71E
:103B800037FF40F224415A48FFF7B3FC10BD01460D
:103B90000020302904DB392902DCA1F1300005E0E6
:103BA000412903DB462901DCA1F13700704710B53C
:103BB00001205249086040F225515148FFF75EFC50
:103BC00001287CD140F225514D48FFF792FC4C482A
:103BD000FFF792FB4B4908704B48007805287FD2CD
:103BE000DFE800F00311263D4B00464800780D2821
:103BF00005D145480078401C4349087002E0002088
:103C00004149087070E03F4800780A2808D1002038
:103C10003E4908703C480078401C3B49087006E06B
:103C2000384800780D2802D00020374908705BE042
:103C3000344800783649354A127888543348007839
:103C4000401C3249087008460078182806DB00201E
:103C500008702D480078401C2B49087044E0294822
:103C600000780A2805D128480078401C26490870A9
:103C700002E000202449087036E0224800780D2830
:103C80002AD1234890ED000A224880ED000A2048FE
:103C900090ED010A204880ED000A1D4890ED020ACF
:103CA0001E4880ED000A1A4890ED030AB1EE400A62
:103CB0001B4880ED000A164890ED040A01E014E06C
:103CC0000EE0B1EE400A174880ED000A104890ED72
:103CD000050A154880ED000A00200B49087003E032
:103CE00000200949087000BF00BF10BDE40A002091
:103CF0000048004028600240C00A0020B4000020B4
:103D00000014014082000020C8000020C9000020EB
:103D1000140C00206C0000206400002068000020CB
:103D20005C00002060000020700000207047704799
:103D30007047754600F02CF8AE46050069465346BC
:103D400020F00700854618B020B5FCF79FFFBDE8BE
:103D500020404FF000064FF000074FF000084FF0F2
:103D6000000B21F00701AC46ACE8C009ACE8C00983
:103D7000ACE8C009ACE8C0098D46704710B50446F0
:103D8000AFF300802046BDE81040FCF746BA0000C3
:103D9000004870472C0C002001491820ABBEFEE7FC
:103DA0002600020070474FF04070E1EE100A7047A5
:103DB0004143544A00000000D83D000800000020A4
:103DC000CC000000C4010008A43E0008CC00002084
:103DD000C4110000E0010008007A030A000000009E
:103DE00000000000010203040607080900000000AB
:103DF0000000000000000000000000000000204162
:103E0000CDCCCC3D00000000CDCC4C3E00000000ED
:103E10000000803F000000000102030401020304CF
:103E20000607080900000000000000000000000074
:103E30000000000000000000000000000000000082
:103E40000000000000000000000000000000803FB3
:103E5000FFAA760000FFAA6988B5000000000000F4
:103E60000000000000000000000000000000000052
:103E7000000000000000000000000000CDCCCC3E9F
:103E8000D00F4940000000000000000000000000CA
:103E90000000000000000000000000000000000022
:043EA000000000001E
:040000050800018965
:00000001FF
